FIX.4.4:hudfix2->XBRV
FIX.4.4:hudfix2->XBRV
8=FIX.4.4|9=67|35=A|34=24|49=hudfix2|52=20180426-15:40:02.495|56=XBRV|98=0|108=30|10=057|
FIX.4.4:hudfix2->XBRV
8=FIX.4.4|9=67|35=A|34=24|49=XBRV|52=20180426-15:39:57.254|56=hudfix2|98=0|108=30|10=068|
FIX.4.4:hudfix2->XBRV
8=FIX.4.4|9=65|35=2|34=25|49=hudfix2|52=20180426-15:40:07.982|56=XBRV|7=22|16=0|10=196|
FIX.4.4:hudfix2->XBRV
FIX.4.4:hudfix2->XBRV
8=FIX.4.4|9=98|35=F|34=26|49=hudfix2|52=20180426-15:40:07.998|56=XBRV|11=11|41=41|54=6|55=55|58=Cancel My Order!|10=069|
FIX.4.4:hudfix2->XBRV
8=FIX.4.4|9=101|35=j|34=27|49=hudfix2|52=20180426-15:40:09.889|56=XBRV|45=22|58=Unsupported Message Type|372=j|380=3|10=213|
FIX.4.4:hudfix2->XBRV
8=FIX.4.4|9=101|35=j|34=28|49=hudfix2|52=20180426-15:40:11.631|56=XBRV|45=23|58=Unsupported Message Type|372=j|380=3|10=193|
FIX.4.4:hudfix2->XBRV
8=FIX.4.4|9=125|35=3|34=25|49=XBRV|52=20180426-15:39:59.173|56=hudfix2|45=26|58=Required field 'TransactTime' is missing.|371=60|372=F|373=1|10=086|
FIX.4.4:hudfix2->XBRV
8=FIX.4.4|9=101|35=j|34=29|49=hudfix2|52=20180426-15:40:13.219|56=XBRV|45=26|58=Unsupported Message Type|372=j|380=3|10=201|
FIX.4.4:hudfix2->XBRV
8=FIX.4.4|9=101|35=j|34=30|49=hudfix2|52=20180426-15:40:14.832|56=XBRV|45=27|58=Unsupported Message Type|372=j|380=3|10=196|
FIX.4.4:hudfix2->XBRV
8=FIX.4.4|9=101|35=j|34=31|49=hudfix2|52=20180426-15:40:16.534|56=XBRV|45=28|58=Unsupported Message Type|372=j|380=3|10=199|
FIX.4.4:hudfix2->XBRV
8=FIX.4.4|9=101|35=j|34=32|49=hudfix2|52=20180426-15:40:18.400|56=XBRV|45=29|58=Unsupported Message Type|372=j|380=3|10=195|
FIX.4.4:hudfix2->XBRV
8=FIX.4.4|9=101|35=j|34=33|49=hudfix2|52=20180426-15:40:20.267|56=XBRV|45=30|58=Unsupported Message Type|372=j|380=3|10=192|
FIX.4.4:hudfix2->XBRV
8=FIX.4.4|9=101|35=j|34=34|49=hudfix2|52=20180426-15:40:22.044|56=XBRV|45=31|58=Unsupported Message Type|372=j|380=3|10=189|
FIX.4.4:hudfix2->XBRV
8=FIX.4.4|9=101|35=j|34=35|49=hudfix2|52=20180426-15:40:23.886|56=XBRV|45=32|58=Unsupported Message Type|372=j|380=3|10=206|
FIX.4.4:hudfix2->XBRV
8=FIX.4.4|9=101|35=j|34=36|49=hudfix2|52=20180426-15:40:25.657|56=XBRV|45=33|58=Unsupported Message Type|372=j|380=3|10=206|
FIX.4.4:hudfix2->XBRV
8=FIX.4.4|9=101|35=j|34=37|49=hudfix2|52=20180426-15:40:27.179|56=XBRV|45=34|58=Unsupported Message Type|372=j|380=3|10=209|
FIX.4.4:hudfix2->XBRV
8=FIX.4.4|9=101|35=j|34=38|49=hudfix2|52=20180426-15:40:28.764|56=XBRV|45=35|58=Unsupported Message Type|372=j|380=3|10=212|
FIX.4.4:hudfix2->XBRV
8=FIX.4.4|9=101|35=j|34=39|49=hudfix2|52=20180426-15:40:30.473|56=XBRV|45=36|58=Unsupported Message Type|372=j|380=3|10=204|
FIX.4.4:hudfix2->XBRV
8=FIX.4.4|9=101|35=j|34=40|49=hudfix2|52=20180426-15:40:32.211|56=XBRV|45=37|58=Unsupported Message Type|372=j|380=3|10=189|
FIX.4.4:hudfix2->XBRV
8=FIX.4.4|9=101|35=j|34=41|49=hudfix2|52=20180426-15:40:33.775|56=XBRV|45=38|58=Unsupported Message Type|372=j|380=3|10=207|
FIX.4.4:hudfix2->XBRV
8=FIX.4.4|9=101|35=j|34=42|49=hudfix2|52=20180426-15:40:35.175|56=XBRV|45=39|58=Unsupported Message Type|372=j|380=3|10=205|
FIX.4.4:hudfix2->XBRV
FIX.4.4:hudfix2->XBRV
FIX.4.4:hudfix2->XBRV
FIX.4.4:hudfix2->XBRV
FIX.4.4:hudfix2->XBRV
FIX.4.4:hudfix2->XBRV
FIX.4.4:hudfix2->XBRV
FIX.4.4:hudfix2->XBRV
8=FIX.4.4|9=66|35=A|34=1|49=hudfix2|52=20180515-09:00:28.558|56=XBRV|98=0|108=30|10=009|
FIX.4.4:hudfix2->XBRV
8=FIX.4.4|9=66|35=A|34=2|49=hudfix2|52=20180515-09:00:40.473|56=XBRV|98=0|108=30|10=000|
FIX.4.4:hudfix2->XBRV
8=FIX.4.4|9=66|35=A|34=3|49=hudfix2|52=20180515-09:00:51.473|56=XBRV|98=0|108=30|10=003|
FIX.4.4:hudfix2->XBRV
8=FIX.4.4|9=66|35=A|34=4|49=hudfix2|52=20180515-09:01:02.473|56=XBRV|98=0|108=30|10=001|
FIX.4.4:hudfix2->XBRV
8=FIX.4.4|9=66|35=A|34=5|49=hudfix2|52=20180515-09:01:13.473|56=XBRV|98=0|108=30|10=004|
FIX.4.4:hudfix2->XBRV
8=FIX.4.4|9=66|35=A|34=6|49=hudfix2|52=20180515-09:01:24.473|56=XBRV|98=0|108=30|10=007|
FIX.4.4:hudfix2->XBRV
8=FIX.4.4|9=66|35=A|34=7|49=hudfix2|52=20180515-09:01:27.027|56=XBRV|98=0|108=30|10=006|
FIX.4.4:hudfix2->XBRV
8=FIX.4.4|9=66|35=A|34=8|49=hudfix2|52=20180515-09:01:38.473|56=XBRV|98=0|108=30|10=014|
FIX.4.4:hudfix2->XBRV
8=FIX.4.4|9=66|35=A|34=9|49=hudfix2|52=20180515-09:01:49.473|56=XBRV|98=0|108=30|10=017|
FIX.4.4:hudfix2->XBRV
8=FIX.4.4|9=67|35=A|34=10|49=hudfix2|52=20180515-09:02:00.473|56=XBRV|98=0|108=30|10=046|
FIX.4.4:hudfix2->XBRV
8=FIX.4.4|9=67|35=A|34=11|49=hudfix2|52=20180515-09:02:11.474|56=XBRV|98=0|108=30|10=050|
FIX.4.4:hudfix2->XBRV
8=FIX.4.4|9=67|35=A|34=12|49=hudfix2|52=20180515-09:02:12.473|56=XBRV|98=0|108=30|10=051|
FIX.4.4:hudfix2->XBRV
8=FIX.4.4|9=67|35=A|34=13|49=hudfix2|52=20180515-09:02:23.473|56=XBRV|98=0|108=30|10=054|
FIX.4.4:hudfix2->XBRV
8=FIX.4.4|9=67|35=A|34=14|49=hudfix2|52=20180515-09:02:34.473|56=XBRV|98=0|108=30|10=057|
FIX.4.4:hudfix2->XBRV
8=FIX.4.4|9=67|35=A|34=15|49=hudfix2|52=20180515-09:02:45.473|56=XBRV|98=0|108=30|10=060|
FIX.4.4:hudfix2->XBRV
8=FIX.4.4|9=67|35=A|34=16|49=hudfix2|52=20180515-09:02:56.473|56=XBRV|98=0|108=30|10=063|
FIX.4.4:hudfix2->XBRV
8=FIX.4.4|9=67|35=A|34=17|49=hudfix2|52=20180515-09:03:07.473|56=XBRV|98=0|108=30|10=061|
FIX.4.4:hudfix2->XBRV
8=FIX.4.4|9=67|35=A|34=18|49=hudfix2|52=20180515-09:03:08.474|56=XBRV|98=0|108=30|10=064|
FIX.4.4:hudfix2->XBRV
8=FIX.4.4|9=67|35=A|34=19|49=hudfix2|52=20180515-09:03:20.473|56=XBRV|98=0|108=30|10=058|
FIX.4.4:hudfix2->XBRV
8=FIX.4.4|9=67|35=A|34=20|49=hudfix2|52=20180515-09:03:31.474|56=XBRV|98=0|108=30|10=053|
FIX.4.4:hudfix2->XBRV
8=FIX.4.4|9=67|35=A|34=21|49=hudfix2|52=20180515-09:03:43.473|56=XBRV|98=0|108=30|10=056|
FIX.4.4:hudfix2->XBRV
8=FIX.4.4|9=67|35=A|34=22|49=hudfix2|52=20180515-09:03:54.474|56=XBRV|98=0|108=30|10=060|
FIX.4.4:hudfix2->XBRV
8=FIX.4.4|9=67|35=A|34=23|49=hudfix2|52=20180515-09:04:06.473|56=XBRV|98=0|108=30|10=058|
FIX.4.4:hudfix2->XBRV
8=FIX.4.4|9=67|35=A|34=24|49=hudfix2|52=20180515-09:04:07.473|56=XBRV|98=0|108=30|10=060|
FIX.4.4:hudfix2->XBRV
8=FIX.4.4|9=67|35=A|34=25|49=hudfix2|52=20180515-09:04:18.473|56=XBRV|98=0|108=30|10=063|
FIX.4.4:hudfix2->XBRV
8=FIX.4.4|9=67|35=A|34=26|49=hudfix2|52=20180515-09:04:29.473|56=XBRV|98=0|108=30|10=066|
FIX.4.4:hudfix2->XBRV
8=FIX.4.4|9=67|35=A|34=27|49=hudfix2|52=20180515-09:04:40.473|56=XBRV|98=0|108=30|10=060|
FIX.4.4:hudfix2->XBRV
8=FIX.4.4|9=67|35=A|34=28|49=hudfix2|52=20180515-09:04:51.474|56=XBRV|98=0|108=30|10=064|
FIX.4.4:hudfix2->XBRV
8=FIX.4.4|9=67|35=A|34=29|49=hudfix2|52=20180515-09:05:02.473|56=XBRV|98=0|108=30|10=061|
FIX.4.4:hudfix2->XBRV
8=FIX.4.4|9=67|35=A|34=30|49=hudfix2|52=20180515-09:05:03.473|56=XBRV|98=0|108=30|10=054|
FIX.4.4:hudfix2->XBRV
FIX.4.4:hudfix2->XBRV
8=FIX.4.4|9=67|35=A|34=31|49=hudfix2|52=20180515-09:44:52.729|56=XBRV|98=0|108=30|10=066|
FIX.4.4:hudfix2->XBRV
8=FIX.4.4|9=67|35=A|34=32|49=hudfix2|52=20180515-09:45:04.447|56=XBRV|98=0|108=30|10=062|
FIX.4.4:hudfix2->XBRV
8=FIX.4.4|9=67|35=A|34=33|49=hudfix2|52=20180515-09:45:15.447|56=XBRV|98=0|108=30|10=065|
FIX.4.4:hudfix2->XBRV
8=FIX.4.4|9=67|35=A|34=34|49=hudfix2|52=20180515-09:45:26.447|56=XBRV|98=0|108=30|10=068|
FIX.4.4:hudfix2->XBRV
8=FIX.4.4|9=67|35=A|34=35|49=hudfix2|52=20180515-09:45:37.447|56=XBRV|98=0|108=30|10=071|
FIX.4.4:hudfix2->XBRV
8=FIX.4.4|9=67|35=A|34=36|49=hudfix2|52=20180515-09:45:38.997|56=XBRV|98=0|108=30|10=083|
FIX.4.4:hudfix2->XBRV
8=FIX.4.4|9=67|35=A|34=37|49=hudfix2|52=20180515-09:45:50.447|56=XBRV|98=0|108=30|10=068|
FIX.4.4:hudfix2->XBRV
8=FIX.4.4|9=67|35=A|34=38|49=hudfix2|52=20180515-09:46:01.448|56=XBRV|98=0|108=30|10=067|
FIX.4.4:hudfix2->XBRV
8=FIX.4.4|9=67|35=A|34=39|49=hudfix2|52=20180515-09:46:13.448|56=XBRV|98=0|108=30|10=071|
FIX.4.4:hudfix2->XBRV
8=FIX.4.4|9=67|35=A|34=40|49=hudfix2|52=20180515-09:46:25.447|56=XBRV|98=0|108=30|10=065|
FIX.4.4:hudfix2->XBRV
8=FIX.4.4|9=67|35=A|34=41|49=hudfix2|52=20180515-09:46:26.447|56=XBRV|98=0|108=30|10=067|
FIX.4.4:hudfix2->XBRV
8=FIX.4.4|9=67|35=A|34=42|49=hudfix2|52=20180515-09:46:37.447|56=XBRV|98=0|108=30|10=070|
FIX.4.4:hudfix2->XBRV
8=FIX.4.4|9=67|35=A|34=43|49=hudfix2|52=20180515-09:46:48.447|56=XBRV|98=0|108=30|10=073|
FIX.4.4:hudfix2->XBRV
8=FIX.4.4|9=67|35=A|34=44|49=hudfix2|52=20180515-09:46:59.447|56=XBRV|98=0|108=30|10=076|
FIX.4.4:hudfix2->XBRV
FIX.4.4:hudfix2->XBRV
8=FIX.4.4|9=67|35=A|34=45|49=hudfix2|52=20180515-09:47:24.363|56=XBRV|98=0|108=30|10=067|
FIX.4.4:hudfix2->XBRV
8=FIX.4.4|9=67|35=A|34=46|49=hudfix2|52=20180515-09:47:36.348|56=XBRV|98=0|108=30|10=074|
FIX.4.4:hudfix2->XBRV
8=FIX.4.4|9=67|35=A|34=47|49=hudfix2|52=20180515-09:47:47.349|56=XBRV|98=0|108=30|10=078|
FIX.4.4:hudfix2->XBRV
8=FIX.4.4|9=67|35=A|34=48|49=hudfix2|52=20180515-09:47:59.352|56=XBRV|98=0|108=30|10=076|
FIX.4.4:hudfix2->XBRV
8=FIX.4.4|9=67|35=A|34=49|49=hudfix2|52=20180515-09:48:11.348|56=XBRV|98=0|108=30|10=071|
FIX.4.4:hudfix2->XBRV
8=FIX.4.4|9=67|35=A|34=50|49=hudfix2|52=20180515-09:48:12.517|56=XBRV|98=0|108=30|10=062|
FIX.4.4:hudfix2->XBRV
8=FIX.4.4|9=67|35=A|34=51|49=hudfix2|52=20180515-09:48:24.352|56=XBRV|98=0|108=30|10=063|
FIX.4.4:hudfix2->XBRV
8=FIX.4.4|9=67|35=A|34=52|49=hudfix2|52=20180515-09:48:36.349|56=XBRV|98=0|108=30|10=073|
FIX.4.4:hudfix2->XBRV
8=FIX.4.4|9=67|35=A|34=53|49=hudfix2|52=20180515-09:48:48.349|56=XBRV|98=0|108=30|10=077|
FIX.4.4:hudfix2->XBRV
FIX.4.4:hudfix2->XBRV
8=FIX.4.4|9=67|35=A|34=54|49=hudfix2|52=20180515-09:49:07.915|56=XBRV|98=0|108=30|10=073|
FIX.4.4:hudfix2->XBRV
8=FIX.4.4|9=67|35=A|34=55|49=hudfix2|52=20180515-09:49:19.901|56=XBRV|98=0|108=30|10=072|
FIX.4.4:hudfix2->XBRV
8=FIX.4.4|9=67|35=A|34=56|49=hudfix2|52=20180515-09:49:30.901|56=XBRV|98=0|108=30|10=066|
FIX.4.4:hudfix2->XBRV
8=FIX.4.4|9=67|35=A|34=57|49=hudfix2|52=20180515-09:49:41.901|56=XBRV|98=0|108=30|10=069|
FIX.4.4:hudfix2->XBRV
8=FIX.4.4|9=67|35=A|34=58|49=hudfix2|52=20180515-09:49:52.901|56=XBRV|98=0|108=30|10=072|
FIX.4.4:hudfix2->XBRV
8=FIX.4.4|9=67|35=A|34=59|49=hudfix2|52=20180515-09:49:53.902|56=XBRV|98=0|108=30|10=075|
FIX.4.4:hudfix2->XBRV
8=FIX.4.4|9=67|35=A|34=60|49=hudfix2|52=20180515-09:50:05.906|56=XBRV|98=0|108=30|10=060|
FIX.4.4:hudfix2->XBRV
8=FIX.4.4|9=67|35=A|34=61|49=hudfix2|52=20180515-09:50:17.901|56=XBRV|98=0|108=30|10=059|
FIX.4.4:hudfix2->XBRV
8=FIX.4.4|9=67|35=A|34=62|49=hudfix2|52=20180515-09:50:28.901|56=XBRV|98=0|108=30|10=062|
FIX.4.4:hudfix2->XBRV
8=FIX.4.4|9=67|35=A|34=63|49=hudfix2|52=20180515-09:50:39.901|56=XBRV|98=0|108=30|10=065|
FIX.4.4:hudfix2->XBRV
8=FIX.4.4|9=67|35=A|34=64|49=hudfix2|52=20180515-09:50:50.901|56=XBRV|98=0|108=30|10=059|
FIX.4.4:hudfix2->XBRV
8=FIX.4.4|9=67|35=A|34=65|49=hudfix2|52=20180515-09:50:51.901|56=XBRV|98=0|108=30|10=061|
FIX.4.4:hudfix2->XBRV
8=FIX.4.4|9=67|35=A|34=66|49=hudfix2|52=20180515-09:51:02.901|56=XBRV|98=0|108=30|10=059|
FIX.4.4:hudfix2->XBRV
8=FIX.4.4|9=67|35=A|34=67|49=hudfix2|52=20180515-09:51:13.901|56=XBRV|98=0|108=30|10=062|
FIX.4.4:hudfix2->XBRV
8=FIX.4.4|9=67|35=A|34=68|49=hudfix2|52=20180515-09:51:24.901|56=XBRV|98=0|108=30|10=065|
FIX.4.4:hudfix2->XBRV
8=FIX.4.4|9=67|35=A|34=69|49=hudfix2|52=20180515-09:51:35.901|56=XBRV|98=0|108=30|10=068|
FIX.4.4:hudfix2->XBRV
8=FIX.4.4|9=67|35=A|34=70|49=hudfix2|52=20180515-09:51:36.964|56=XBRV|98=0|108=30|10=070|
FIX.4.4:hudfix2->XBRV
8=FIX.4.4|9=67|35=A|34=71|49=hudfix2|52=20180515-09:51:48.901|56=XBRV|98=0|108=30|10=065|
FIX.4.4:hudfix2->XBRV
8=FIX.4.4|9=67|35=A|34=72|49=hudfix2|52=20180515-09:51:59.901|56=XBRV|98=0|108=30|10=068|
FIX.4.4:hudfix2->XBRV
8=FIX.4.4|9=67|35=A|34=73|49=hudfix2|52=20180515-09:52:10.901|56=XBRV|98=0|108=30|10=057|
FIX.4.4:hudfix2->XBRV
8=FIX.4.4|9=67|35=A|34=74|49=hudfix2|52=20180515-09:52:21.901|56=XBRV|98=0|108=30|10=060|
FIX.4.4:hudfix2->XBRV
8=FIX.4.4|9=67|35=A|34=75|49=hudfix2|52=20180515-09:52:22.902|56=XBRV|98=0|108=30|10=063|
FIX.4.4:hudfix2->XBRV
8=FIX.4.4|9=67|35=A|34=76|49=hudfix2|52=20180515-09:52:34.901|56=XBRV|98=0|108=30|10=066|
FIX.4.4:hudfix2->XBRV
8=FIX.4.4|9=67|35=A|34=77|49=hudfix2|52=20180515-09:52:45.902|56=XBRV|98=0|108=30|10=070|
FIX.4.4:hudfix2->XBRV
8=FIX.4.4|9=67|35=A|34=78|49=hudfix2|52=20180515-09:52:56.937|56=XBRV|98=0|108=30|10=081|
FIX.4.4:hudfix2->XBRV
8=FIX.4.4|9=67|35=A|34=79|49=hudfix2|52=20180515-09:53:08.901|56=XBRV|98=0|108=30|10=071|
FIX.4.4:hudfix2->XBRV
FIX.4.4:hudfix2->XBRV
8=FIX.4.4|9=67|35=A|34=80|49=hudfix2|52=20180515-09:53:21.643|56=XBRV|98=0|108=30|10=061|
FIX.4.4:hudfix2->XBRV
8=FIX.4.4|9=67|35=A|34=81|49=hudfix2|52=20180515-09:53:33.628|56=XBRV|98=0|108=30|10=068|
FIX.4.4:hudfix2->XBRV
FIX.4.4:hudfix2->XBRV
8=FIX.4.4|9=67|35=A|34=82|49=hudfix2|52=20180515-09:53:51.482|56=XBRV|98=0|108=30|10=067|
FIX.4.4:hudfix2->XBRV
8=FIX.4.4|9=67|35=A|34=83|49=hudfix2|52=20180515-09:54:03.466|56=XBRV|98=0|108=30|10=068|
FIX.4.4:hudfix2->XBRV
8=FIX.4.4|9=67|35=A|34=84|49=hudfix2|52=20180515-09:54:14.466|56=XBRV|98=0|108=30|10=071|
FIX.4.4:hudfix2->XBRV
8=FIX.4.4|9=67|35=A|34=85|49=hudfix2|52=20180515-09:54:25.466|56=XBRV|98=0|108=30|10=074|
FIX.4.4:hudfix2->XBRV
8=FIX.4.4|9=67|35=A|34=86|49=hudfix2|52=20180515-09:54:36.466|56=XBRV|98=0|108=30|10=077|
FIX.4.4:hudfix2->XBRV
8=FIX.4.4|9=67|35=A|34=87|49=hudfix2|52=20180515-09:54:40.832|56=XBRV|98=0|108=30|10=070|
FIX.4.4:hudfix2->XBRV
8=FIX.4.4|9=67|35=A|34=88|49=hudfix2|52=20180515-09:54:52.466|56=XBRV|98=0|108=30|10=077|
FIX.4.4:hudfix2->XBRV
8=FIX.4.4|9=67|35=A|34=89|49=hudfix2|52=20180515-09:55:03.467|56=XBRV|98=0|108=30|10=076|
FIX.4.4:hudfix2->XBRV
8=FIX.4.4|9=67|35=A|34=90|49=hudfix2|52=20180515-09:55:15.466|56=XBRV|98=0|108=30|10=070|
FIX.4.4:hudfix2->XBRV
8=FIX.4.4|9=67|35=A|34=91|49=hudfix2|52=20180515-09:55:26.466|56=XBRV|98=0|108=30|10=073|
FIX.4.4:hudfix2->XBRV
8=FIX.4.4|9=67|35=A|34=92|49=hudfix2|52=20180515-09:55:27.632|56=XBRV|98=0|108=30|10=070|
FIX.4.4:hudfix2->XBRV
8=FIX.4.4|9=67|35=A|34=93|49=hudfix2|52=20180515-09:55:39.466|56=XBRV|98=0|108=30|10=079|
FIX.4.4:hudfix2->XBRV
8=FIX.4.4|9=67|35=A|34=94|49=hudfix2|52=20180515-09:55:50.466|56=XBRV|98=0|108=30|10=073|
FIX.4.4:hudfix2->XBRV
8=FIX.4.4|9=67|35=A|34=95|49=hudfix2|52=20180515-09:56:01.466|56=XBRV|98=0|108=30|10=071|
FIX.4.4:hudfix2->XBRV
8=FIX.4.4|9=67|35=A|34=96|49=hudfix2|52=20180515-09:56:12.466|56=XBRV|98=0|108=30|10=074|
FIX.4.4:hudfix2->XBRV
8=FIX.4.4|9=67|35=A|34=97|49=hudfix2|52=20180515-09:56:13.466|56=XBRV|98=0|108=30|10=076|
FIX.4.4:hudfix2->XBRV
8=FIX.4.4|9=67|35=A|34=98|49=hudfix2|52=20180515-09:56:24.467|56=XBRV|98=0|108=30|10=080|
FIX.4.4:hudfix2->XBRV
FIX.4.4:hudfix2->XBRV
8=FIX.4.4|9=66|35=A|34=1|49=hudfix2|52=20180711-11:44:41.755|56=XBRV|98=0|108=30|10=002|
FIX.4.4:hudfix2->XBRV
8=FIX.4.4|9=66|35=A|34=1|49=XBRV|52=20180711-11:44:11.118|56=hudfix2|98=0|108=30|10=248|
FIX.4.4:hudfix2->XBRV
FIX.4.4:hudfix2->XBRV
8=FIX.4.4|9=84|35=x|34=2|49=hudfix2|52=20180711-11:44:43.356|56=XBRV|320=2018.07.11.11.44.43|559=4|10=179|
FIX.4.4:hudfix2->XBRV
8=FIX.4.4|9=120|35=3|34=3|49=hudfix2|52=20180711-11:44:43.763|56=XBRV|45=2|58=Out of order repeating group members|371=574|372=y|373=15|10=054|
FIX.4.4:hudfix2->XBRV
8=FIX.4.4|9=120|35=3|34=4|49=hudfix2|52=20180711-11:44:44.289|56=XBRV|45=3|58=Out of order repeating group members|371=574|372=y|373=15|10=060|
FIX.4.4:hudfix2->XBRV
8=FIX.4.4|9=120|35=3|34=5|49=hudfix2|52=20180711-11:44:44.292|56=XBRV|45=4|58=Out of order repeating group members|371=574|372=y|373=15|10=056|
FIX.4.4:hudfix2->XBRV
8=FIX.4.4|9=54|35=0|34=5|49=XBRV|52=20180711-11:44:42.318|56=hudfix2|10=213|
FIX.4.4:hudfix2->XBRV
8=FIX.4.4|9=54|35=0|34=6|49=hudfix2|52=20180711-11:45:14.706|56=XBRV|10=215|
FIX.4.4:hudfix2->XBRV
8=FIX.4.4|9=54|35=0|34=6|49=XBRV|52=20180711-11:45:12.738|56=hudfix2|10=218|
FIX.4.4:hudfix2->XBRV
8=FIX.4.4|9=54|35=0|34=7|49=hudfix2|52=20180711-11:45:44.706|56=XBRV|10=219|
FIX.4.4:hudfix2->XBRV
8=FIX.4.4|9=54|35=0|34=8|49=hudfix2|52=20180711-11:46:14.706|56=XBRV|10=218|
FIX.4.4:hudfix2->XBRV
8=FIX.4.4|9=54|35=0|34=7|49=XBRV|52=20180711-11:45:43.158|56=hudfix2|10=219|
FIX.4.4:hudfix2->XBRV
8=FIX.4.4|9=54|35=0|34=9|49=hudfix2|52=20180711-11:46:44.706|56=XBRV|10=222|
FIX.4.4:hudfix2->XBRV
8=FIX.4.4|9=54|35=0|34=8|49=XBRV|52=20180711-11:46:13.578|56=hudfix2|10=224|
FIX.4.4:hudfix2->XBRV
8=FIX.4.4|9=67|35=A|34=10|49=hudfix2|52=20180711-11:46:52.706|56=XBRV|98=0|108=30|10=051|
FIX.4.4:hudfix2->XBRV
8=FIX.4.4|9=67|35=A|34=11|49=hudfix2|52=20180711-11:47:03.622|56=XBRV|98=0|108=30|10=046|
FIX.4.4:hudfix2->XBRV
8=FIX.4.4|9=67|35=A|34=12|49=hudfix2|52=20180711-11:47:13.626|56=XBRV|98=0|108=30|10=052|
FIX.4.4:hudfix2->XBRV
8=FIX.4.4|9=67|35=A|34=13|49=hudfix2|52=20180711-11:47:25.634|56=XBRV|98=0|108=30|10=055|
FIX.4.4:hudfix2->XBRV
8=FIX.4.4|9=67|35=A|34=14|49=hudfix2|52=20180711-11:47:35.637|56=XBRV|98=0|108=30|10=060|
FIX.4.4:hudfix2->XBRV
8=FIX.4.4|9=67|35=A|34=15|49=hudfix2|52=20180711-11:47:49.643|56=XBRV|98=0|108=30|10=063|
FIX.4.4:hudfix2->XBRV
8=FIX.4.4|9=67|35=A|34=16|49=hudfix2|52=20180711-11:48:00.706|56=XBRV|98=0|108=30|10=052|
FIX.4.4:hudfix2->XBRV
8=FIX.4.4|9=67|35=A|34=10|49=XBRV|52=20180711-11:47:29.644|56=hudfix2|98=0|108=30|10=057|
FIX.4.4:hudfix2->XBRV
8=FIX.4.4|9=64|35=2|34=17|49=hudfix2|52=20180711-11:48:01.498|56=XBRV|7=9|16=0|10=150|
FIX.4.4:hudfix2->XBRV
FIX.4.4:hudfix2->XBRV
8=FIX.4.4|9=85|35=x|34=18|49=hudfix2|52=20180711-11:48:01.503|56=XBRV|320=2018.07.11.11.48.01|559=4|10=225|
FIX.4.4:hudfix2->XBRV
8=FIX.4.4|9=65|35=2|34=11|49=XBRV|52=20180711-11:47:29.644|56=hudfix2|7=10|16=0|10=187|
FIX.4.4:hudfix2->XBRV
8=FIX.4.4|9=116|35=x|34=18|43=Y|49=hudfix2|52=20180711-11:48:02.053|56=XBRV|122=20180711-11:48:01.503|320=2018.07.11.11.48.01|559=4|10=008|
FIX.4.4:hudfix2->XBRV
8=FIX.4.4|9=98|35=4|34=10|43=Y|49=hudfix2|52=20180711-11:48:02.099|56=XBRV|122=20180711-11:48:02.099|36=18|123=Y|10=086|
FIX.4.4:hudfix2->XBRV
8=FIX.4.4|9=71|35=4|34=9|43=Y|49=XBRV|52=20180711-11:47:30.236|56=hudfix2|36=12|123=Y|10=016|
FIX.4.4:hudfix2->XBRV
8=FIX.4.4|9=65|35=2|34=12|49=XBRV|52=20180711-11:47:30.236|56=hudfix2|7=10|16=0|10=177|
FIX.4.4:hudfix2->XBRV
8=FIX.4.4|9=116|35=x|34=18|43=Y|49=hudfix2|52=20180711-11:48:02.288|56=XBRV|122=20180711-11:48:01.503|320=2018.07.11.11.48.01|559=4|10=018|
FIX.4.4:hudfix2->XBRV
8=FIX.4.4|9=98|35=4|34=10|43=Y|49=hudfix2|52=20180711-11:48:02.290|56=XBRV|122=20180711-11:48:02.289|36=18|123=Y|10=080|
FIX.4.4:hudfix2->XBRV
8=FIX.4.4|9=65|35=2|34=13|49=XBRV|52=20180711-11:47:30.236|56=hudfix2|7=10|16=0|10=178|
FIX.4.4:hudfix2->XBRV
8=FIX.4.4|9=116|35=x|34=18|43=Y|49=hudfix2|52=20180711-11:48:02.295|56=XBRV|122=20180711-11:48:01.503|320=2018.07.11.11.48.01|559=4|10=016|
FIX.4.4:hudfix2->XBRV
8=FIX.4.4|9=98|35=4|34=10|43=Y|49=hudfix2|52=20180711-11:48:02.297|56=XBRV|122=20180711-11:48:02.297|36=18|123=Y|10=086|
FIX.4.4:hudfix2->XBRV
8=FIX.4.4|9=122|35=3|34=19|49=hudfix2|52=20180711-11:48:02.904|56=XBRV|45=14|58=Out of order repeating group members|371=574|372=y|373=15|10=158|
FIX.4.4:hudfix2->XBRV
8=FIX.4.4|9=122|35=3|34=20|49=hudfix2|52=20180711-11:48:03.514|56=XBRV|45=15|58=Out of order repeating group members|371=574|372=y|373=15|10=149|
FIX.4.4:hudfix2->XBRV
8=FIX.4.4|9=122|35=3|34=21|49=hudfix2|52=20180711-11:48:03.517|56=XBRV|45=16|58=Out of order repeating group members|371=574|372=y|373=15|10=154|
FIX.4.4:hudfix2->XBRV
8=FIX.4.4|9=55|35=0|34=17|49=XBRV|52=20180711-11:48:01.062|56=hudfix2|10=004|
FIX.4.4:hudfix2->XBRV
8=FIX.4.4|9=55|35=0|34=22|49=hudfix2|52=20180711-11:48:33.706|56=XBRV|10=010|
FIX.4.4:hudfix2->XBRV
FIX.4.4:hudfix2->XBRV
8=FIX.4.4|9=67|35=A|34=23|49=hudfix2|52=20180711-11:49:40.868|56=XBRV|98=0|108=30|10=064|
FIX.4.4:hudfix2->XBRV
8=FIX.4.4|9=67|35=A|34=18|49=XBRV|52=20180711-11:49:11.683|56=hudfix2|98=0|108=30|10=061|
FIX.4.4:hudfix2->XBRV
FIX.4.4:hudfix2->XBRV
8=FIX.4.4|9=85|35=x|34=24|49=hudfix2|52=20180711-11:49:44.127|56=XBRV|320=2018.07.11.11.49.44|559=4|10=240|
FIX.4.4:hudfix2->XBRV
8=FIX.4.4|9=122|35=3|34=25|49=hudfix2|52=20180711-11:49:44.840|56=XBRV|45=19|58=Out of order repeating group members|371=574|372=y|373=15|10=166|
FIX.4.4:hudfix2->XBRV
8=FIX.4.4|9=122|35=3|34=26|49=hudfix2|52=20180711-11:49:47.700|56=XBRV|45=20|58=Out of order repeating group members|371=574|372=y|373=15|10=157|
FIX.4.4:hudfix2->XBRV
8=FIX.4.4|9=122|35=3|34=27|49=hudfix2|52=20180711-11:49:47.703|56=XBRV|45=21|58=Out of order repeating group members|371=574|372=y|373=15|10=162|
FIX.4.4:hudfix2->XBRV
8=FIX.4.4|9=55|35=0|34=22|49=XBRV|52=20180711-11:49:43.476|56=hudfix2|10=016|
FIX.4.4:hudfix2->XBRV
8=FIX.4.4|9=55|35=0|34=28|49=hudfix2|52=20180711-11:50:17.812|56=XBRV|10=009|
FIX.4.4:hudfix2->XBRV
8=FIX.4.4|9=55|35=0|34=23|49=XBRV|52=20180711-11:50:13.896|56=hudfix2|10=012|
FIX.4.4:hudfix2->XBRV
8=FIX.4.4|9=55|35=0|34=29|49=hudfix2|52=20180711-11:50:47.812|56=XBRV|10=013|
FIX.4.4:hudfix2->XBRV
8=FIX.4.4|9=55|35=0|34=24|49=XBRV|52=20180711-11:50:44.316|56=hudfix2|10=004|
FIX.4.4:hudfix2->XBRV
8=FIX.4.4|9=55|35=0|34=30|49=hudfix2|52=20180711-11:51:17.812|56=XBRV|10=003|
FIX.4.4:hudfix2->XBRV
8=FIX.4.4|9=55|35=0|34=25|49=XBRV|52=20180711-11:51:14.736|56=hudfix2|10=009|
FIX.4.4:hudfix2->XBRV
8=FIX.4.4|9=55|35=0|34=31|49=hudfix2|52=20180711-11:51:47.812|56=XBRV|10=007|
FIX.4.4:hudfix2->XBRV
8=FIX.4.4|9=55|35=0|34=26|49=XBRV|52=20180711-11:51:45.156|56=hudfix2|10=010|
FIX.4.4:hudfix2->XBRV
8=FIX.4.4|9=55|35=0|34=32|49=hudfix2|52=20180711-11:52:17.812|56=XBRV|10=006|
FIX.4.4:hudfix2->XBRV
8=FIX.4.4|9=55|35=0|34=33|49=hudfix2|52=20180711-11:52:47.812|56=XBRV|10=010|
FIX.4.4:hudfix2->XBRV
8=FIX.4.4|9=55|35=0|34=27|49=XBRV|52=20180711-11:52:15.576|56=hudfix2|10=015|
FIX.4.4:hudfix2->XBRV
8=FIX.4.4|9=55|35=0|34=34|49=hudfix2|52=20180711-11:53:17.811|56=XBRV|10=008|
FIX.4.4:hudfix2->XBRV
8=FIX.4.4|9=55|35=0|34=28|49=XBRV|52=20180711-11:52:45.996|56=hudfix2|10=025|
FIX.4.4:hudfix2->XBRV
8=FIX.4.4|9=55|35=0|34=35|49=hudfix2|52=20180711-11:53:47.812|56=XBRV|10=013|
FIX.4.4:hudfix2->XBRV
8=FIX.4.4|9=55|35=0|34=29|49=XBRV|52=20180711-11:53:16.417|56=hudfix2|10=013|
FIX.4.4:hudfix2->XBRV
8=FIX.4.4|9=55|35=0|34=36|49=hudfix2|52=20180711-11:54:17.812|56=XBRV|10=012|
FIX.4.4:hudfix2->XBRV
8=FIX.4.4|9=55|35=0|34=30|49=XBRV|52=20180711-11:53:46.837|56=hudfix2|10=014|
FIX.4.4:hudfix2->XBRV
8=FIX.4.4|9=55|35=0|34=37|49=hudfix2|52=20180711-11:54:47.812|56=XBRV|10=016|
FIX.4.4:hudfix2->XBRV
8=FIX.4.4|9=55|35=0|34=31|49=XBRV|52=20180711-11:54:17.257|56=hudfix2|10=010|
FIX.4.4:hudfix2->XBRV
8=FIX.4.4|9=55|35=0|34=38|49=hudfix2|52=20180711-11:55:17.812|56=XBRV|10=015|
FIX.4.4:hudfix2->XBRV
8=FIX.4.4|9=55|35=0|34=32|49=XBRV|52=20180711-11:54:47.677|56=hudfix2|10=020|
FIX.4.4:hudfix2->XBRV
8=FIX.4.4|9=55|35=0|34=39|49=hudfix2|52=20180711-11:55:47.812|56=XBRV|10=019|
FIX.4.4:hudfix2->XBRV
8=FIX.4.4|9=55|35=0|34=33|49=XBRV|52=20180711-11:55:18.097|56=hudfix2|10=016|
FIX.4.4:hudfix2->XBRV
8=FIX.4.4|9=55|35=0|34=40|49=hudfix2|52=20180711-11:56:17.812|56=XBRV|10=009|
FIX.4.4:hudfix2->XBRV
8=FIX.4.4|9=55|35=0|34=34|49=XBRV|52=20180711-11:55:48.517|56=hudfix2|10=017|
FIX.4.4:hudfix2->XBRV
8=FIX.4.4|9=55|35=0|34=41|49=hudfix2|52=20180711-11:56:47.812|56=XBRV|10=013|
FIX.4.4:hudfix2->XBRV
8=FIX.4.4|9=55|35=0|34=35|49=XBRV|52=20180711-11:56:18.937|56=hudfix2|10=022|
FIX.4.4:hudfix2->XBRV
8=FIX.4.4|9=55|35=0|34=42|49=hudfix2|52=20180711-11:57:17.812|56=XBRV|10=012|
FIX.4.4:hudfix2->XBRV
8=FIX.4.4|9=55|35=0|34=36|49=XBRV|52=20180711-11:56:49.357|56=hudfix2|10=023|
FIX.4.4:hudfix2->XBRV
8=FIX.4.4|9=55|35=0|34=43|49=hudfix2|52=20180711-11:57:47.812|56=XBRV|10=016|
FIX.4.4:hudfix2->XBRV
8=FIX.4.4|9=55|35=0|34=37|49=XBRV|52=20180711-11:57:19.777|56=hudfix2|10=028|
FIX.4.4:hudfix2->XBRV
8=FIX.4.4|9=55|35=0|34=44|49=hudfix2|52=20180711-11:58:17.812|56=XBRV|10=015|
FIX.4.4:hudfix2->XBRV
8=FIX.4.4|9=55|35=0|34=38|49=XBRV|52=20180711-11:57:50.197|56=hudfix2|10=020|
FIX.4.4:hudfix2->XBRV
8=FIX.4.4|9=55|35=0|34=45|49=hudfix2|52=20180711-11:58:47.812|56=XBRV|10=019|
FIX.4.4:hudfix2->XBRV
8=FIX.4.4|9=55|35=0|34=39|49=XBRV|52=20180711-11:58:20.617|56=hudfix2|10=016|
FIX.4.4:hudfix2->XBRV
8=FIX.4.4|9=55|35=0|34=46|49=hudfix2|52=20180711-11:59:17.812|56=XBRV|10=018|
FIX.4.4:hudfix2->XBRV
8=FIX.4.4|9=55|35=0|34=40|49=XBRV|52=20180711-11:58:51.037|56=hudfix2|10=008|
FIX.4.4:hudfix2->XBRV
8=FIX.4.4|9=55|35=0|34=47|49=hudfix2|52=20180711-11:59:47.812|56=XBRV|10=022|
FIX.4.4:hudfix2->XBRV
8=FIX.4.4|9=55|35=0|34=41|49=XBRV|52=20180711-11:59:21.457|56=hudfix2|10=013|
FIX.4.4:hudfix2->XBRV
8=FIX.4.4|9=55|35=0|34=48|49=hudfix2|52=20180711-12:00:17.813|56=XBRV|10=008|
FIX.4.4:hudfix2->XBRV
8=FIX.4.4|9=55|35=0|34=42|49=XBRV|52=20180711-11:59:51.877|56=hudfix2|10=023|
FIX.4.4:hudfix2->XBRV
8=FIX.4.4|9=55|35=0|34=49|49=hudfix2|52=20180711-12:00:47.812|56=XBRV|10=011|
FIX.4.4:hudfix2->XBRV
8=FIX.4.4|9=55|35=0|34=43|49=XBRV|52=20180711-12:00:22.297|56=hudfix2|10=005|
FIX.4.4:hudfix2->XBRV
8=FIX.4.4|9=55|35=0|34=50|49=hudfix2|52=20180711-12:01:17.812|56=XBRV|10=001|
FIX.4.4:hudfix2->XBRV
8=FIX.4.4|9=55|35=0|34=44|49=XBRV|52=20180711-12:00:52.717|56=hudfix2|10=006|
FIX.4.4:hudfix2->XBRV
8=FIX.4.4|9=55|35=0|34=51|49=hudfix2|52=20180711-12:01:47.811|56=XBRV|10=004|
FIX.4.4:hudfix2->XBRV
8=FIX.4.4|9=55|35=0|34=45|49=XBRV|52=20180711-12:01:23.137|56=hudfix2|10=002|
FIX.4.4:hudfix2->XBRV
8=FIX.4.4|9=55|35=0|34=52|49=hudfix2|52=20180711-12:02:17.811|56=XBRV|10=003|
FIX.4.4:hudfix2->XBRV
8=FIX.4.4|9=55|35=0|34=46|49=XBRV|52=20180711-12:01:53.557|56=hudfix2|10=012|
FIX.4.4:hudfix2->XBRV
8=FIX.4.4|9=55|35=0|34=53|49=hudfix2|52=20180711-12:02:47.812|56=XBRV|10=008|
FIX.4.4:hudfix2->XBRV
8=FIX.4.4|9=55|35=0|34=47|49=XBRV|52=20180711-12:02:23.977|56=hudfix2|10=017|
FIX.4.4:hudfix2->XBRV
8=FIX.4.4|9=55|35=0|34=54|49=hudfix2|52=20180711-12:03:17.811|56=XBRV|10=006|
FIX.4.4:hudfix2->XBRV
8=FIX.4.4|9=55|35=0|34=48|49=XBRV|52=20180711-12:02:54.398|56=hudfix2|10=019|
FIX.4.4:hudfix2->XBRV
8=FIX.4.4|9=55|35=0|34=55|49=hudfix2|52=20180711-12:03:47.812|56=XBRV|10=011|
FIX.4.4:hudfix2->XBRV
8=FIX.4.4|9=55|35=0|34=49|49=XBRV|52=20180711-12:03:24.818|56=hudfix2|10=015|
FIX.4.4:hudfix2->XBRV
8=FIX.4.4|9=55|35=0|34=56|49=hudfix2|52=20180711-12:04:17.811|56=XBRV|10=009|
FIX.4.4:hudfix2->XBRV
8=FIX.4.4|9=55|35=0|34=50|49=XBRV|52=20180711-12:03:55.238|56=hudfix2|10=007|
FIX.4.4:hudfix2->XBRV
8=FIX.4.4|9=55|35=0|34=57|49=hudfix2|52=20180711-12:04:47.811|56=XBRV|10=013|
FIX.4.4:hudfix2->XBRV
8=FIX.4.4|9=55|35=0|34=51|49=XBRV|52=20180711-12:04:25.658|56=hudfix2|10=012|
FIX.4.4:hudfix2->XBRV
8=FIX.4.4|9=55|35=0|34=58|49=hudfix2|52=20180711-12:05:17.812|56=XBRV|10=013|
FIX.4.4:hudfix2->XBRV
8=FIX.4.4|9=55|35=0|34=52|49=XBRV|52=20180711-12:04:56.078|56=hudfix2|10=013|
FIX.4.4:hudfix2->XBRV
8=FIX.4.4|9=55|35=0|34=59|49=hudfix2|52=20180711-12:05:47.812|56=XBRV|10=017|
FIX.4.4:hudfix2->XBRV
8=FIX.4.4|9=55|35=0|34=53|49=XBRV|52=20180711-12:05:26.498|56=hudfix2|10=018|
FIX.4.4:hudfix2->XBRV
8=FIX.4.4|9=55|35=0|34=60|49=hudfix2|52=20180711-12:06:17.813|56=XBRV|10=008|
FIX.4.4:hudfix2->XBRV
8=FIX.4.4|9=55|35=0|34=54|49=XBRV|52=20180711-12:05:56.918|56=hudfix2|10=019|
FIX.4.4:hudfix2->XBRV
8=FIX.4.4|9=55|35=0|34=61|49=hudfix2|52=20180711-12:06:47.812|56=XBRV|10=011|
FIX.4.4:hudfix2->XBRV
8=FIX.4.4|9=55|35=0|34=55|49=XBRV|52=20180711-12:06:27.338|56=hudfix2|10=015|
FIX.4.4:hudfix2->XBRV
8=FIX.4.4|9=55|35=0|34=62|49=hudfix2|52=20180711-12:07:17.812|56=XBRV|10=010|
FIX.4.4:hudfix2->XBRV
8=FIX.4.4|9=55|35=0|34=56|49=XBRV|52=20180711-12:06:57.758|56=hudfix2|10=025|
FIX.4.4:hudfix2->XBRV
8=FIX.4.4|9=67|35=A|34=63|49=hudfix2|52=20180711-12:07:47.552|56=XBRV|98=0|108=30|10=060|
FIX.4.4:hudfix2->XBRV
8=FIX.4.4|9=67|35=A|34=64|49=hudfix2|52=20180711-12:07:59.558|56=XBRV|98=0|108=30|10=070|
FIX.4.4:hudfix2->XBRV
8=FIX.4.4|9=67|35=A|34=65|49=hudfix2|52=20180711-12:08:11.553|56=XBRV|98=0|108=30|10=055|
FIX.4.4:hudfix2->XBRV
8=FIX.4.4|9=67|35=A|34=66|49=hudfix2|52=20180711-13:09:28.303|56=XBRV|98=0|108=30|10=059|
FIX.4.4:hudfix2->XBRV
8=FIX.4.4|9=67|35=A|34=67|49=hudfix2|52=20180711-13:09:39.808|56=XBRV|98=0|108=30|10=072|
FIX.4.4:hudfix2->XBRV
8=FIX.4.4|9=67|35=A|34=68|49=hudfix2|52=20180711-13:09:51.315|56=XBRV|98=0|108=30|10=060|
FIX.4.4:hudfix2->XBRV
8=FIX.4.4|9=67|35=A|34=69|49=hudfix2|52=20180711-13:10:01.318|56=XBRV|98=0|108=30|10=051|
FIX.4.4:hudfix2->XBRV
8=FIX.4.4|9=67|35=A|34=70|49=hudfix2|52=20180711-13:10:13.318|56=XBRV|98=0|108=30|10=046|
FIX.4.4:hudfix2->XBRV
8=FIX.4.4|9=67|35=A|34=71|49=hudfix2|52=20180711-13:10:23.322|56=XBRV|98=0|108=30|10=043|
FIX.4.4:hudfix2->XBRV
8=FIX.4.4|9=67|35=A|34=72|49=hudfix2|52=20180711-13:10:35.323|56=XBRV|98=0|108=30|10=048|
FIX.4.4:hudfix2->XBRV
8=FIX.4.4|9=67|35=A|34=73|49=hudfix2|52=20180711-13:10:45.325|56=XBRV|98=0|108=30|10=052|
FIX.4.4:hudfix2->XBRV
8=FIX.4.4|9=67|35=A|34=74|49=hudfix2|52=20180711-13:11:00.326|56=XBRV|98=0|108=30|10=046|
FIX.4.4:hudfix2->XBRV
8=FIX.4.4|9=67|35=A|34=75|49=hudfix2|52=20180711-13:11:11.324|56=XBRV|98=0|108=30|10=047|
FIX.4.4:hudfix2->XBRV
8=FIX.4.4|9=67|35=A|34=76|49=hudfix2|52=20180711-13:11:22.329|56=XBRV|98=0|108=30|10=055|
FIX.4.4:hudfix2->XBRV
8=FIX.4.4|9=67|35=A|34=77|49=hudfix2|52=20180711-13:11:33.809|56=XBRV|98=0|108=30|10=061|
FIX.4.4:hudfix2->XBRV
8=FIX.4.4|9=67|35=A|34=78|49=hudfix2|52=20180711-13:11:46.352|56=XBRV|98=0|108=30|10=059|
FIX.4.4:hudfix2->XBRV
8=FIX.4.4|9=67|35=A|34=79|49=hudfix2|52=20180711-13:12:00.352|56=XBRV|98=0|108=30|10=051|
FIX.4.4:hudfix2->XBRV
8=FIX.4.4|9=67|35=A|34=80|49=hudfix2|52=20180711-13:12:13.360|56=XBRV|98=0|108=30|10=046|
FIX.4.4:hudfix2->XBRV
8=FIX.4.4|9=67|35=A|34=81|49=hudfix2|52=20180711-13:12:23.365|56=XBRV|98=0|108=30|10=053|
FIX.4.4:hudfix2->XBRV
8=FIX.4.4|9=67|35=A|34=82|49=hudfix2|52=20180711-13:12:34.373|56=XBRV|98=0|108=30|10=055|
FIX.4.4:hudfix2->XBRV
8=FIX.4.4|9=67|35=A|34=83|49=hudfix2|52=20180711-13:12:45.387|56=XBRV|98=0|108=30|10=063|
FIX.4.4:hudfix2->XBRV
8=FIX.4.4|9=67|35=A|34=84|49=hudfix2|52=20180711-13:12:55.389|56=XBRV|98=0|108=30|10=067|
FIX.4.4:hudfix2->XBRV
8=FIX.4.4|9=67|35=A|34=85|49=hudfix2|52=20180711-13:13:07.425|56=XBRV|98=0|108=30|10=057|
FIX.4.4:hudfix2->XBRV
8=FIX.4.4|9=67|35=A|34=86|49=hudfix2|52=20180711-13:13:17.427|56=XBRV|98=0|108=30|10=061|
FIX.4.4:hudfix2->XBRV
8=FIX.4.4|9=67|35=A|34=87|49=hudfix2|52=20180711-13:13:28.425|56=XBRV|98=0|108=30|10=062|
FIX.4.4:hudfix2->XBRV
8=FIX.4.4|9=67|35=A|34=88|49=hudfix2|52=20180711-13:13:41.431|56=XBRV|98=0|108=30|10=055|
FIX.4.4:hudfix2->XBRV
8=FIX.4.4|9=67|35=A|34=89|49=hudfix2|52=20180711-13:13:55.439|56=XBRV|98=0|108=30|10=069|
FIX.4.4:hudfix2->XBRV
8=FIX.4.4|9=67|35=A|34=90|49=hudfix2|52=20180711-13:14:07.438|56=XBRV|98=0|108=30|10=058|
FIX.4.4:hudfix2->XBRV
8=FIX.4.4|9=67|35=A|34=91|49=hudfix2|52=20180711-13:14:17.441|56=XBRV|98=0|108=30|10=054|
FIX.4.4:hudfix2->XBRV
8=FIX.4.4|9=67|35=A|34=92|49=hudfix2|52=20180711-13:14:27.443|56=XBRV|98=0|108=30|10=058|
FIX.4.4:hudfix2->XBRV
8=FIX.4.4|9=67|35=A|34=93|49=hudfix2|52=20180711-13:14:37.444|56=XBRV|98=0|108=30|10=061|
FIX.4.4:hudfix2->XBRV
8=FIX.4.4|9=67|35=A|34=94|49=hudfix2|52=20180711-13:14:48.449|56=XBRV|98=0|108=30|10=069|
FIX.4.4:hudfix2->XBRV
8=FIX.4.4|9=67|35=A|34=95|49=hudfix2|52=20180711-13:14:59.448|56=XBRV|98=0|108=30|10=071|
FIX.4.4:hudfix2->XBRV
8=FIX.4.4|9=67|35=A|34=96|49=hudfix2|52=20180711-13:15:13.448|56=XBRV|98=0|108=30|10=063|
FIX.4.4:hudfix2->XBRV
8=FIX.4.4|9=67|35=A|34=97|49=hudfix2|52=20180711-13:15:26.450|56=XBRV|98=0|108=30|10=061|
FIX.4.4:hudfix2->XBRV
8=FIX.4.4|9=67|35=A|34=98|49=hudfix2|52=20180711-13:15:38.453|56=XBRV|98=0|108=30|10=068|
FIX.4.4:hudfix2->XBRV
8=FIX.4.4|9=67|35=A|34=99|49=hudfix2|52=20180711-13:15:49.458|56=XBRV|98=0|108=30|10=076|
FIX.4.4:hudfix2->XBRV
8=FIX.4.4|9=68|35=A|34=100|49=hudfix2|52=20180711-13:16:02.455|56=XBRV|98=0|108=30|10=095|
FIX.4.4:hudfix2->XBRV
8=FIX.4.4|9=68|35=A|34=101|49=hudfix2|52=20180711-13:16:12.458|56=XBRV|98=0|108=30|10=100|
FIX.4.4:hudfix2->XBRV
8=FIX.4.4|9=68|35=A|34=102|49=hudfix2|52=20180711-13:16:25.458|56=XBRV|98=0|108=30|10=105|
FIX.4.4:hudfix2->XBRV
8=FIX.4.4|9=68|35=A|34=103|49=hudfix2|52=20180711-13:16:36.467|56=XBRV|98=0|108=30|10=108|
FIX.4.4:hudfix2->XBRV
8=FIX.4.4|9=68|35=A|34=104|49=hudfix2|52=20180711-13:16:49.463|56=XBRV|98=0|108=30|10=109|
FIX.4.4:hudfix2->XBRV
8=FIX.4.4|9=68|35=A|34=105|49=hudfix2|52=20180711-13:16:59.466|56=XBRV|98=0|108=30|10=114|
FIX.4.4:hudfix2->XBRV
8=FIX.4.4|9=68|35=A|34=106|49=hudfix2|52=20180711-13:17:11.472|56=XBRV|98=0|108=30|10=101|
FIX.4.4:hudfix2->XBRV
8=FIX.4.4|9=68|35=A|34=107|49=hudfix2|52=20180711-13:17:25.478|56=XBRV|98=0|108=30|10=113|
FIX.4.4:hudfix2->XBRV
8=FIX.4.4|9=68|35=A|34=108|49=hudfix2|52=20180711-13:17:37.483|56=XBRV|98=0|108=30|10=113|
FIX.4.4:hudfix2->XBRV
8=FIX.4.4|9=68|35=A|34=109|49=hudfix2|52=20180711-13:17:47.486|56=XBRV|98=0|108=30|10=118|
FIX.4.4:hudfix2->XBRV
8=FIX.4.4|9=68|35=A|34=110|49=hudfix2|52=20180711-13:17:58.489|56=XBRV|98=0|108=30|10=115|
FIX.4.4:hudfix2->XBRV
8=FIX.4.4|9=68|35=A|34=111|49=hudfix2|52=20180711-13:18:09.494|56=XBRV|98=0|108=30|10=109|
FIX.4.4:hudfix2->XBRV
8=FIX.4.4|9=68|35=A|34=112|49=hudfix2|52=20180711-13:18:21.555|56=XBRV|98=0|108=30|10=102|
FIX.4.4:hudfix2->XBRV
8=FIX.4.4|9=68|35=A|34=113|49=hudfix2|52=20180711-13:18:31.559|56=XBRV|98=0|108=30|10=108|
FIX.4.4:hudfix2->XBRV
8=FIX.4.4|9=68|35=A|34=114|49=hudfix2|52=20180711-13:18:42.756|56=XBRV|98=0|108=30|10=110|
FIX.4.4:hudfix2->XBRV
8=FIX.4.4|9=68|35=A|34=115|49=hudfix2|52=20180711-13:18:54.756|56=XBRV|98=0|108=30|10=114|
FIX.4.4:hudfix2->XBRV
8=FIX.4.4|9=68|35=A|34=116|49=hudfix2|52=20180711-13:19:05.759|56=XBRV|98=0|108=30|10=115|
FIX.4.4:hudfix2->XBRV
8=FIX.4.4|9=68|35=A|34=117|49=hudfix2|52=20180711-13:19:16.759|56=XBRV|98=0|108=30|10=118|
FIX.4.4:hudfix2->XBRV
8=FIX.4.4|9=68|35=A|34=118|49=hudfix2|52=20180711-13:19:27.764|56=XBRV|98=0|108=30|10=117|
FIX.4.4:hudfix2->XBRV
8=FIX.4.4|9=68|35=A|34=119|49=hudfix2|52=20180711-13:19:38.762|56=XBRV|98=0|108=30|10=118|
FIX.4.4:hudfix2->XBRV
8=FIX.4.4|9=68|35=A|34=120|49=hudfix2|52=20180711-13:19:51.767|56=XBRV|98=0|108=30|10=110|
FIX.4.4:hudfix2->XBRV
8=FIX.4.4|9=68|35=A|34=121|49=hudfix2|52=20180711-13:20:03.766|56=XBRV|98=0|108=30|10=099|
FIX.4.4:hudfix2->XBRV
8=FIX.4.4|9=68|35=A|34=122|49=hudfix2|52=20180711-13:20:13.770|56=XBRV|98=0|108=30|10=096|
FIX.4.4:hudfix2->XBRV
8=FIX.4.4|9=68|35=A|34=123|49=hudfix2|52=20180711-13:20:25.777|56=XBRV|98=0|108=30|10=107|
FIX.4.4:hudfix2->XBRV
8=FIX.4.4|9=68|35=A|34=124|49=hudfix2|52=20180711-13:20:36.780|56=XBRV|98=0|108=30|10=104|
FIX.4.4:hudfix2->XBRV
8=FIX.4.4|9=68|35=A|34=125|49=hudfix2|52=20180711-13:20:47.780|56=XBRV|98=0|108=30|10=107|
FIX.4.4:hudfix2->XBRV
8=FIX.4.4|9=68|35=A|34=126|49=hudfix2|52=20180711-13:20:58.785|56=XBRV|98=0|108=30|10=115|
FIX.4.4:hudfix2->XBRV
8=FIX.4.4|9=68|35=A|34=127|49=hudfix2|52=20180711-13:21:11.783|56=XBRV|98=0|108=30|10=104|
FIX.4.4:hudfix2->XBRV
8=FIX.4.4|9=68|35=A|34=128|49=hudfix2|52=20180711-13:21:21.787|56=XBRV|98=0|108=30|10=110|
FIX.4.4:hudfix2->XBRV
8=FIX.4.4|9=68|35=A|34=129|49=hudfix2|52=20180711-13:21:33.787|56=XBRV|98=0|108=30|10=114|
FIX.4.4:hudfix2->XBRV
8=FIX.4.4|9=68|35=A|34=130|49=hudfix2|52=20180711-13:21:43.791|56=XBRV|98=0|108=30|10=102|
FIX.4.4:hudfix2->XBRV
8=FIX.4.4|9=68|35=A|34=131|49=hudfix2|52=20180711-13:21:55.794|56=XBRV|98=0|108=30|10=109|
FIX.4.4:hudfix2->XBRV
8=FIX.4.4|9=68|35=A|34=132|49=hudfix2|52=20180711-13:22:06.800|56=XBRV|98=0|108=30|10=095|
FIX.4.4:hudfix2->XBRV
8=FIX.4.4|9=68|35=A|34=133|49=hudfix2|52=20180711-13:22:17.870|56=XBRV|98=0|108=30|10=105|
FIX.4.4:hudfix2->XBRV
8=FIX.4.4|9=68|35=A|34=134|49=hudfix2|52=20180711-13:22:27.874|56=XBRV|98=0|108=30|10=111|
FIX.4.4:hudfix2->XBRV
8=FIX.4.4|9=68|35=A|34=135|49=hudfix2|52=20180711-13:22:39.968|56=XBRV|98=0|108=30|10=119|
FIX.4.4:hudfix2->XBRV
8=FIX.4.4|9=68|35=A|34=136|49=hudfix2|52=20180711-13:22:49.970|56=XBRV|98=0|108=30|10=114|
FIX.4.4:hudfix2->XBRV
8=FIX.4.4|9=68|35=A|34=137|49=hudfix2|52=20180711-13:22:59.972|56=XBRV|98=0|108=30|10=118|
FIX.4.4:hudfix2->XBRV
8=FIX.4.4|9=68|35=A|34=138|49=hudfix2|52=20180711-13:23:12.975|56=XBRV|98=0|108=30|10=112|
FIX.4.4:hudfix2->XBRV
8=FIX.4.4|9=68|35=A|34=139|49=hudfix2|52=20180711-13:23:23.974|56=XBRV|98=0|108=30|10=114|
FIX.4.4:hudfix2->XBRV
8=FIX.4.4|9=68|35=A|34=140|49=hudfix2|52=20180711-13:23:37.979|56=XBRV|98=0|108=30|10=116|
FIX.4.4:hudfix2->XBRV
8=FIX.4.4|9=68|35=A|34=141|49=hudfix2|52=20180711-13:23:50.979|56=XBRV|98=0|108=30|10=112|
FIX.4.4:hudfix2->XBRV
8=FIX.4.4|9=68|35=A|34=142|49=hudfix2|52=20180711-13:24:00.982|56=XBRV|98=0|108=30|10=103|
FIX.4.4:hudfix2->XBRV
8=FIX.4.4|9=68|35=A|34=143|49=hudfix2|52=20180711-13:24:12.985|56=XBRV|98=0|108=30|10=110|
FIX.4.4:hudfix2->XBRV
8=FIX.4.4|9=68|35=A|34=144|49=hudfix2|52=20180711-13:24:24.987|56=XBRV|98=0|108=30|10=116|
FIX.4.4:hudfix2->XBRV
8=FIX.4.4|9=68|35=A|34=145|49=hudfix2|52=20180711-13:24:37.992|56=XBRV|98=0|108=30|10=117|
FIX.4.4:hudfix2->XBRV
8=FIX.4.4|9=68|35=A|34=146|49=hudfix2|52=20180711-13:24:50.066|56=XBRV|98=0|108=30|10=105|
FIX.4.4:hudfix2->XBRV
8=FIX.4.4|9=68|35=A|34=147|49=hudfix2|52=20180711-13:25:00.071|56=XBRV|98=0|108=30|10=098|
FIX.4.4:hudfix2->XBRV
8=FIX.4.4|9=68|35=A|34=148|49=hudfix2|52=20180711-13:25:14.068|56=XBRV|98=0|108=30|10=110|
FIX.4.4:hudfix2->XBRV
8=FIX.4.4|9=68|35=A|34=149|49=hudfix2|52=20180711-13:25:24.071|56=XBRV|98=0|108=30|10=106|
FIX.4.4:hudfix2->XBRV
8=FIX.4.4|9=68|35=A|34=150|49=hudfix2|52=20180711-13:25:36.072|56=XBRV|98=0|108=30|10=102|
FIX.4.4:hudfix2->XBRV
8=FIX.4.4|9=68|35=A|34=151|49=hudfix2|52=20180711-13:25:47.077|56=XBRV|98=0|108=30|10=110|
FIX.4.4:hudfix2->XBRV
8=FIX.4.4|9=68|35=A|34=152|49=hudfix2|52=20180711-13:25:58.080|56=XBRV|98=0|108=30|10=107|
FIX.4.4:hudfix2->XBRV
8=FIX.4.4|9=68|35=A|34=153|49=hudfix2|52=20180711-13:26:08.084|56=XBRV|98=0|108=30|10=108|
FIX.4.4:hudfix2->XBRV
8=FIX.4.4|9=68|35=A|34=154|49=hudfix2|52=20180711-13:26:18.084|56=XBRV|98=0|108=30|10=110|
FIX.4.4:hudfix2->XBRV
8=FIX.4.4|9=68|35=A|34=155|49=hudfix2|52=20180711-13:26:29.088|56=XBRV|98=0|108=30|10=117|
FIX.4.4:hudfix2->XBRV
8=FIX.4.4|9=68|35=A|34=156|49=hudfix2|52=20180711-13:26:40.088|56=XBRV|98=0|108=30|10=111|
FIX.4.4:hudfix2->XBRV
8=FIX.4.4|9=68|35=A|34=157|49=hudfix2|52=20180711-13:26:53.092|56=XBRV|98=0|108=30|10=111|
FIX.4.4:hudfix2->XBRV
8=FIX.4.4|9=68|35=A|34=158|49=hudfix2|52=20180711-13:27:04.090|56=XBRV|98=0|108=30|10=107|
FIX.4.4:hudfix2->XBRV
8=FIX.4.4|9=68|35=A|34=159|49=hudfix2|52=20180711-13:27:18.096|56=XBRV|98=0|108=30|10=119|
FIX.4.4:hudfix2->XBRV
8=FIX.4.4|9=68|35=A|34=160|49=hudfix2|52=20180711-13:27:29.094|56=XBRV|98=0|108=30|10=111|
FIX.4.4:hudfix2->XBRV
8=FIX.4.4|9=68|35=A|34=161|49=hudfix2|52=20180711-13:27:40.100|56=XBRV|98=0|108=30|10=093|
FIX.4.4:hudfix2->XBRV
8=FIX.4.4|9=68|35=A|34=162|49=hudfix2|52=20180711-13:27:53.098|56=XBRV|98=0|108=30|10=114|
FIX.4.4:hudfix2->XBRV
8=FIX.4.4|9=68|35=A|34=163|49=hudfix2|52=20180711-13:28:04.102|56=XBRV|98=0|108=30|10=098|
FIX.4.4:hudfix2->XBRV
8=FIX.4.4|9=68|35=A|34=164|49=hudfix2|52=20180711-13:28:18.107|56=XBRV|98=0|108=30|10=109|
FIX.4.4:hudfix2->XBRV
8=FIX.4.4|9=68|35=A|34=165|49=hudfix2|52=20180711-13:28:30.164|56=XBRV|98=0|108=30|10=107|
FIX.4.4:hudfix2->XBRV
8=FIX.4.4|9=68|35=A|34=166|49=hudfix2|52=20180711-13:28:40.167|56=XBRV|98=0|108=30|10=112|
FIX.4.4:hudfix2->XBRV
8=FIX.4.4|9=68|35=A|34=167|49=hudfix2|52=20180711-13:28:52.172|56=XBRV|98=0|108=30|10=112|
FIX.4.4:hudfix2->XBRV
8=FIX.4.4|9=68|35=A|34=168|49=hudfix2|52=20180711-13:29:03.177|56=XBRV|98=0|108=30|10=115|
FIX.4.4:hudfix2->XBRV
8=FIX.4.4|9=68|35=A|34=169|49=hudfix2|52=20180711-13:29:16.174|56=XBRV|98=0|108=30|10=117|
FIX.4.4:hudfix2->XBRV
8=FIX.4.4|9=68|35=A|34=170|49=hudfix2|52=20180711-13:29:30.180|56=XBRV|98=0|108=30|10=102|
FIX.4.4:hudfix2->XBRV
8=FIX.4.4|9=68|35=A|34=171|49=hudfix2|52=20180711-13:29:43.178|56=XBRV|98=0|108=30|10=114|
FIX.4.4:hudfix2->XBRV
8=FIX.4.4|9=68|35=A|34=172|49=hudfix2|52=20180711-13:29:54.182|56=XBRV|98=0|108=30|10=112|
FIX.4.4:hudfix2->XBRV
8=FIX.4.4|9=68|35=A|34=173|49=hudfix2|52=20180711-13:30:04.187|56=XBRV|98=0|108=30|10=105|
FIX.4.4:hudfix2->XBRV
8=FIX.4.4|9=68|35=A|34=174|49=hudfix2|52=20180711-13:30:17.187|56=XBRV|98=0|108=30|10=110|
FIX.4.4:hudfix2->XBRV
8=FIX.4.4|9=68|35=A|34=175|49=hudfix2|52=20180711-13:30:28.193|56=XBRV|98=0|108=30|10=110|
FIX.4.4:hudfix2->XBRV
8=FIX.4.4|9=68|35=A|34=176|49=hudfix2|52=20180711-13:30:39.196|56=XBRV|98=0|108=30|10=116|
FIX.4.4:hudfix2->XBRV
8=FIX.4.4|9=68|35=A|34=177|49=hudfix2|52=20180711-13:30:50.203|56=XBRV|98=0|108=30|10=099|
FIX.4.4:hudfix2->XBRV
8=FIX.4.4|9=68|35=A|34=178|49=hudfix2|52=20180711-13:31:02.252|56=XBRV|98=0|108=30|10=102|
FIX.4.4:hudfix2->XBRV
8=FIX.4.4|9=68|35=A|34=179|49=hudfix2|52=20180711-13:31:13.257|56=XBRV|98=0|108=30|10=110|
FIX.4.4:hudfix2->XBRV
8=FIX.4.4|9=68|35=A|34=180|49=hudfix2|52=20180711-13:31:24.257|56=XBRV|98=0|108=30|10=104|
FIX.4.4:hudfix2->XBRV
8=FIX.4.4|9=68|35=A|34=181|49=hudfix2|52=20180711-13:31:35.261|56=XBRV|98=0|108=30|10=102|
FIX.4.4:hudfix2->XBRV
8=FIX.4.4|9=68|35=A|34=182|49=hudfix2|52=20180711-13:31:46.261|56=XBRV|98=0|108=30|10=105|
FIX.4.4:hudfix2->XBRV
8=FIX.4.4|9=68|35=A|34=183|49=hudfix2|52=20180711-13:31:56.262|56=XBRV|98=0|108=30|10=108|
FIX.4.4:hudfix2->XBRV
8=FIX.4.4|9=68|35=A|34=184|49=hudfix2|52=20180711-13:32:06.266|56=XBRV|98=0|108=30|10=109|
FIX.4.4:hudfix2->XBRV
8=FIX.4.4|9=68|35=A|34=185|49=hudfix2|52=20180711-13:32:19.268|56=XBRV|98=0|108=30|10=116|
FIX.4.4:hudfix2->XBRV
8=FIX.4.4|9=68|35=A|34=186|49=hudfix2|52=20180711-13:32:29.271|56=XBRV|98=0|108=30|10=112|
FIX.4.4:hudfix2->XBRV
8=FIX.4.4|9=68|35=A|34=187|49=hudfix2|52=20180711-13:32:41.276|56=XBRV|98=0|108=30|10=112|
FIX.4.4:hudfix2->XBRV
8=FIX.4.4|9=68|35=A|34=188|49=hudfix2|52=20180711-13:32:52.274|56=XBRV|98=0|108=30|10=113|
FIX.4.4:hudfix2->XBRV
8=FIX.4.4|9=68|35=A|34=189|49=hudfix2|52=20180711-13:33:03.277|56=XBRV|98=0|108=30|10=114|
FIX.4.4:hudfix2->XBRV
8=FIX.4.4|9=68|35=A|34=190|49=hudfix2|52=20180711-13:33:14.276|56=XBRV|98=0|108=30|10=107|
FIX.4.4:hudfix2->XBRV
8=FIX.4.4|9=68|35=A|34=191|49=hudfix2|52=20180711-13:33:25.280|56=XBRV|98=0|108=30|10=105|
FIX.4.4:hudfix2->XBRV
8=FIX.4.4|9=68|35=A|34=192|49=hudfix2|52=20180711-13:33:36.282|56=XBRV|98=0|108=30|10=110|
FIX.4.4:hudfix2->XBRV
8=FIX.4.4|9=68|35=A|34=193|49=hudfix2|52=20180711-13:33:49.286|56=XBRV|98=0|108=30|10=119|
FIX.4.4:hudfix2->XBRV
8=FIX.4.4|9=68|35=A|34=194|49=hudfix2|52=20180711-13:34:01.291|56=XBRV|98=0|108=30|10=105|
FIX.4.4:hudfix2->XBRV
8=FIX.4.4|9=68|35=A|34=195|49=hudfix2|52=20180711-13:34:12.295|56=XBRV|98=0|108=30|10=112|
FIX.4.4:hudfix2->XBRV
8=FIX.4.4|9=68|35=A|34=196|49=hudfix2|52=20180711-13:34:23.293|56=XBRV|98=0|108=30|10=113|
FIX.4.4:hudfix2->XBRV
8=FIX.4.4|9=68|35=A|34=197|49=hudfix2|52=20180711-13:34:36.297|56=XBRV|98=0|108=30|10=122|
FIX.4.4:hudfix2->XBRV
8=FIX.4.4|9=68|35=A|34=198|49=hudfix2|52=20180711-13:34:50.296|56=XBRV|98=0|108=30|10=118|
FIX.4.4:hudfix2->XBRV
8=FIX.4.4|9=68|35=A|34=199|49=hudfix2|52=20180711-13:35:00.299|56=XBRV|98=0|108=30|10=118|
FIX.4.4:hudfix2->XBRV
8=FIX.4.4|9=68|35=A|34=200|49=hudfix2|52=20180711-13:35:12.305|56=XBRV|98=0|108=30|10=092|
FIX.4.4:hudfix2->XBRV
8=FIX.4.4|9=68|35=A|34=201|49=hudfix2|52=20180711-13:35:22.309|56=XBRV|98=0|108=30|10=098|
FIX.4.4:hudfix2->XBRV
8=FIX.4.4|9=68|35=A|34=202|49=hudfix2|52=20180711-13:35:34.314|56=XBRV|98=0|108=30|10=098|
FIX.4.4:hudfix2->XBRV
8=FIX.4.4|9=68|35=A|34=203|49=hudfix2|52=20180711-13:35:45.319|56=XBRV|98=0|108=30|10=106|
FIX.4.4:hudfix2->XBRV
8=FIX.4.4|9=68|35=A|34=204|49=hudfix2|52=20180711-13:35:56.317|56=XBRV|98=0|108=30|10=107|
FIX.4.4:hudfix2->XBRV
8=FIX.4.4|9=68|35=A|34=205|49=hudfix2|52=20180711-13:36:07.321|56=XBRV|98=0|108=30|10=100|
FIX.4.4:hudfix2->XBRV
8=FIX.4.4|9=68|35=A|34=206|49=hudfix2|52=20180711-13:36:18.360|56=XBRV|98=0|108=30|10=106|
FIX.4.4:hudfix2->XBRV
8=FIX.4.4|9=68|35=A|34=207|49=hudfix2|52=20180711-13:36:29.364|56=XBRV|98=0|108=30|10=113|
FIX.4.4:hudfix2->XBRV
8=FIX.4.4|9=68|35=A|34=208|49=hudfix2|52=20180711-13:36:40.364|56=XBRV|98=0|108=30|10=107|
FIX.4.4:hudfix2->XBRV
8=FIX.4.4|9=68|35=A|34=209|49=hudfix2|52=20180711-13:36:53.368|56=XBRV|98=0|108=30|10=116|
FIX.4.4:hudfix2->XBRV
8=FIX.4.4|9=68|35=A|34=210|49=hudfix2|52=20180711-13:37:04.372|56=XBRV|98=0|108=30|10=100|
FIX.4.4:hudfix2->XBRV
8=FIX.4.4|9=68|35=A|34=211|49=hudfix2|52=20180711-13:37:14.375|56=XBRV|98=0|108=30|10=105|
FIX.4.4:hudfix2->XBRV
8=FIX.4.4|9=68|35=A|34=212|49=hudfix2|52=20180711-13:37:29.374|56=XBRV|98=0|108=30|10=111|
FIX.4.4:hudfix2->XBRV
8=FIX.4.4|9=68|35=A|34=213|49=hudfix2|52=20180711-13:37:43.382|56=XBRV|98=0|108=30|10=107|
FIX.4.4:hudfix2->XBRV
8=FIX.4.4|9=68|35=A|34=214|49=hudfix2|52=20180711-13:37:56.386|56=XBRV|98=0|108=30|10=116|
FIX.4.4:hudfix2->XBRV
8=FIX.4.4|9=68|35=A|34=215|49=hudfix2|52=20180711-13:38:06.392|56=XBRV|98=0|108=30|10=110|
FIX.4.4:hudfix2->XBRV
8=FIX.4.4|9=68|35=A|34=216|49=hudfix2|52=20180711-13:38:17.397|56=XBRV|98=0|108=30|10=118|
FIX.4.4:hudfix2->XBRV
8=FIX.4.4|9=68|35=A|34=217|49=hudfix2|52=20180711-13:38:32.395|56=XBRV|98=0|108=30|10=114|
FIX.4.4:hudfix2->XBRV
8=FIX.4.4|9=68|35=A|34=218|49=hudfix2|52=20180711-13:38:43.400|56=XBRV|98=0|108=30|10=104|
FIX.4.4:hudfix2->XBRV
8=FIX.4.4|9=68|35=A|34=219|49=hudfix2|52=20180711-13:38:57.405|56=XBRV|98=0|108=30|10=115|
FIX.4.4:hudfix2->XBRV
8=FIX.4.4|9=68|35=A|34=220|49=hudfix2|52=20180711-13:39:09.407|56=XBRV|98=0|108=30|10=107|
FIX.4.4:hudfix2->XBRV
8=FIX.4.4|9=68|35=A|34=221|49=hudfix2|52=20180711-13:39:22.410|56=XBRV|98=0|108=30|10=097|
FIX.4.4:hudfix2->XBRV
8=FIX.4.4|9=68|35=A|34=222|49=hudfix2|52=20180711-13:39:33.413|56=XBRV|98=0|108=30|10=103|
FIX.4.4:hudfix2->XBRV
8=FIX.4.4|9=68|35=A|34=223|49=hudfix2|52=20180711-13:39:43.417|56=XBRV|98=0|108=30|10=109|
FIX.4.4:hudfix2->XBRV
8=FIX.4.4|9=68|35=A|34=224|49=hudfix2|52=20180711-13:39:58.415|56=XBRV|98=0|108=30|10=114|
FIX.4.4:hudfix2->XBRV
8=FIX.4.4|9=68|35=A|34=225|49=hudfix2|52=20180711-13:40:10.422|56=XBRV|98=0|108=30|10=093|
FIX.4.4:hudfix2->XBRV
8=FIX.4.4|9=68|35=A|34=226|49=hudfix2|52=20180711-13:40:25.422|56=XBRV|98=0|108=30|10=100|
FIX.4.4:hudfix2->XBRV
8=FIX.4.4|9=68|35=A|34=227|49=hudfix2|52=20180711-13:40:37.428|56=XBRV|98=0|108=30|10=110|
FIX.4.4:hudfix2->XBRV
8=FIX.4.4|9=68|35=A|34=228|49=hudfix2|52=20180711-13:40:48.431|56=XBRV|98=0|108=30|10=107|
FIX.4.4:hudfix2->XBRV
8=FIX.4.4|9=68|35=A|34=229|49=hudfix2|52=20180711-13:41:01.432|56=XBRV|98=0|108=30|10=099|
FIX.4.4:hudfix2->XBRV
8=FIX.4.4|9=68|35=A|34=230|49=hudfix2|52=20180711-13:41:14.437|56=XBRV|98=0|108=30|10=100|
FIX.4.4:hudfix2->XBRV
8=FIX.4.4|9=68|35=A|34=231|49=hudfix2|52=20180711-13:41:26.437|56=XBRV|98=0|108=30|10=104|
FIX.4.4:hudfix2->XBRV
8=FIX.4.4|9=68|35=A|34=232|49=hudfix2|52=20180711-13:41:39.441|56=XBRV|98=0|108=30|10=104|
FIX.4.4:hudfix2->XBRV
8=FIX.4.4|9=68|35=A|34=233|49=hudfix2|52=20180711-13:41:50.446|56=XBRV|98=0|108=30|10=103|
FIX.4.4:hudfix2->XBRV
8=FIX.4.4|9=68|35=A|34=234|49=hudfix2|52=20180711-13:42:02.446|56=XBRV|98=0|108=30|10=102|
FIX.4.4:hudfix2->XBRV
8=FIX.4.4|9=68|35=A|34=235|49=hudfix2|52=20180711-13:42:12.447|56=XBRV|98=0|108=30|10=105|
FIX.4.4:hudfix2->XBRV
8=FIX.4.4|9=68|35=A|34=236|49=hudfix2|52=20180711-13:42:24.449|56=XBRV|98=0|108=30|10=111|
FIX.4.4:hudfix2->XBRV
8=FIX.4.4|9=68|35=A|34=237|49=hudfix2|52=20180711-13:42:37.452|56=XBRV|98=0|108=30|10=110|
FIX.4.4:hudfix2->XBRV
8=FIX.4.4|9=68|35=A|34=238|49=hudfix2|52=20180711-13:42:51.453|56=XBRV|98=0|108=30|10=108|
FIX.4.4:hudfix2->XBRV
8=FIX.4.4|9=68|35=A|34=239|49=hudfix2|52=20180711-13:43:02.457|56=XBRV|98=0|108=30|10=110|
FIX.4.4:hudfix2->XBRV
8=FIX.4.4|9=68|35=A|34=240|49=hudfix2|52=20180711-13:43:16.460|56=XBRV|98=0|108=30|10=101|
FIX.4.4:hudfix2->XBRV
8=FIX.4.4|9=68|35=A|34=241|49=hudfix2|52=20180711-13:43:26.463|56=XBRV|98=0|108=30|10=106|
FIX.4.4:hudfix2->XBRV
8=FIX.4.4|9=68|35=A|34=242|49=hudfix2|52=20180711-13:43:40.468|56=XBRV|98=0|108=30|10=108|
FIX.4.4:hudfix2->XBRV
8=FIX.4.4|9=68|35=A|34=243|49=hudfix2|52=20180711-13:43:52.469|56=XBRV|98=0|108=30|10=113|
FIX.4.4:hudfix2->XBRV
8=FIX.4.4|9=68|35=A|34=244|49=hudfix2|52=20180711-13:44:02.472|56=XBRV|98=0|108=30|10=104|
FIX.4.4:hudfix2->XBRV
8=FIX.4.4|9=68|35=A|34=245|49=hudfix2|52=20180711-13:44:14.472|56=XBRV|98=0|108=30|10=108|
FIX.4.4:hudfix2->XBRV
8=FIX.4.4|9=68|35=A|34=246|49=hudfix2|52=20180711-13:44:25.476|56=XBRV|98=0|108=30|10=115|
FIX.4.4:hudfix2->XBRV
8=FIX.4.4|9=68|35=A|34=247|49=hudfix2|52=20180711-13:44:35.483|56=XBRV|98=0|108=30|10=115|
FIX.4.4:hudfix2->XBRV
8=FIX.4.4|9=68|35=A|34=248|49=hudfix2|52=20180711-13:44:47.486|56=XBRV|98=0|108=30|10=122|
FIX.4.4:hudfix2->XBRV
8=FIX.4.4|9=68|35=A|34=249|49=hudfix2|52=20180711-13:44:58.485|56=XBRV|98=0|108=30|10=124|
FIX.4.4:hudfix2->XBRV
8=FIX.4.4|9=68|35=A|34=250|49=hudfix2|52=20180711-13:45:09.488|56=XBRV|98=0|108=30|10=116|
FIX.4.4:hudfix2->XBRV
8=FIX.4.4|9=68|35=A|34=251|49=hudfix2|52=20180711-13:45:20.487|56=XBRV|98=0|108=30|10=109|
FIX.4.4:hudfix2->XBRV
8=FIX.4.4|9=68|35=A|34=252|49=hudfix2|52=20180711-13:45:33.493|56=XBRV|98=0|108=30|10=111|
FIX.4.4:hudfix2->XBRV
8=FIX.4.4|9=68|35=A|34=253|49=hudfix2|52=20180711-13:45:45.502|56=XBRV|98=0|108=30|10=106|
FIX.4.4:hudfix2->XBRV
8=FIX.4.4|9=68|35=A|34=254|49=hudfix2|52=20180711-13:45:56.506|56=XBRV|98=0|108=30|10=113|
FIX.4.4:hudfix2->XBRV
8=FIX.4.4|9=68|35=A|34=255|49=hudfix2|52=20180711-13:46:09.506|56=XBRV|98=0|108=30|10=113|
FIX.4.4:hudfix2->XBRV
8=FIX.4.4|9=68|35=A|34=256|49=hudfix2|52=20180711-13:46:22.511|56=XBRV|98=0|108=30|10=105|
FIX.4.4:hudfix2->XBRV
8=FIX.4.4|9=68|35=A|34=257|49=hudfix2|52=20180711-13:46:34.511|56=XBRV|98=0|108=30|10=109|
FIX.4.4:hudfix2->XBRV
8=FIX.4.4|9=68|35=A|34=258|49=hudfix2|52=20180711-13:46:47.515|56=XBRV|98=0|108=30|10=118|
FIX.4.4:hudfix2->XBRV
8=FIX.4.4|9=68|35=A|34=259|49=hudfix2|52=20180711-13:46:59.570|56=XBRV|98=0|108=30|10=123|
FIX.4.4:hudfix2->XBRV
8=FIX.4.4|9=68|35=A|34=260|49=hudfix2|52=20180711-13:47:09.574|56=XBRV|98=0|108=30|10=115|
FIX.4.4:hudfix2->XBRV
8=FIX.4.4|9=68|35=A|34=261|49=hudfix2|52=20180711-13:47:19.579|56=XBRV|98=0|108=30|10=122|
FIX.4.4:hudfix2->XBRV
8=FIX.4.4|9=68|35=A|34=262|49=hudfix2|52=20180711-13:47:29.582|56=XBRV|98=0|108=30|10=118|
FIX.4.4:hudfix2->XBRV
8=FIX.4.4|9=68|35=A|34=263|49=hudfix2|52=20180711-13:47:42.580|56=XBRV|98=0|108=30|10=112|
FIX.4.4:hudfix2->XBRV
8=FIX.4.4|9=68|35=A|34=264|49=hudfix2|52=20180711-13:47:52.583|56=XBRV|98=0|108=30|10=117|
FIX.4.4:hudfix2->XBRV
8=FIX.4.4|9=68|35=A|34=265|49=hudfix2|52=20180711-13:48:07.584|56=XBRV|98=0|108=30|10=120|
FIX.4.4:hudfix2->XBRV
8=FIX.4.4|9=68|35=A|34=266|49=hudfix2|52=20180711-13:48:21.591|56=XBRV|98=0|108=30|10=115|
FIX.4.4:hudfix2->XBRV
8=FIX.4.4|9=68|35=A|34=267|49=hudfix2|52=20180711-13:48:32.595|56=XBRV|98=0|108=30|10=122|
FIX.4.4:hudfix2->XBRV
8=FIX.4.4|9=68|35=A|34=268|49=hudfix2|52=20180711-13:48:43.592|56=XBRV|98=0|108=30|10=122|
FIX.4.4:hudfix2->XBRV
8=FIX.4.4|9=68|35=A|34=269|49=hudfix2|52=20180711-13:48:56.597|56=XBRV|98=0|108=30|10=132|
FIX.4.4:hudfix2->XBRV
8=FIX.4.4|9=68|35=A|34=270|49=hudfix2|52=20180711-13:49:08.760|56=XBRV|98=0|108=30|10=114|
FIX.4.4:hudfix2->XBRV
8=FIX.4.4|9=68|35=A|34=271|49=hudfix2|52=20180711-13:49:18.763|56=XBRV|98=0|108=30|10=119|
FIX.4.4:hudfix2->XBRV
8=FIX.4.4|9=68|35=A|34=272|49=hudfix2|52=20180711-13:49:32.771|56=XBRV|98=0|108=30|10=115|
FIX.4.4:hudfix2->XBRV
8=FIX.4.4|9=68|35=A|34=273|49=hudfix2|52=20180711-13:49:44.768|56=XBRV|98=0|108=30|10=125|
FIX.4.4:hudfix2->XBRV
8=FIX.4.4|9=68|35=A|34=274|49=hudfix2|52=20180711-13:49:58.776|56=XBRV|98=0|108=30|10=130|
FIX.4.4:hudfix2->XBRV
8=FIX.4.4|9=68|35=A|34=275|49=hudfix2|52=20180711-13:50:11.953|56=XBRV|98=0|108=30|10=109|
FIX.4.4:hudfix2->XBRV
8=FIX.4.4|9=68|35=A|34=276|49=hudfix2|52=20180711-13:50:24.956|56=XBRV|98=0|108=30|10=117|
FIX.4.4:hudfix2->XBRV
8=FIX.4.4|9=68|35=A|34=277|49=hudfix2|52=20180711-13:50:38.960|56=XBRV|98=0|108=30|10=118|
FIX.4.4:hudfix2->XBRV
8=FIX.4.4|9=68|35=A|34=278|49=hudfix2|52=20180711-13:50:50.959|56=XBRV|98=0|108=30|10=121|
FIX.4.4:hudfix2->XBRV
8=FIX.4.4|9=68|35=A|34=279|49=hudfix2|52=20180711-13:51:03.964|56=XBRV|98=0|108=30|10=117|
FIX.4.4:hudfix2->XBRV
8=FIX.4.4|9=68|35=A|34=280|49=hudfix2|52=20180711-13:51:15.964|56=XBRV|98=0|108=30|10=112|
FIX.4.4:hudfix2->XBRV
8=FIX.4.4|9=68|35=A|34=281|49=hudfix2|52=20180711-13:51:28.967|56=XBRV|98=0|108=30|10=120|
FIX.4.4:hudfix2->XBRV
8=FIX.4.4|9=68|35=A|34=282|49=hudfix2|52=20180711-13:51:39.971|56=XBRV|98=0|108=30|10=118|
FIX.4.4:hudfix2->XBRV
8=FIX.4.4|9=68|35=A|34=283|49=hudfix2|52=20180711-13:51:51.977|56=XBRV|98=0|108=30|10=119|
FIX.4.4:hudfix2->XBRV
8=FIX.4.4|9=68|35=A|34=284|49=hudfix2|52=20180711-13:52:04.975|56=XBRV|98=0|108=30|10=117|
FIX.4.4:hudfix2->XBRV
8=FIX.4.4|9=68|35=A|34=285|49=hudfix2|52=20180711-13:52:14.979|56=XBRV|98=0|108=30|10=123|
FIX.4.4:hudfix2->XBRV
8=FIX.4.4|9=68|35=A|34=286|49=hudfix2|52=20180711-13:52:29.059|56=XBRV|98=0|108=30|10=119|
FIX.4.4:hudfix2->XBRV
8=FIX.4.4|9=68|35=A|34=287|49=hudfix2|52=20180711-13:52:39.062|56=XBRV|98=0|108=30|10=115|
FIX.4.4:hudfix2->XBRV
8=FIX.4.4|9=68|35=A|34=288|49=hudfix2|52=20180711-13:52:52.062|56=XBRV|98=0|108=30|10=111|
FIX.4.4:hudfix2->XBRV
8=FIX.4.4|9=68|35=A|34=289|49=hudfix2|52=20180711-13:53:03.061|56=XBRV|98=0|108=30|10=108|
FIX.4.4:hudfix2->XBRV
8=FIX.4.4|9=68|35=A|34=290|49=hudfix2|52=20180711-13:53:16.064|56=XBRV|98=0|108=30|10=107|
FIX.4.4:hudfix2->XBRV
8=FIX.4.4|9=68|35=A|34=291|49=hudfix2|52=20180711-13:53:30.070|56=XBRV|98=0|108=30|10=101|
FIX.4.4:hudfix2->XBRV
8=FIX.4.4|9=68|35=A|34=292|49=hudfix2|52=20180711-13:53:40.073|56=XBRV|98=0|108=30|10=106|
FIX.4.4:hudfix2->XBRV
8=FIX.4.4|9=68|35=A|34=293|49=hudfix2|52=20180711-13:53:55.073|56=XBRV|98=0|108=30|10=113|
FIX.4.4:hudfix2->XBRV
8=FIX.4.4|9=68|35=A|34=294|49=hudfix2|52=20180711-13:54:05.077|56=XBRV|98=0|108=30|10=114|
FIX.4.4:hudfix2->XBRV
8=FIX.4.4|9=68|35=A|34=295|49=hudfix2|52=20180711-13:54:15.077|56=XBRV|98=0|108=30|10=116|
FIX.4.4:hudfix2->XBRV
8=FIX.4.4|9=68|35=A|34=296|49=hudfix2|52=20180711-13:54:25.082|56=XBRV|98=0|108=30|10=114|
FIX.4.4:hudfix2->XBRV
8=FIX.4.4|9=68|35=A|34=297|49=hudfix2|52=20180711-13:54:39.086|56=XBRV|98=0|108=30|10=124|
FIX.4.4:hudfix2->XBRV
8=FIX.4.4|9=68|35=A|34=298|49=hudfix2|52=20180711-13:54:52.090|56=XBRV|98=0|108=30|10=115|
FIX.4.4:hudfix2->XBRV
8=FIX.4.4|9=68|35=A|34=299|49=hudfix2|52=20180711-13:55:04.097|56=XBRV|98=0|108=30|10=121|
FIX.4.4:hudfix2->XBRV
8=FIX.4.4|9=68|35=A|34=300|49=hudfix2|52=20180711-13:55:14.100|56=XBRV|98=0|108=30|10=090|
FIX.4.4:hudfix2->XBRV
8=FIX.4.4|9=68|35=A|34=301|49=hudfix2|52=20180711-13:55:24.105|56=XBRV|98=0|108=30|10=097|
FIX.4.4:hudfix2->XBRV
8=FIX.4.4|9=68|35=A|34=302|49=hudfix2|52=20180711-13:55:37.104|56=XBRV|98=0|108=30|10=101|
FIX.4.4:hudfix2->XBRV
8=FIX.4.4|9=68|35=A|34=303|49=hudfix2|52=20180711-13:55:50.107|56=XBRV|98=0|108=30|10=100|
FIX.4.4:hudfix2->XBRV
8=FIX.4.4|9=68|35=A|34=304|49=hudfix2|52=20180711-13:56:02.108|56=XBRV|98=0|108=30|10=100|
FIX.4.4:hudfix2->XBRV
8=FIX.4.4|9=68|35=A|34=305|49=hudfix2|52=20180711-13:56:12.112|56=XBRV|98=0|108=30|10=097|
FIX.4.4:hudfix2->XBRV
8=FIX.4.4|9=68|35=A|34=306|49=hudfix2|52=20180711-13:56:26.206|56=XBRV|98=0|108=30|10=107|
FIX.4.4:hudfix2->XBRV
8=FIX.4.4|9=68|35=A|34=307|49=hudfix2|52=20180711-13:56:36.210|56=XBRV|98=0|108=30|10=104|
FIX.4.4:hudfix2->XBRV
8=FIX.4.4|9=68|35=A|34=308|49=hudfix2|52=20180711-13:56:51.209|56=XBRV|98=0|108=30|10=110|
FIX.4.4:hudfix2->XBRV
8=FIX.4.4|9=68|35=A|34=309|49=hudfix2|52=20180711-13:57:05.210|56=XBRV|98=0|108=30|10=103|
FIX.4.4:hudfix2->XBRV
8=FIX.4.4|9=68|35=A|34=310|49=hudfix2|52=20180711-13:57:15.211|56=XBRV|98=0|108=30|10=097|
FIX.4.4:hudfix2->XBRV
8=FIX.4.4|9=68|35=A|34=311|49=hudfix2|52=20180711-13:57:25.213|56=XBRV|98=0|108=30|10=101|
FIX.4.4:hudfix2->XBRV
8=FIX.4.4|9=68|35=A|34=312|49=hudfix2|52=20180711-13:57:35.215|56=XBRV|98=0|108=30|10=105|
FIX.4.4:hudfix2->XBRV
8=FIX.4.4|9=68|35=A|34=313|49=hudfix2|52=20180711-13:57:46.219|56=XBRV|98=0|108=30|10=112|
FIX.4.4:hudfix2->XBRV
8=FIX.4.4|9=68|35=A|34=314|49=hudfix2|52=20180711-13:57:58.225|56=XBRV|98=0|108=30|10=113|
FIX.4.4:hudfix2->XBRV
8=FIX.4.4|9=68|35=A|34=315|49=hudfix2|52=20180711-13:58:08.230|56=XBRV|98=0|108=30|10=106|
FIX.4.4:hudfix2->XBRV
8=FIX.4.4|9=68|35=A|34=316|49=hudfix2|52=20180711-13:58:22.235|56=XBRV|98=0|108=30|10=108|
FIX.4.4:hudfix2->XBRV
8=FIX.4.4|9=68|35=A|34=317|49=hudfix2|52=20180711-13:58:33.240|56=XBRV|98=0|108=30|10=107|
FIX.4.4:hudfix2->XBRV
8=FIX.4.4|9=68|35=A|34=318|49=hudfix2|52=20180711-13:58:47.244|56=XBRV|98=0|108=30|10=117|
FIX.4.4:hudfix2->XBRV
8=FIX.4.4|9=68|35=A|34=319|49=hudfix2|52=20180711-13:59:01.248|56=XBRV|98=0|108=30|10=113|
FIX.4.4:hudfix2->XBRV
8=FIX.4.4|9=68|35=A|34=320|49=hudfix2|52=20180711-13:59:11.252|56=XBRV|98=0|108=30|10=101|
FIX.4.4:hudfix2->XBRV
8=FIX.4.4|9=68|35=A|34=321|49=hudfix2|52=20180711-13:59:23.251|56=XBRV|98=0|108=30|10=104|
FIX.4.4:hudfix2->XBRV
8=FIX.4.4|9=68|35=A|34=322|49=hudfix2|52=20180711-13:59:34.255|56=XBRV|98=0|108=30|10=111|
FIX.4.4:hudfix2->XBRV
8=FIX.4.4|9=68|35=A|34=323|49=hudfix2|52=20180711-13:59:45.255|56=XBRV|98=0|108=30|10=114|
FIX.4.4:hudfix2->XBRV
8=FIX.4.4|9=68|35=A|34=324|49=hudfix2|52=20180711-13:59:58.258|56=XBRV|98=0|108=30|10=122|
FIX.4.4:hudfix2->XBRV
8=FIX.4.4|9=68|35=A|34=325|49=hudfix2|52=20180711-14:00:08.261|56=XBRV|98=0|108=30|10=099|
FIX.4.4:hudfix2->XBRV
8=FIX.4.4|9=68|35=A|34=326|49=hudfix2|52=20180711-14:00:18.264|56=XBRV|98=0|108=30|10=104|
FIX.4.4:hudfix2->XBRV
8=FIX.4.4|9=68|35=A|34=327|49=hudfix2|52=20180711-14:00:32.269|56=XBRV|98=0|108=30|10=106|
FIX.4.4:hudfix2->XBRV
8=FIX.4.4|9=68|35=A|34=328|49=hudfix2|52=20180711-14:00:42.271|56=XBRV|98=0|108=30|10=101|
FIX.4.4:hudfix2->XBRV
8=FIX.4.4|9=68|35=A|34=329|49=hudfix2|52=20180711-14:00:54.274|56=XBRV|98=0|108=30|10=108|
FIX.4.4:hudfix2->XBRV
8=FIX.4.4|9=68|35=A|34=330|49=hudfix2|52=20180711-14:01:05.278|56=XBRV|98=0|108=30|10=101|
FIX.4.4:hudfix2->XBRV
8=FIX.4.4|9=68|35=A|34=331|49=hudfix2|52=20180711-14:01:16.282|56=XBRV|98=0|108=30|10=099|
FIX.4.4:hudfix2->XBRV
8=FIX.4.4|9=68|35=A|34=332|49=hudfix2|52=20180711-14:01:29.286|56=XBRV|98=0|108=30|10=108|
FIX.4.4:hudfix2->XBRV
8=FIX.4.4|9=68|35=A|34=333|49=hudfix2|52=20180711-14:01:41.292|56=XBRV|98=0|108=30|10=100|
FIX.4.4:hudfix2->XBRV
8=FIX.4.4|9=68|35=A|34=334|49=hudfix2|52=20180711-14:01:52.809|56=XBRV|98=0|108=30|10=107|
FIX.4.4:hudfix2->XBRV
8=FIX.4.4|9=68|35=A|34=335|49=hudfix2|52=20180711-14:02:06.297|56=XBRV|98=0|108=30|10=109|
FIX.4.4:hudfix2->XBRV
8=FIX.4.4|9=68|35=A|34=336|49=hudfix2|52=20180711-14:02:19.295|56=XBRV|98=0|108=30|10=112|
FIX.4.4:hudfix2->XBRV
8=FIX.4.4|9=68|35=A|34=337|49=hudfix2|52=20180711-14:02:29.298|56=XBRV|98=0|108=30|10=117|
FIX.4.4:hudfix2->XBRV
8=FIX.4.4|9=68|35=A|34=338|49=hudfix2|52=20180711-14:02:41.297|56=XBRV|98=0|108=30|10=111|
FIX.4.4:hudfix2->XBRV
8=FIX.4.4|9=68|35=A|34=339|49=hudfix2|52=20180711-14:02:54.302|56=XBRV|98=0|108=30|10=103|
FIX.4.4:hudfix2->XBRV
8=FIX.4.4|9=68|35=A|34=340|49=hudfix2|52=20180711-14:03:06.301|56=XBRV|98=0|108=30|10=092|
FIX.4.4:hudfix2->XBRV
8=FIX.4.4|9=68|35=A|34=341|49=hudfix2|52=20180711-14:03:17.305|56=XBRV|98=0|108=30|10=099|
FIX.4.4:hudfix2->XBRV
8=FIX.4.4|9=68|35=A|34=342|49=hudfix2|52=20180711-14:03:30.305|56=XBRV|98=0|108=30|10=095|
FIX.4.4:hudfix2->XBRV
8=FIX.4.4|9=68|35=A|34=343|49=hudfix2|52=20180711-14:03:40.308|56=XBRV|98=0|108=30|10=100|
FIX.4.4:hudfix2->XBRV
8=FIX.4.4|9=68|35=A|34=344|49=hudfix2|52=20180711-14:03:53.366|56=XBRV|98=0|108=30|10=109|
FIX.4.4:hudfix2->XBRV
8=FIX.4.4|9=68|35=A|34=345|49=hudfix2|52=20180711-14:04:04.366|56=XBRV|98=0|108=30|10=107|
FIX.4.4:hudfix2->XBRV
8=FIX.4.4|9=68|35=A|34=346|49=hudfix2|52=20180711-14:04:17.371|56=XBRV|98=0|108=30|10=108|
FIX.4.4:hudfix2->XBRV
8=FIX.4.4|9=68|35=A|34=347|49=hudfix2|52=20180711-14:04:29.378|56=XBRV|98=0|108=30|10=119|
FIX.4.4:hudfix2->XBRV
8=FIX.4.4|9=68|35=A|34=348|49=hudfix2|52=20180711-14:04:39.381|56=XBRV|98=0|108=30|10=115|
FIX.4.4:hudfix2->XBRV
8=FIX.4.4|9=68|35=A|34=349|49=hudfix2|52=20180711-14:04:53.386|56=XBRV|98=0|108=30|10=117|
FIX.4.4:hudfix2->XBRV
8=FIX.4.4|9=68|35=A|34=350|49=hudfix2|52=20180711-14:05:07.394|56=XBRV|98=0|108=30|10=108|
FIX.4.4:hudfix2->XBRV
8=FIX.4.4|9=68|35=A|34=351|49=hudfix2|52=20180711-14:05:18.389|56=XBRV|98=0|108=30|10=115|
FIX.4.4:hudfix2->XBRV
8=FIX.4.4|9=68|35=A|34=352|49=hudfix2|52=20180711-14:05:31.393|56=XBRV|98=0|108=30|10=106|
FIX.4.4:hudfix2->XBRV
8=FIX.4.4|9=68|35=A|34=353|49=hudfix2|52=20180711-14:05:45.399|56=XBRV|98=0|108=30|10=118|
FIX.4.4:hudfix2->XBRV
8=FIX.4.4|9=68|35=A|34=354|49=hudfix2|52=20180711-14:05:59.403|56=XBRV|98=0|108=30|10=110|
FIX.4.4:hudfix2->XBRV
8=FIX.4.4|9=68|35=A|34=355|49=hudfix2|52=20180711-14:06:12.410|56=XBRV|98=0|108=30|10=099|
FIX.4.4:hudfix2->XBRV
8=FIX.4.4|9=68|35=A|34=356|49=hudfix2|52=20180711-14:06:24.554|56=XBRV|98=0|108=30|10=112|
FIX.4.4:hudfix2->XBRV
8=FIX.4.4|9=68|35=A|34=357|49=hudfix2|52=20180711-14:06:35.558|56=XBRV|98=0|108=30|10=119|
FIX.4.4:hudfix2->XBRV
8=FIX.4.4|9=68|35=A|34=358|49=hudfix2|52=20180711-14:06:46.558|56=XBRV|98=0|108=30|10=122|
FIX.4.4:hudfix2->XBRV
8=FIX.4.4|9=68|35=A|34=359|49=hudfix2|52=20180711-14:06:59.569|56=XBRV|98=0|108=30|10=129|
FIX.4.4:hudfix2->XBRV
8=FIX.4.4|9=68|35=A|34=360|49=hudfix2|52=20180711-14:07:11.575|56=XBRV|98=0|108=30|10=107|
FIX.4.4:hudfix2->XBRV
8=FIX.4.4|9=68|35=A|34=361|49=hudfix2|52=20180711-14:07:22.572|56=XBRV|98=0|108=30|10=107|
FIX.4.4:hudfix2->XBRV
8=FIX.4.4|9=68|35=A|34=362|49=hudfix2|52=20180711-14:07:32.574|56=XBRV|98=0|108=30|10=111|
FIX.4.4:hudfix2->XBRV
8=FIX.4.4|9=68|35=A|34=363|49=hudfix2|52=20180711-14:07:44.643|56=XBRV|98=0|108=30|10=112|
FIX.4.4:hudfix2->XBRV
8=FIX.4.4|9=68|35=A|34=364|49=hudfix2|52=20180711-14:07:54.646|56=XBRV|98=0|108=30|10=117|
FIX.4.4:hudfix2->XBRV
8=FIX.4.4|9=68|35=A|34=365|49=hudfix2|52=20180711-14:08:04.650|56=XBRV|98=0|108=30|10=109|
FIX.4.4:hudfix2->XBRV
8=FIX.4.4|9=68|35=A|34=366|49=hudfix2|52=20180711-14:08:16.647|56=XBRV|98=0|108=30|10=119|
FIX.4.4:hudfix2->XBRV
8=FIX.4.4|9=68|35=A|34=367|49=hudfix2|52=20180711-14:08:27.656|56=XBRV|98=0|108=30|10=122|
FIX.4.4:hudfix2->XBRV
8=FIX.4.4|9=68|35=A|34=368|49=hudfix2|52=20180711-14:08:39.661|56=XBRV|98=0|108=30|10=122|
FIX.4.4:hudfix2->XBRV
8=FIX.4.4|9=68|35=A|34=369|49=hudfix2|52=20180711-14:08:49.665|56=XBRV|98=0|108=30|10=128|
FIX.4.4:hudfix2->XBRV
8=FIX.4.4|9=68|35=A|34=370|49=hudfix2|52=20180711-14:09:03.687|56=XBRV|98=0|108=30|10=115|
FIX.4.4:hudfix2->XBRV
8=FIX.4.4|9=68|35=A|34=371|49=hudfix2|52=20180711-14:09:17.677|56=XBRV|98=0|108=30|10=120|
FIX.4.4:hudfix2->XBRV
8=FIX.4.4|9=68|35=A|34=372|49=hudfix2|52=20180711-14:09:27.682|56=XBRV|98=0|108=30|10=118|
FIX.4.4:hudfix2->XBRV
8=FIX.4.4|9=68|35=A|34=373|49=hudfix2|52=20180711-14:09:37.688|56=XBRV|98=0|108=30|10=126|
FIX.4.4:hudfix2->XBRV
8=FIX.4.4|9=68|35=A|34=374|49=hudfix2|52=20180711-14:09:48.693|56=XBRV|98=0|108=30|10=125|
FIX.4.4:hudfix2->XBRV
8=FIX.4.4|9=68|35=A|34=375|49=hudfix2|52=20180711-14:10:01.693|56=XBRV|98=0|108=30|10=107|
FIX.4.4:hudfix2->XBRV
8=FIX.4.4|9=68|35=A|34=376|49=hudfix2|52=20180711-14:10:14.697|56=XBRV|98=0|108=30|10=116|
FIX.4.4:hudfix2->XBRV
8=FIX.4.4|9=68|35=A|34=377|49=hudfix2|52=20180711-14:10:24.702|56=XBRV|98=0|108=30|10=105|
FIX.4.4:hudfix2->XBRV
8=FIX.4.4|9=68|35=A|34=378|49=hudfix2|52=20180711-14:10:34.705|56=XBRV|98=0|108=30|10=110|
FIX.4.4:hudfix2->XBRV
8=FIX.4.4|9=68|35=A|34=379|49=hudfix2|52=20180711-14:10:48.710|56=XBRV|98=0|108=30|10=112|
FIX.4.4:hudfix2->XBRV
8=FIX.4.4|9=68|35=A|34=380|49=hudfix2|52=20180711-14:10:58.714|56=XBRV|98=0|108=30|10=109|
FIX.4.4:hudfix2->XBRV
8=FIX.4.4|9=68|35=A|34=381|49=hudfix2|52=20180711-14:11:10.711|56=XBRV|98=0|108=30|10=096|
FIX.4.4:hudfix2->XBRV
8=FIX.4.4|9=68|35=A|34=382|49=hudfix2|52=20180711-14:11:21.716|56=XBRV|98=0|108=30|10=104|
FIX.4.4:hudfix2->XBRV
8=FIX.4.4|9=68|35=A|34=383|49=hudfix2|52=20180711-14:11:33.715|56=XBRV|98=0|108=30|10=107|
FIX.4.4:hudfix2->XBRV
8=FIX.4.4|9=68|35=A|34=384|49=hudfix2|52=20180711-14:11:43.719|56=XBRV|98=0|108=30|10=113|
FIX.4.4:hudfix2->XBRV
8=FIX.4.4|9=68|35=A|34=385|49=hudfix2|52=20180711-14:11:56.715|56=XBRV|98=0|108=30|10=114|
FIX.4.4:hudfix2->XBRV
8=FIX.4.4|9=68|35=A|34=386|49=hudfix2|52=20180711-14:12:07.721|56=XBRV|98=0|108=30|10=109|
FIX.4.4:hudfix2->XBRV
8=FIX.4.4|9=68|35=A|34=387|49=hudfix2|52=20180711-14:12:21.847|56=XBRV|98=0|108=30|10=115|
FIX.4.4:hudfix2->XBRV
8=FIX.4.4|9=68|35=A|34=388|49=hudfix2|52=20180711-14:12:33.853|56=XBRV|98=0|108=30|10=116|
FIX.4.4:hudfix2->XBRV
8=FIX.4.4|9=68|35=A|34=389|49=hudfix2|52=20180711-14:12:44.859|56=XBRV|98=0|108=30|10=125|
FIX.4.4:hudfix2->XBRV
8=FIX.4.4|9=68|35=A|34=390|49=hudfix2|52=20180711-14:12:57.855|56=XBRV|98=0|108=30|10=117|
FIX.4.4:hudfix2->XBRV
8=FIX.4.4|9=68|35=A|34=391|49=hudfix2|52=20180711-14:13:07.878|56=XBRV|98=0|108=30|10=119|
FIX.4.4:hudfix2->XBRV
8=FIX.4.4|9=68|35=A|34=392|49=hudfix2|52=20180711-14:13:19.856|56=XBRV|98=0|108=30|10=119|
FIX.4.4:hudfix2->XBRV
8=FIX.4.4|9=68|35=A|34=393|49=hudfix2|52=20180711-14:13:29.860|56=XBRV|98=0|108=30|10=116|
FIX.4.4:hudfix2->XBRV
8=FIX.4.4|9=68|35=A|34=394|49=hudfix2|52=20180711-14:13:41.861|56=XBRV|98=0|108=30|10=112|
FIX.4.4:hudfix2->XBRV
8=FIX.4.4|9=68|35=A|34=395|49=hudfix2|52=20180711-14:13:52.866|56=XBRV|98=0|108=30|10=120|
FIX.4.4:hudfix2->XBRV
8=FIX.4.4|9=68|35=A|34=396|49=hudfix2|52=20180711-14:14:04.868|56=XBRV|98=0|108=30|10=121|
FIX.4.4:hudfix2->XBRV
8=FIX.4.4|9=68|35=A|34=397|49=hudfix2|52=20180711-14:14:14.871|56=XBRV|98=0|108=30|10=117|
FIX.4.4:hudfix2->XBRV
8=FIX.4.4|9=68|35=A|34=398|49=hudfix2|52=20180711-14:14:28.877|56=XBRV|98=0|108=30|10=129|
FIX.4.4:hudfix2->XBRV
8=FIX.4.4|9=68|35=A|34=399|49=hudfix2|52=20180711-14:14:38.881|56=XBRV|98=0|108=30|10=126|
FIX.4.4:hudfix2->XBRV
8=FIX.4.4|9=68|35=A|34=400|49=hudfix2|52=20180711-14:14:50.879|56=XBRV|98=0|108=30|10=110|
FIX.4.4:hudfix2->XBRV
8=FIX.4.4|9=68|35=A|34=401|49=hudfix2|52=20180711-14:15:01.882|56=XBRV|98=0|108=30|10=102|
FIX.4.4:hudfix2->XBRV
8=FIX.4.4|9=68|35=A|34=402|49=hudfix2|52=20180711-14:15:12.882|56=XBRV|98=0|108=30|10=105|
FIX.4.4:hudfix2->XBRV
8=FIX.4.4|9=68|35=A|34=403|49=hudfix2|52=20180711-14:15:25.888|56=XBRV|98=0|108=30|10=116|
FIX.4.4:hudfix2->XBRV
8=FIX.4.4|9=68|35=A|34=404|49=hudfix2|52=20180711-14:15:37.892|56=XBRV|98=0|108=30|10=115|
FIX.4.4:hudfix2->XBRV
8=FIX.4.4|9=68|35=A|34=405|49=hudfix2|52=20180711-14:15:48.893|56=XBRV|98=0|108=30|10=119|
FIX.4.4:hudfix2->XBRV
8=FIX.4.4|9=68|35=A|34=406|49=hudfix2|52=20180711-14:15:58.895|56=XBRV|98=0|108=30|10=123|
FIX.4.4:hudfix2->XBRV
8=FIX.4.4|9=68|35=A|34=407|49=hudfix2|52=20180711-14:16:08.899|56=XBRV|98=0|108=30|10=124|
FIX.4.4:hudfix2->XBRV
8=FIX.4.4|9=68|35=A|34=408|49=hudfix2|52=20180711-14:16:23.900|56=XBRV|98=0|108=30|10=105|
FIX.4.4:hudfix2->XBRV
8=FIX.4.4|9=68|35=A|34=409|49=hudfix2|52=20180711-14:16:35.904|56=XBRV|98=0|108=30|10=113|
FIX.4.4:hudfix2->XBRV
8=FIX.4.4|9=68|35=A|34=410|49=hudfix2|52=20180711-14:16:46.910|56=XBRV|98=0|108=30|10=104|
FIX.4.4:hudfix2->XBRV
8=FIX.4.4|9=68|35=A|34=411|49=hudfix2|52=20180711-14:16:59.911|56=XBRV|98=0|108=30|10=110|
FIX.4.4:hudfix2->XBRV
8=FIX.4.4|9=68|35=A|34=412|49=hudfix2|52=20180711-14:17:12.917|56=XBRV|98=0|108=30|10=107|
FIX.4.4:hudfix2->XBRV
8=FIX.4.4|9=68|35=A|34=413|49=hudfix2|52=20180711-14:17:24.918|56=XBRV|98=0|108=30|10=112|
FIX.4.4:hudfix2->XBRV
8=FIX.4.4|9=68|35=A|34=414|49=hudfix2|52=20180711-14:17:37.925|56=XBRV|98=0|108=30|10=115|
FIX.4.4:hudfix2->XBRV
8=FIX.4.4|9=68|35=A|34=415|49=hudfix2|52=20180711-14:17:48.929|56=XBRV|98=0|108=30|10=122|
FIX.4.4:hudfix2->XBRV
8=FIX.4.4|9=68|35=A|34=416|49=hudfix2|52=20180711-14:17:58.932|56=XBRV|98=0|108=30|10=118|
FIX.4.4:hudfix2->XBRV
8=FIX.4.4|9=68|35=A|34=417|49=hudfix2|52=20180711-14:18:10.936|56=XBRV|98=0|108=30|10=112|
FIX.4.4:hudfix2->XBRV
8=FIX.4.4|9=68|35=A|34=418|49=hudfix2|52=20180711-14:18:21.940|56=XBRV|98=0|108=30|10=110|
FIX.4.4:hudfix2->XBRV
8=FIX.4.4|9=68|35=A|34=419|49=hudfix2|52=20180711-14:18:33.946|56=XBRV|98=0|108=30|10=120|
FIX.4.4:hudfix2->XBRV
8=FIX.4.4|9=68|35=A|34=420|49=hudfix2|52=20180711-14:18:44.944|56=XBRV|98=0|108=30|10=112|
FIX.4.4:hudfix2->XBRV
8=FIX.4.4|9=68|35=A|34=421|49=hudfix2|52=20180711-14:18:54.949|56=XBRV|98=0|108=30|10=119|
FIX.4.4:hudfix2->XBRV
8=FIX.4.4|9=68|35=A|34=422|49=hudfix2|52=20180711-14:19:04.953|56=XBRV|98=0|108=30|10=111|
FIX.4.4:hudfix2->XBRV
8=FIX.4.4|9=68|35=A|34=423|49=hudfix2|52=20180711-14:19:16.951|56=XBRV|98=0|108=30|10=113|
FIX.4.4:hudfix2->XBRV
8=FIX.4.4|9=68|35=A|34=424|49=hudfix2|52=20180711-14:19:27.955|56=XBRV|98=0|108=30|10=120|
FIX.4.4:hudfix2->XBRV
8=FIX.4.4|9=68|35=A|34=425|49=hudfix2|52=20180711-14:19:41.963|56=XBRV|98=0|108=30|10=116|
FIX.4.4:hudfix2->XBRV
8=FIX.4.4|9=68|35=A|34=426|49=hudfix2|52=20180711-14:19:53.963|56=XBRV|98=0|108=30|10=120|
FIX.4.4:hudfix2->XBRV
8=FIX.4.4|9=68|35=A|34=427|49=hudfix2|52=20180711-14:20:03.968|56=XBRV|98=0|108=30|10=113|
FIX.4.4:hudfix2->XBRV
8=FIX.4.4|9=68|35=A|34=428|49=hudfix2|52=20180711-14:20:15.968|56=XBRV|98=0|108=30|10=117|
FIX.4.4:hudfix2->XBRV
8=FIX.4.4|9=68|35=A|34=429|49=hudfix2|52=20180711-14:20:25.971|56=XBRV|98=0|108=30|10=113|
FIX.4.4:hudfix2->XBRV
8=FIX.4.4|9=68|35=A|34=430|49=hudfix2|52=20180711-14:20:37.971|56=XBRV|98=0|108=30|10=108|
FIX.4.4:hudfix2->XBRV
8=FIX.4.4|9=68|35=A|34=431|49=hudfix2|52=20180711-14:20:48.974|56=XBRV|98=0|108=30|10=114|
FIX.4.4:hudfix2->XBRV
8=FIX.4.4|9=68|35=A|34=432|49=hudfix2|52=20180711-14:21:01.973|56=XBRV|98=0|108=30|10=104|
FIX.4.4:hudfix2->XBRV
8=FIX.4.4|9=68|35=A|34=433|49=hudfix2|52=20180711-14:21:11.978|56=XBRV|98=0|108=30|10=111|
FIX.4.4:hudfix2->XBRV
8=FIX.4.4|9=68|35=A|34=434|49=hudfix2|52=20180711-14:21:26.978|56=XBRV|98=0|108=30|10=118|
FIX.4.4:hudfix2->XBRV
8=FIX.4.4|9=68|35=A|34=435|49=hudfix2|52=20180711-14:21:36.980|56=XBRV|98=0|108=30|10=113|
FIX.4.4:hudfix2->XBRV
8=FIX.4.4|9=68|35=A|34=436|49=hudfix2|52=20180711-14:21:49.009|56=XBRV|98=0|108=30|10=110|
FIX.4.4:hudfix2->XBRV
8=FIX.4.4|9=68|35=A|34=437|49=hudfix2|52=20180711-14:21:59.012|56=XBRV|98=0|108=30|10=106|
FIX.4.4:hudfix2->XBRV
8=FIX.4.4|9=68|35=A|34=438|49=hudfix2|52=20180711-14:22:12.993|56=XBRV|98=0|108=30|10=115|
FIX.4.4:hudfix2->XBRV
8=FIX.4.4|9=68|35=A|34=439|49=hudfix2|52=20180711-14:22:22.996|56=XBRV|98=0|108=30|10=120|
FIX.4.4:hudfix2->XBRV
8=FIX.4.4|9=68|35=A|34=440|49=hudfix2|52=20180711-14:22:32.996|56=XBRV|98=0|108=30|10=113|
FIX.4.4:hudfix2->XBRV
8=FIX.4.4|9=68|35=A|34=441|49=hudfix2|52=20180711-14:22:44.000|56=XBRV|98=0|108=30|10=093|
FIX.4.4:hudfix2->XBRV
8=FIX.4.4|9=68|35=A|34=442|49=hudfix2|52=20180711-14:22:56.998|56=XBRV|98=0|108=30|10=123|
FIX.4.4:hudfix2->XBRV
8=FIX.4.4|9=68|35=A|34=443|49=hudfix2|52=20180711-14:23:08.998|56=XBRV|98=0|108=30|10=122|
FIX.4.4:hudfix2->XBRV
8=FIX.4.4|9=68|35=A|34=444|49=hudfix2|52=20180711-14:23:22.003|56=XBRV|98=0|108=30|10=096|
FIX.4.4:hudfix2->XBRV
8=FIX.4.4|9=68|35=A|34=445|49=hudfix2|52=20180711-14:23:34.003|56=XBRV|98=0|108=30|10=100|
FIX.4.4:hudfix2->XBRV
8=FIX.4.4|9=68|35=A|34=446|49=hudfix2|52=20180711-14:23:45.007|56=XBRV|98=0|108=30|10=107|
FIX.4.4:hudfix2->XBRV
8=FIX.4.4|9=68|35=A|34=447|49=hudfix2|52=20180711-14:23:56.007|56=XBRV|98=0|108=30|10=110|
FIX.4.4:hudfix2->XBRV
8=FIX.4.4|9=68|35=A|34=448|49=hudfix2|52=20180711-14:24:07.010|56=XBRV|98=0|108=30|10=102|
FIX.4.4:hudfix2->XBRV
8=FIX.4.4|9=68|35=A|34=449|49=hudfix2|52=20180711-14:24:20.008|56=XBRV|98=0|108=30|10=105|
FIX.4.4:hudfix2->XBRV
8=FIX.4.4|9=68|35=A|34=450|49=hudfix2|52=20180711-14:24:31.013|56=XBRV|98=0|108=30|10=095|
FIX.4.4:hudfix2->XBRV
8=FIX.4.4|9=68|35=A|34=451|49=hudfix2|52=20180711-14:24:45.020|56=XBRV|98=0|108=30|10=099|
FIX.4.4:hudfix2->XBRV
8=FIX.4.4|9=68|35=A|34=452|49=hudfix2|52=20180711-14:24:55.022|56=XBRV|98=0|108=30|10=103|
FIX.4.4:hudfix2->XBRV
8=FIX.4.4|9=68|35=A|34=453|49=hudfix2|52=20180711-14:25:07.025|56=XBRV|98=0|108=30|10=105|
FIX.4.4:hudfix2->XBRV
8=FIX.4.4|9=68|35=A|34=454|49=hudfix2|52=20180711-14:25:18.030|56=XBRV|98=0|108=30|10=104|
FIX.4.4:hudfix2->XBRV
8=FIX.4.4|9=68|35=A|34=455|49=hudfix2|52=20180711-14:25:29.026|56=XBRV|98=0|108=30|10=112|
FIX.4.4:hudfix2->XBRV
8=FIX.4.4|9=68|35=A|34=456|49=hudfix2|52=20180711-14:25:39.028|56=XBRV|98=0|108=30|10=116|
FIX.4.4:hudfix2->XBRV
8=FIX.4.4|9=68|35=A|34=457|49=hudfix2|52=20180711-14:25:49.031|56=XBRV|98=0|108=30|10=112|
FIX.4.4:hudfix2->XBRV
8=FIX.4.4|9=68|35=A|34=458|49=hudfix2|52=20180711-14:26:02.037|56=XBRV|98=0|108=30|10=109|
FIX.4.4:hudfix2->XBRV
8=FIX.4.4|9=68|35=A|34=459|49=hudfix2|52=20180711-14:26:13.036|56=XBRV|98=0|108=30|10=111|
FIX.4.4:hudfix2->XBRV
8=FIX.4.4|9=68|35=A|34=460|49=hudfix2|52=20180711-14:26:23.040|56=XBRV|98=0|108=30|10=099|
FIX.4.4:hudfix2->XBRV
8=FIX.4.4|9=68|35=A|34=461|49=hudfix2|52=20180711-14:26:35.039|56=XBRV|98=0|108=30|10=111|
FIX.4.4:hudfix2->XBRV
8=FIX.4.4|9=68|35=A|34=462|49=hudfix2|52=20180711-14:26:46.043|56=XBRV|98=0|108=30|10=109|
FIX.4.4:hudfix2->XBRV
8=FIX.4.4|9=68|35=A|34=463|49=hudfix2|52=20180711-14:26:58.142|56=XBRV|98=0|108=30|10=113|
FIX.4.4:hudfix2->XBRV
8=FIX.4.4|9=68|35=A|34=464|49=hudfix2|52=20180711-14:27:11.140|56=XBRV|98=0|108=30|10=102|
FIX.4.4:hudfix2->XBRV
8=FIX.4.4|9=68|35=A|34=465|49=hudfix2|52=20180711-14:27:22.144|56=XBRV|98=0|108=30|10=109|
FIX.4.4:hudfix2->XBRV
8=FIX.4.4|9=68|35=A|34=466|49=hudfix2|52=20180711-14:27:33.143|56=XBRV|98=0|108=30|10=111|
FIX.4.4:hudfix2->XBRV
8=FIX.4.4|9=68|35=A|34=467|49=hudfix2|52=20180711-14:27:43.145|56=XBRV|98=0|108=30|10=115|
FIX.4.4:hudfix2->XBRV
8=FIX.4.4|9=68|35=A|34=468|49=hudfix2|52=20180711-14:27:55.148|56=XBRV|98=0|108=30|10=122|
FIX.4.4:hudfix2->XBRV
8=FIX.4.4|9=68|35=A|34=469|49=hudfix2|52=20180711-14:28:06.187|56=XBRV|98=0|108=30|10=123|
FIX.4.4:hudfix2->XBRV
8=FIX.4.4|9=68|35=A|34=470|49=hudfix2|52=20180711-14:28:17.152|56=XBRV|98=0|108=30|10=109|
FIX.4.4:hudfix2->XBRV
8=FIX.4.4|9=68|35=A|34=471|49=hudfix2|52=20180711-14:28:30.156|56=XBRV|98=0|108=30|10=109|
FIX.4.4:hudfix2->XBRV
8=FIX.4.4|9=68|35=A|34=472|49=hudfix2|52=20180711-14:28:44.347|56=XBRV|98=0|108=30|10=117|
FIX.4.4:hudfix2->XBRV
8=FIX.4.4|9=68|35=A|34=473|49=hudfix2|52=20180711-14:28:57.353|56=XBRV|98=0|108=30|10=119|
FIX.4.4:hudfix2->XBRV
8=FIX.4.4|9=68|35=A|34=474|49=hudfix2|52=20180711-14:29:11.358|56=XBRV|98=0|108=30|10=116|
FIX.4.4:hudfix2->XBRV
8=FIX.4.4|9=68|35=A|34=475|49=hudfix2|52=20180711-14:29:23.359|56=XBRV|98=0|108=30|10=121|
FIX.4.4:hudfix2->XBRV
8=FIX.4.4|9=68|35=A|34=476|49=hudfix2|52=20180711-14:29:34.363|56=XBRV|98=0|108=30|10=119|
FIX.4.4:hudfix2->XBRV
8=FIX.4.4|9=68|35=A|34=477|49=hudfix2|52=20180711-14:29:44.367|56=XBRV|98=0|108=30|10=125|
FIX.4.4:hudfix2->XBRV
8=FIX.4.4|9=68|35=A|34=478|49=hudfix2|52=20180711-14:29:56.374|56=XBRV|98=0|108=30|10=127|
FIX.4.4:hudfix2->XBRV
8=FIX.4.4|9=68|35=A|34=479|49=hudfix2|52=20180711-14:30:07.373|56=XBRV|98=0|108=30|10=115|
FIX.4.4:hudfix2->XBRV
8=FIX.4.4|9=68|35=A|34=480|49=hudfix2|52=20180711-14:30:21.379|56=XBRV|98=0|108=30|10=109|
FIX.4.4:hudfix2->XBRV
8=FIX.4.4|9=68|35=A|34=481|49=hudfix2|52=20180711-14:30:34.378|56=XBRV|98=0|108=30|10=113|
FIX.4.4:hudfix2->XBRV
8=FIX.4.4|9=68|35=A|34=482|49=hudfix2|52=20180711-14:30:47.382|56=XBRV|98=0|108=30|10=113|
FIX.4.4:hudfix2->XBRV
8=FIX.4.4|9=68|35=A|34=483|49=hudfix2|52=20180711-14:30:59.384|56=XBRV|98=0|108=30|10=119|
FIX.4.4:hudfix2->XBRV
8=FIX.4.4|9=68|35=A|34=484|49=hudfix2|52=20180711-14:31:10.387|56=XBRV|98=0|108=30|10=111|
FIX.4.4:hudfix2->XBRV
8=FIX.4.4|9=68|35=A|34=485|49=hudfix2|52=20180711-14:31:23.391|56=XBRV|98=0|108=30|10=111|
FIX.4.4:hudfix2->XBRV
8=FIX.4.4|9=68|35=A|34=486|49=hudfix2|52=20180711-14:31:35.390|56=XBRV|98=0|108=30|10=114|
FIX.4.4:hudfix2->XBRV
8=FIX.4.4|9=68|35=A|34=487|49=hudfix2|52=20180711-14:31:45.393|56=XBRV|98=0|108=30|10=119|
FIX.4.4:hudfix2->XBRV
8=FIX.4.4|9=68|35=A|34=488|49=hudfix2|52=20180711-14:31:56.397|56=XBRV|98=0|108=30|10=126|
FIX.4.4:hudfix2->XBRV
8=FIX.4.4|9=68|35=A|34=489|49=hudfix2|52=20180711-14:32:10.402|56=XBRV|98=0|108=30|10=105|
FIX.4.4:hudfix2->XBRV
8=FIX.4.4|9=68|35=A|34=490|49=hudfix2|52=20180711-14:32:24.407|56=XBRV|98=0|108=30|10=107|
FIX.4.4:hudfix2->XBRV
8=FIX.4.4|9=68|35=A|34=491|49=hudfix2|52=20180711-14:32:37.412|56=XBRV|98=0|108=30|10=108|
FIX.4.4:hudfix2->XBRV
8=FIX.4.4|9=68|35=A|34=492|49=hudfix2|52=20180711-14:32:49.410|56=XBRV|98=0|108=30|10=110|
FIX.4.4:hudfix2->XBRV
8=FIX.4.4|9=68|35=A|34=493|49=hudfix2|52=20180711-14:33:00.416|56=XBRV|98=0|108=30|10=105|
FIX.4.4:hudfix2->XBRV
8=FIX.4.4|9=68|35=A|34=494|49=hudfix2|52=20180711-14:33:13.415|56=XBRV|98=0|108=30|10=109|
FIX.4.4:hudfix2->XBRV
8=FIX.4.4|9=68|35=A|34=495|49=hudfix2|52=20180711-14:33:24.419|56=XBRV|98=0|108=30|10=116|
FIX.4.4:hudfix2->XBRV
8=FIX.4.4|9=68|35=A|34=496|49=hudfix2|52=20180711-14:33:36.426|56=XBRV|98=0|108=30|10=118|
FIX.4.4:hudfix2->XBRV
8=FIX.4.4|9=68|35=A|34=497|49=hudfix2|52=20180711-14:33:47.431|56=XBRV|98=0|108=30|10=117|
FIX.4.4:hudfix2->XBRV
8=FIX.4.4|9=68|35=A|34=498|49=hudfix2|52=20180711-14:34:00.436|56=XBRV|98=0|108=30|10=113|
FIX.4.4:hudfix2->XBRV
8=FIX.4.4|9=68|35=A|34=499|49=hudfix2|52=20180711-14:34:14.444|56=XBRV|98=0|108=30|10=118|
FIX.4.4:hudfix2->XBRV
8=FIX.4.4|9=68|35=A|34=500|49=hudfix2|52=20180711-14:34:27.451|56=XBRV|98=0|108=30|10=103|
FIX.4.4:hudfix2->XBRV
8=FIX.4.4|9=68|35=A|34=501|49=hudfix2|52=20180711-14:34:39.456|56=XBRV|98=0|108=30|10=112|
FIX.4.4:hudfix2->XBRV
8=FIX.4.4|9=68|35=A|34=502|49=hudfix2|52=20180711-14:34:52.460|56=XBRV|98=0|108=30|10=103|
FIX.4.4:hudfix2->XBRV
8=FIX.4.4|9=68|35=A|34=503|49=hudfix2|52=20180711-14:35:04.467|56=XBRV|98=0|108=30|10=109|
FIX.4.4:hudfix2->XBRV
8=FIX.4.4|9=68|35=A|34=504|49=hudfix2|52=20180711-14:35:15.466|56=XBRV|98=0|108=30|10=111|
FIX.4.4:hudfix2->XBRV
8=FIX.4.4|9=68|35=A|34=505|49=hudfix2|52=20180711-14:35:26.470|56=XBRV|98=0|108=30|10=109|
FIX.4.4:hudfix2->XBRV
8=FIX.4.4|9=68|35=A|34=506|49=hudfix2|52=20180711-14:35:37.469|56=XBRV|98=0|108=30|10=120|
FIX.4.4:hudfix2->XBRV
8=FIX.4.4|9=68|35=A|34=507|49=hudfix2|52=20180711-14:35:50.471|56=XBRV|98=0|108=30|10=109|
FIX.4.4:hudfix2->XBRV
8=FIX.4.4|9=68|35=A|34=508|49=hudfix2|52=20180711-14:36:04.538|56=XBRV|98=0|108=30|10=114|
FIX.4.4:hudfix2->XBRV
8=FIX.4.4|9=68|35=A|34=509|49=hudfix2|52=20180711-14:36:14.542|56=XBRV|98=0|108=30|10=111|
FIX.4.4:hudfix2->XBRV
8=FIX.4.4|9=68|35=A|34=510|49=hudfix2|52=20180711-14:36:26.542|56=XBRV|98=0|108=30|10=106|
FIX.4.4:hudfix2->XBRV
8=FIX.4.4|9=68|35=A|34=511|49=hudfix2|52=20180711-14:36:36.545|56=XBRV|98=0|108=30|10=111|
FIX.4.4:hudfix2->XBRV
8=FIX.4.4|9=68|35=A|34=512|49=hudfix2|52=20180711-14:36:48.640|56=XBRV|98=0|108=30|10=111|
FIX.4.4:hudfix2->XBRV
8=FIX.4.4|9=68|35=A|34=513|49=hudfix2|52=20180711-14:37:01.646|56=XBRV|98=0|108=30|10=108|
FIX.4.4:hudfix2->XBRV
8=FIX.4.4|9=68|35=A|34=514|49=hudfix2|52=20180711-14:37:13.643|56=XBRV|98=0|108=30|10=109|
FIX.4.4:hudfix2->XBRV
8=FIX.4.4|9=68|35=A|34=515|49=hudfix2|52=20180711-14:37:26.647|56=XBRV|98=0|108=30|10=118|
FIX.4.4:hudfix2->XBRV
8=FIX.4.4|9=68|35=A|34=516|49=hudfix2|52=20180711-14:37:37.652|56=XBRV|98=0|108=30|10=117|
FIX.4.4:hudfix2->XBRV
8=FIX.4.4|9=68|35=A|34=517|49=hudfix2|52=20180711-14:37:49.651|56=XBRV|98=0|108=30|10=120|
FIX.4.4:hudfix2->XBRV
8=FIX.4.4|9=68|35=A|34=518|49=hudfix2|52=20180711-14:38:02.656|56=XBRV|98=0|108=30|10=116|
FIX.4.4:hudfix2->XBRV
8=FIX.4.4|9=68|35=A|34=519|49=hudfix2|52=20180711-14:38:16.662|56=XBRV|98=0|108=30|10=119|
FIX.4.4:hudfix2->XBRV
8=FIX.4.4|9=68|35=A|34=520|49=hudfix2|52=20180711-14:38:29.666|56=XBRV|98=0|108=30|10=119|
FIX.4.4:hudfix2->XBRV
8=FIX.4.4|9=68|35=A|34=521|49=hudfix2|52=20180711-14:38:41.673|56=XBRV|98=0|108=30|10=112|
FIX.4.4:hudfix2->XBRV
8=FIX.4.4|9=68|35=A|34=522|49=hudfix2|52=20180711-14:38:52.677|56=XBRV|98=0|108=30|10=119|
FIX.4.4:hudfix2->XBRV
8=FIX.4.4|9=68|35=A|34=523|49=hudfix2|52=20180711-14:39:03.674|56=XBRV|98=0|108=30|10=114|
FIX.4.4:hudfix2->XBRV
8=FIX.4.4|9=68|35=A|34=524|49=hudfix2|52=20180711-14:39:17.673|56=XBRV|98=0|108=30|10=119|
FIX.4.4:hudfix2->XBRV
8=FIX.4.4|9=68|35=A|34=525|49=hudfix2|52=20180711-14:39:30.677|56=XBRV|98=0|108=30|10=119|
FIX.4.4:hudfix2->XBRV
8=FIX.4.4|9=68|35=A|34=526|49=hudfix2|52=20180711-14:39:42.684|56=XBRV|98=0|108=30|10=121|
FIX.4.4:hudfix2->XBRV
8=FIX.4.4|9=68|35=A|34=527|49=hudfix2|52=20180711-14:39:52.688|56=XBRV|98=0|108=30|10=127|
FIX.4.4:hudfix2->XBRV
8=FIX.4.4|9=68|35=A|34=528|49=hudfix2|52=20180711-14:40:04.686|56=XBRV|98=0|108=30|10=115|
FIX.4.4:hudfix2->XBRV
8=FIX.4.4|9=68|35=A|34=529|49=hudfix2|52=20180711-14:40:14.689|56=XBRV|98=0|108=30|10=120|
FIX.4.4:hudfix2->XBRV
8=FIX.4.4|9=68|35=A|34=530|49=hudfix2|52=20180711-14:40:26.691|56=XBRV|98=0|108=30|10=108|
FIX.4.4:hudfix2->XBRV
8=FIX.4.4|9=68|35=A|34=531|49=hudfix2|52=20180711-14:40:37.695|56=XBRV|98=0|108=30|10=115|
FIX.4.4:hudfix2->XBRV
8=FIX.4.4|9=68|35=A|34=532|49=hudfix2|52=20180711-14:40:48.694|56=XBRV|98=0|108=30|10=117|
FIX.4.4:hudfix2->XBRV
8=FIX.4.4|9=68|35=A|34=533|49=hudfix2|52=20180711-14:40:59.698|56=XBRV|98=0|108=30|10=124|
FIX.4.4:hudfix2->XBRV
8=FIX.4.4|9=68|35=A|34=534|49=hudfix2|52=20180711-14:41:12.699|56=XBRV|98=0|108=30|10=116|
FIX.4.4:hudfix2->XBRV
8=FIX.4.4|9=68|35=A|34=535|49=hudfix2|52=20180711-14:41:23.703|56=XBRV|98=0|108=30|10=105|
FIX.4.4:hudfix2->XBRV
8=FIX.4.4|9=68|35=A|34=536|49=hudfix2|52=20180711-14:41:37.708|56=XBRV|98=0|108=30|10=116|
FIX.4.4:hudfix2->XBRV
8=FIX.4.4|9=68|35=A|34=537|49=hudfix2|52=20180711-14:41:48.713|56=XBRV|98=0|108=30|10=115|
FIX.4.4:hudfix2->XBRV
8=FIX.4.4|9=68|35=A|34=538|49=hudfix2|52=20180711-14:41:59.712|56=XBRV|98=0|108=30|10=117|
FIX.4.4:hudfix2->XBRV
8=FIX.4.4|9=68|35=A|34=539|49=hudfix2|52=20180711-14:42:12.716|56=XBRV|98=0|108=30|10=112|
FIX.4.4:hudfix2->XBRV
8=FIX.4.4|9=68|35=A|34=540|49=hudfix2|52=20180711-14:42:26.724|56=XBRV|98=0|108=30|10=108|
FIX.4.4:hudfix2->XBRV
8=FIX.4.4|9=68|35=A|34=541|49=hudfix2|52=20180711-14:42:38.842|56=XBRV|98=0|108=30|10=113|
FIX.4.4:hudfix2->XBRV
8=FIX.4.4|9=68|35=A|34=542|49=hudfix2|52=20180711-14:42:51.848|56=XBRV|98=0|108=30|10=115|
FIX.4.4:hudfix2->XBRV
8=FIX.4.4|9=68|35=A|34=543|49=hudfix2|52=20180711-14:43:02.844|56=XBRV|98=0|108=30|10=109|
FIX.4.4:hudfix2->XBRV
8=FIX.4.4|9=68|35=A|34=544|49=hudfix2|52=20180711-14:43:12.848|56=XBRV|98=0|108=30|10=115|
FIX.4.4:hudfix2->XBRV
8=FIX.4.4|9=68|35=A|34=545|49=hudfix2|52=20180711-14:43:24.854|56=XBRV|98=0|108=30|10=116|
FIX.4.4:hudfix2->XBRV
8=FIX.4.4|9=68|35=A|34=546|49=hudfix2|52=20180711-14:43:34.856|56=XBRV|98=0|108=30|10=120|
FIX.4.4:hudfix2->XBRV
8=FIX.4.4|9=68|35=A|34=547|49=hudfix2|52=20180711-14:43:49.855|56=XBRV|98=0|108=30|10=126|
FIX.4.4:hudfix2->XBRV
8=FIX.4.4|9=68|35=A|34=548|49=hudfix2|52=20180711-14:44:02.862|56=XBRV|98=0|108=30|10=115|
FIX.4.4:hudfix2->XBRV
8=FIX.4.4|9=68|35=A|34=549|49=hudfix2|52=20180711-14:44:13.868|56=XBRV|98=0|108=30|10=124|
FIX.4.4:hudfix2->XBRV
8=FIX.4.4|9=68|35=A|34=550|49=hudfix2|52=20180711-14:44:24.872|56=XBRV|98=0|108=30|10=113|
FIX.4.4:hudfix2->XBRV
8=FIX.4.4|9=68|35=A|34=551|49=hudfix2|52=20180711-14:44:37.248|56=XBRV|98=0|108=30|10=115|
FIX.4.4:hudfix2->XBRV
8=FIX.4.4|9=68|35=A|34=552|49=hudfix2|52=20180711-14:44:48.246|56=XBRV|98=0|108=30|10=116|
FIX.4.4:hudfix2->XBRV
8=FIX.4.4|9=68|35=A|34=553|49=hudfix2|52=20180711-14:44:59.252|56=XBRV|98=0|108=30|10=116|
FIX.4.4:hudfix2->XBRV
8=FIX.4.4|9=68|35=A|34=554|49=hudfix2|52=20180711-14:45:09.256|56=XBRV|98=0|108=30|10=117|
FIX.4.4:hudfix2->XBRV
8=FIX.4.4|9=68|35=A|34=555|49=hudfix2|52=20180711-14:45:21.263|56=XBRV|98=0|108=30|10=110|
FIX.4.4:hudfix2->XBRV
8=FIX.4.4|9=68|35=A|34=556|49=hudfix2|52=20180711-14:45:31.267|56=XBRV|98=0|108=30|10=116|
FIX.4.4:hudfix2->XBRV
8=FIX.4.4|9=68|35=A|34=557|49=hudfix2|52=20180711-14:45:43.272|56=XBRV|98=0|108=30|10=116|
FIX.4.4:hudfix2->XBRV
8=FIX.4.4|9=68|35=A|34=558|49=hudfix2|52=20180711-14:45:54.272|56=XBRV|98=0|108=30|10=119|
FIX.4.4:hudfix2->XBRV
8=FIX.4.4|9=68|35=A|34=559|49=hudfix2|52=20180711-14:46:04.276|56=XBRV|98=0|108=30|10=120|
FIX.4.4:hudfix2->XBRV
8=FIX.4.4|9=68|35=A|34=560|49=hudfix2|52=20180711-14:46:16.439|56=XBRV|98=0|108=30|10=116|
FIX.4.4:hudfix2->XBRV
8=FIX.4.4|9=68|35=A|34=561|49=hudfix2|52=20180711-14:46:27.443|56=XBRV|98=0|108=30|10=114|
FIX.4.4:hudfix2->XBRV
8=FIX.4.4|9=68|35=A|34=562|49=hudfix2|52=20180711-14:46:37.447|56=XBRV|98=0|108=30|10=120|
FIX.4.4:hudfix2->XBRV
8=FIX.4.4|9=68|35=A|34=563|49=hudfix2|52=20180711-14:46:48.452|56=XBRV|98=0|108=30|10=119|
FIX.4.4:hudfix2->XBRV
8=FIX.4.4|9=68|35=A|34=564|49=hudfix2|52=20180711-14:46:59.457|56=XBRV|98=0|108=30|10=127|
FIX.4.4:hudfix2->XBRV
8=FIX.4.4|9=68|35=A|34=565|49=hudfix2|52=20180711-14:47:10.461|56=XBRV|98=0|108=30|10=111|
FIX.4.4:hudfix2->XBRV
8=FIX.4.4|9=68|35=A|34=566|49=hudfix2|52=20180711-14:47:20.465|56=XBRV|98=0|108=30|10=117|
FIX.4.4:hudfix2->XBRV
8=FIX.4.4|9=68|35=A|34=567|49=hudfix2|52=20180711-14:47:32.463|56=XBRV|98=0|108=30|10=119|
FIX.4.4:hudfix2->XBRV
8=FIX.4.4|9=68|35=A|34=568|49=hudfix2|52=20180711-14:47:44.463|56=XBRV|98=0|108=30|10=123|
FIX.4.4:hudfix2->XBRV
8=FIX.4.4|9=68|35=A|34=569|49=hudfix2|52=20180711-14:47:58.469|56=XBRV|98=0|108=30|10=135|
FIX.4.4:hudfix2->XBRV
8=FIX.4.4|9=68|35=A|34=570|49=hudfix2|52=20180711-14:48:09.468|56=XBRV|98=0|108=30|10=123|
FIX.4.4:hudfix2->XBRV
8=FIX.4.4|9=68|35=A|34=571|49=hudfix2|52=20180711-14:48:20.473|56=XBRV|98=0|108=30|10=113|
FIX.4.4:hudfix2->XBRV
8=FIX.4.4|9=68|35=A|34=572|49=hudfix2|52=20180711-14:48:33.470|56=XBRV|98=0|108=30|10=115|
FIX.4.4:hudfix2->XBRV
8=FIX.4.4|9=68|35=A|34=573|49=hudfix2|52=20180711-14:48:43.476|56=XBRV|98=0|108=30|10=123|
FIX.4.4:hudfix2->XBRV
8=FIX.4.4|9=68|35=A|34=574|49=hudfix2|52=20180711-14:48:58.475|56=XBRV|98=0|108=30|10=129|
FIX.4.4:hudfix2->XBRV
8=FIX.4.4|9=68|35=A|34=575|49=hudfix2|52=20180711-14:49:11.478|56=XBRV|98=0|108=30|10=123|
FIX.4.4:hudfix2->XBRV
8=FIX.4.4|9=68|35=A|34=576|49=hudfix2|52=20180711-14:49:23.484|56=XBRV|98=0|108=30|10=124|
FIX.4.4:hudfix2->XBRV
8=FIX.4.4|9=68|35=A|34=577|49=hudfix2|52=20180711-14:49:33.486|56=XBRV|98=0|108=30|10=128|
FIX.4.4:hudfix2->XBRV
8=FIX.4.4|9=68|35=A|34=578|49=hudfix2|52=20180711-14:49:47.491|56=XBRV|98=0|108=30|10=130|
FIX.4.4:hudfix2->XBRV
8=FIX.4.4|9=68|35=A|34=579|49=hudfix2|52=20180711-14:49:59.492|56=XBRV|98=0|108=30|10=135|
FIX.4.4:hudfix2->XBRV
8=FIX.4.4|9=68|35=A|34=580|49=hudfix2|52=20180711-14:50:10.497|56=XBRV|98=0|108=30|10=111|
FIX.4.4:hudfix2->XBRV
8=FIX.4.4|9=68|35=A|34=581|49=hudfix2|52=20180711-14:50:23.495|56=XBRV|98=0|108=30|10=114|
FIX.4.4:hudfix2->XBRV
8=FIX.4.4|9=68|35=A|34=582|49=hudfix2|52=20180711-14:50:34.499|56=XBRV|98=0|108=30|10=121|
FIX.4.4:hudfix2->XBRV
8=FIX.4.4|9=68|35=A|34=583|49=hudfix2|52=20180711-14:50:48.547|56=XBRV|98=0|108=30|10=121|
FIX.4.4:hudfix2->XBRV
8=FIX.4.4|9=68|35=A|34=584|49=hudfix2|52=20180711-14:50:59.553|56=XBRV|98=0|108=30|10=121|
FIX.4.4:hudfix2->XBRV
8=FIX.4.4|9=68|35=A|34=585|49=hudfix2|52=20180711-14:51:12.552|56=XBRV|98=0|108=30|10=111|
FIX.4.4:hudfix2->XBRV
8=FIX.4.4|9=68|35=A|34=586|49=hudfix2|52=20180711-14:51:23.556|56=XBRV|98=0|108=30|10=118|
FIX.4.4:hudfix2->XBRV
8=FIX.4.4|9=68|35=A|34=587|49=hudfix2|52=20180711-14:51:34.560|56=XBRV|98=0|108=30|10=116|
FIX.4.4:hudfix2->XBRV
8=FIX.4.4|9=68|35=A|34=588|49=hudfix2|52=20180711-14:51:45.564|56=XBRV|98=0|108=30|10=123|
FIX.4.4:hudfix2->XBRV
8=FIX.4.4|9=68|35=A|34=589|49=hudfix2|52=20180711-14:51:59.570|56=XBRV|98=0|108=30|10=126|
FIX.4.4:hudfix2->XBRV
8=FIX.4.4|9=68|35=A|34=590|49=hudfix2|52=20180711-14:52:13.570|56=XBRV|98=0|108=30|10=109|
FIX.4.4:hudfix2->XBRV
8=FIX.4.4|9=68|35=A|34=591|49=hudfix2|52=20180711-14:52:24.576|56=XBRV|98=0|108=30|10=118|
FIX.4.4:hudfix2->XBRV
8=FIX.4.4|9=68|35=A|34=592|49=hudfix2|52=20180711-14:52:35.580|56=XBRV|98=0|108=30|10=116|
FIX.4.4:hudfix2->XBRV
8=FIX.4.4|9=68|35=A|34=593|49=hudfix2|52=20180711-14:52:46.586|56=XBRV|98=0|108=30|10=125|
FIX.4.4:hudfix2->XBRV
8=FIX.4.4|9=68|35=A|34=594|49=hudfix2|52=20180711-14:52:57.584|56=XBRV|98=0|108=30|10=126|
FIX.4.4:hudfix2->XBRV
8=FIX.4.4|9=68|35=A|34=595|49=hudfix2|52=20180711-14:53:07.586|56=XBRV|98=0|108=30|10=125|
FIX.4.4:hudfix2->XBRV
8=FIX.4.4|9=68|35=A|34=596|49=hudfix2|52=20180711-14:53:17.587|56=XBRV|98=0|108=30|10=128|
FIX.4.4:hudfix2->XBRV
8=FIX.4.4|9=68|35=A|34=597|49=hudfix2|52=20180711-14:53:30.591|56=XBRV|98=0|108=30|10=119|
FIX.4.4:hudfix2->XBRV
8=FIX.4.4|9=68|35=A|34=598|49=hudfix2|52=20180711-14:53:44.596|56=XBRV|98=0|108=30|10=130|
FIX.4.4:hudfix2->XBRV
8=FIX.4.4|9=68|35=A|34=599|49=hudfix2|52=20180711-14:53:54.599|56=XBRV|98=0|108=30|10=135|
FIX.4.4:hudfix2->XBRV
8=FIX.4.4|9=68|35=A|34=600|49=hudfix2|52=20180711-14:54:08.603|56=XBRV|98=0|108=30|10=104|
FIX.4.4:hudfix2->XBRV
8=FIX.4.4|9=68|35=A|34=601|49=hudfix2|52=20180711-14:54:20.638|56=XBRV|98=0|108=30|10=107|
FIX.4.4:hudfix2->XBRV
8=FIX.4.4|9=68|35=A|34=602|49=hudfix2|52=20180711-14:54:30.642|56=XBRV|98=0|108=30|10=104|
FIX.4.4:hudfix2->XBRV
8=FIX.4.4|9=68|35=A|34=603|49=hudfix2|52=20180711-14:54:42.641|56=XBRV|98=0|108=30|10=107|
FIX.4.4:hudfix2->XBRV
8=FIX.4.4|9=68|35=A|34=604|49=hudfix2|52=20180711-14:54:52.644|56=XBRV|98=0|108=30|10=112|
FIX.4.4:hudfix2->XBRV
8=FIX.4.4|9=68|35=A|34=605|49=hudfix2|52=20180711-14:55:04.641|56=XBRV|98=0|108=30|10=108|
FIX.4.4:hudfix2->XBRV
8=FIX.4.4|9=68|35=A|34=606|49=hudfix2|52=20180711-14:55:14.644|56=XBRV|98=0|108=30|10=113|
FIX.4.4:hudfix2->XBRV
8=FIX.4.4|9=68|35=A|34=607|49=hudfix2|52=20180711-14:55:24.645|56=XBRV|98=0|108=30|10=116|
FIX.4.4:hudfix2->XBRV
8=FIX.4.4|9=68|35=A|34=608|49=hudfix2|52=20180711-14:55:34.646|56=XBRV|98=0|108=30|10=119|
FIX.4.4:hudfix2->XBRV
8=FIX.4.4|9=68|35=A|34=609|49=hudfix2|52=20180711-14:55:45.650|56=XBRV|98=0|108=30|10=117|
FIX.4.4:hudfix2->XBRV
8=FIX.4.4|9=68|35=A|34=610|49=hudfix2|52=20180711-14:55:58.829|56=XBRV|98=0|108=30|10=121|
FIX.4.4:hudfix2->XBRV
8=FIX.4.4|9=68|35=A|34=611|49=hudfix2|52=20180711-14:56:09.833|56=XBRV|98=0|108=30|10=114|
FIX.4.4:hudfix2->XBRV
8=FIX.4.4|9=68|35=A|34=612|49=hudfix2|52=20180711-14:56:23.840|56=XBRV|98=0|108=30|10=109|
FIX.4.4:hudfix2->XBRV
8=FIX.4.4|9=68|35=A|34=613|49=hudfix2|52=20180711-14:56:35.838|56=XBRV|98=0|108=30|10=120|
FIX.4.4:hudfix2->XBRV
8=FIX.4.4|9=68|35=A|34=614|49=hudfix2|52=20180711-14:56:46.843|56=XBRV|98=0|108=30|10=119|
FIX.4.4:hudfix2->XBRV
8=FIX.4.4|9=68|35=A|34=615|49=hudfix2|52=20180711-14:56:57.840|56=XBRV|98=0|108=30|10=119|
FIX.4.4:hudfix2->XBRV
8=FIX.4.4|9=68|35=A|34=616|49=hudfix2|52=20180711-14:57:11.847|56=XBRV|98=0|108=30|10=118|
FIX.4.4:hudfix2->XBRV
8=FIX.4.4|9=68|35=A|34=617|49=hudfix2|52=20180711-14:57:24.845|56=XBRV|98=0|108=30|10=121|
FIX.4.4:hudfix2->XBRV
8=FIX.4.4|9=68|35=A|34=618|49=hudfix2|52=20180711-14:57:34.847|56=XBRV|98=0|108=30|10=125|
FIX.4.4:hudfix2->XBRV
8=FIX.4.4|9=68|35=A|34=619|49=hudfix2|52=20180711-14:57:46.853|56=XBRV|98=0|108=30|10=126|
FIX.4.4:hudfix2->XBRV
8=FIX.4.4|9=68|35=A|34=620|49=hudfix2|52=20180711-14:57:56.858|56=XBRV|98=0|108=30|10=124|
FIX.4.4:hudfix2->XBRV
8=FIX.4.4|9=68|35=A|34=621|49=hudfix2|52=20180711-14:58:06.864|56=XBRV|98=0|108=30|10=118|
FIX.4.4:hudfix2->XBRV
8=FIX.4.4|9=68|35=A|34=622|49=hudfix2|52=20180711-14:58:19.869|56=XBRV|98=0|108=30|10=128|
FIX.4.4:hudfix2->XBRV
8=FIX.4.4|9=68|35=A|34=623|49=hudfix2|52=20180711-14:58:32.866|56=XBRV|98=0|108=30|10=121|
FIX.4.4:hudfix2->XBRV
8=FIX.4.4|9=68|35=A|34=624|49=hudfix2|52=20180711-14:58:42.870|56=XBRV|98=0|108=30|10=118|
FIX.4.4:hudfix2->XBRV
8=FIX.4.4|9=68|35=A|34=625|49=hudfix2|52=20180711-14:58:52.870|56=XBRV|98=0|108=30|10=120|
FIX.4.4:hudfix2->XBRV
8=FIX.4.4|9=68|35=A|34=626|49=hudfix2|52=20180711-14:59:05.875|56=XBRV|98=0|108=30|10=125|
FIX.4.4:hudfix2->XBRV
8=FIX.4.4|9=68|35=A|34=627|49=hudfix2|52=20180711-14:59:19.883|56=XBRV|98=0|108=30|10=130|
FIX.4.4:hudfix2->XBRV
8=FIX.4.4|9=68|35=A|34=628|49=hudfix2|52=20180711-14:59:33.894|56=XBRV|98=0|108=30|10=129|
FIX.4.4:hudfix2->XBRV
8=FIX.4.4|9=68|35=A|34=629|49=hudfix2|52=20180711-14:59:44.899|56=XBRV|98=0|108=30|10=137|
FIX.4.4:hudfix2->XBRV
8=FIX.4.4|9=68|35=A|34=630|49=hudfix2|52=20180711-14:59:55.934|56=XBRV|98=0|108=30|10=121|
FIX.4.4:hudfix2->XBRV
8=FIX.4.4|9=68|35=A|34=631|49=hudfix2|52=20180711-15:00:06.940|56=XBRV|98=0|108=30|10=102|
FIX.4.4:hudfix2->XBRV
8=FIX.4.4|9=68|35=A|34=632|49=hudfix2|52=20180711-15:00:18.940|56=XBRV|98=0|108=30|10=106|
FIX.4.4:hudfix2->XBRV
8=FIX.4.4|9=68|35=A|34=633|49=hudfix2|52=20180711-15:00:31.945|56=XBRV|98=0|108=30|10=107|
FIX.4.4:hudfix2->XBRV
8=FIX.4.4|9=68|35=A|34=634|49=hudfix2|52=20180711-15:00:44.947|56=XBRV|98=0|108=30|10=114|
FIX.4.4:hudfix2->XBRV
8=FIX.4.4|9=68|35=A|34=635|49=hudfix2|52=20180711-15:00:55.951|56=XBRV|98=0|108=30|10=112|
FIX.4.4:hudfix2->XBRV
8=FIX.4.4|9=68|35=A|34=636|49=hudfix2|52=20180711-15:01:07.956|56=XBRV|98=0|108=30|10=116|
FIX.4.4:hudfix2->XBRV
8=FIX.4.4|9=68|35=A|34=637|49=hudfix2|52=20180711-15:01:17.959|56=XBRV|98=0|108=30|10=121|
FIX.4.4:hudfix2->XBRV
8=FIX.4.4|9=68|35=A|34=638|49=hudfix2|52=20180711-15:01:31.964|56=XBRV|98=0|108=30|10=114|
FIX.4.4:hudfix2->XBRV
8=FIX.4.4|9=68|35=A|34=639|49=hudfix2|52=20180711-15:01:43.970|56=XBRV|98=0|108=30|10=115|
FIX.4.4:hudfix2->XBRV
8=FIX.4.4|9=68|35=A|34=640|49=hudfix2|52=20180711-15:01:56.976|56=XBRV|98=0|108=30|10=117|
FIX.4.4:hudfix2->XBRV
8=FIX.4.4|9=68|35=A|34=641|49=hudfix2|52=20180711-15:02:10.974|56=XBRV|98=0|108=30|10=107|
FIX.4.4:hudfix2->XBRV
8=FIX.4.4|9=68|35=A|34=642|49=hudfix2|52=20180711-15:02:20.980|56=XBRV|98=0|108=30|10=106|
FIX.4.4:hudfix2->XBRV
8=FIX.4.4|9=68|35=A|34=643|49=hudfix2|52=20180711-15:02:35.041|56=XBRV|98=0|108=30|10=101|
FIX.4.4:hudfix2->XBRV
8=FIX.4.4|9=68|35=A|34=644|49=hudfix2|52=20180711-15:02:46.045|56=XBRV|98=0|108=30|10=108|
FIX.4.4:hudfix2->XBRV
8=FIX.4.4|9=68|35=A|34=645|49=hudfix2|52=20180711-15:02:58.052|56=XBRV|98=0|108=30|10=110|
FIX.4.4:hudfix2->XBRV
8=FIX.4.4|9=68|35=A|34=646|49=hudfix2|52=20180711-15:03:08.054|56=XBRV|98=0|108=30|10=109|
FIX.4.4:hudfix2->XBRV
8=FIX.4.4|9=68|35=A|34=647|49=hudfix2|52=20180711-15:03:19.059|56=XBRV|98=0|108=30|10=117|
FIX.4.4:hudfix2->XBRV
8=FIX.4.4|9=68|35=A|34=648|49=hudfix2|52=20180711-15:03:30.063|56=XBRV|98=0|108=30|10=106|
FIX.4.4:hudfix2->XBRV
8=FIX.4.4|9=68|35=A|34=649|49=hudfix2|52=20180711-15:03:42.069|56=XBRV|98=0|108=30|10=116|
FIX.4.4:hudfix2->XBRV
8=FIX.4.4|9=68|35=A|34=650|49=hudfix2|52=20180711-15:03:53.068|56=XBRV|98=0|108=30|10=109|
FIX.4.4:hudfix2->XBRV
8=FIX.4.4|9=68|35=A|34=651|49=hudfix2|52=20180711-15:04:06.072|56=XBRV|98=0|108=30|10=104|
FIX.4.4:hudfix2->XBRV
8=FIX.4.4|9=68|35=A|34=652|49=hudfix2|52=20180711-15:04:18.079|56=XBRV|98=0|108=30|10=115|
FIX.4.4:hudfix2->XBRV
8=FIX.4.4|9=68|35=A|34=653|49=hudfix2|52=20180711-15:04:28.081|56=XBRV|98=0|108=30|10=110|
FIX.4.4:hudfix2->XBRV
8=FIX.4.4|9=68|35=A|34=654|49=hudfix2|52=20180711-15:04:42.082|56=XBRV|98=0|108=30|10=108|
FIX.4.4:hudfix2->XBRV
8=FIX.4.4|9=68|35=A|34=655|49=hudfix2|52=20180711-15:04:55.089|56=XBRV|98=0|108=30|10=120|
FIX.4.4:hudfix2->XBRV
8=FIX.4.4|9=68|35=A|34=656|49=hudfix2|52=20180711-15:05:09.094|56=XBRV|98=0|108=30|10=117|
FIX.4.4:hudfix2->XBRV
8=FIX.4.4|9=68|35=A|34=657|49=hudfix2|52=20180711-15:05:20.099|56=XBRV|98=0|108=30|10=116|
FIX.4.4:hudfix2->XBRV
8=FIX.4.4|9=68|35=A|34=658|49=hudfix2|52=20180711-15:05:30.104|56=XBRV|98=0|108=30|10=105|
FIX.4.4:hudfix2->XBRV
8=FIX.4.4|9=68|35=A|34=659|49=hudfix2|52=20180711-15:05:40.109|56=XBRV|98=0|108=30|10=112|
FIX.4.4:hudfix2->XBRV
8=FIX.4.4|9=68|35=A|34=660|49=hudfix2|52=20180711-15:05:52.115|56=XBRV|98=0|108=30|10=104|
FIX.4.4:hudfix2->XBRV
8=FIX.4.4|9=68|35=A|34=661|49=hudfix2|52=20180711-15:06:05.120|56=XBRV|98=0|108=30|10=100|
FIX.4.4:hudfix2->XBRV
8=FIX.4.4|9=68|35=A|34=662|49=hudfix2|52=20180711-15:06:15.126|56=XBRV|98=0|108=30|10=108|
FIX.4.4:hudfix2->XBRV
8=FIX.4.4|9=68|35=A|34=663|49=hudfix2|52=20180711-15:06:25.129|56=XBRV|98=0|108=30|10=113|
FIX.4.4:hudfix2->XBRV
8=FIX.4.4|9=68|35=A|34=664|49=hudfix2|52=20180711-15:06:36.128|56=XBRV|98=0|108=30|10=115|
FIX.4.4:hudfix2->XBRV
8=FIX.4.4|9=68|35=A|34=665|49=hudfix2|52=20180711-15:06:46.132|56=XBRV|98=0|108=30|10=112|
FIX.4.4:hudfix2->XBRV
8=FIX.4.4|9=68|35=A|34=666|49=hudfix2|52=20180711-15:06:58.138|56=XBRV|98=0|108=30|10=122|
FIX.4.4:hudfix2->XBRV
8=FIX.4.4|9=68|35=A|34=667|49=hudfix2|52=20180711-15:07:11.143|56=XBRV|98=0|108=30|10=109|
FIX.4.4:hudfix2->XBRV
8=FIX.4.4|9=68|35=A|34=668|49=hudfix2|52=20180711-15:07:23.149|56=XBRV|98=0|108=30|10=119|
FIX.4.4:hudfix2->XBRV
8=FIX.4.4|9=68|35=A|34=669|49=hudfix2|52=20180711-15:07:33.153|56=XBRV|98=0|108=30|10=116|
FIX.4.4:hudfix2->XBRV
8=FIX.4.4|9=68|35=A|34=670|49=hudfix2|52=20180711-15:07:47.160|56=XBRV|98=0|108=30|10=111|
FIX.4.4:hudfix2->XBRV
8=FIX.4.4|9=68|35=A|34=671|49=hudfix2|52=20180711-15:07:59.165|56=XBRV|98=0|108=30|10=120|
FIX.4.4:hudfix2->XBRV
8=FIX.4.4|9=68|35=A|34=672|49=hudfix2|52=20180711-15:08:10.172|56=XBRV|98=0|108=30|10=107|
FIX.4.4:hudfix2->XBRV
8=FIX.4.4|9=68|35=A|34=673|49=hudfix2|52=20180711-15:08:23.169|56=XBRV|98=0|108=30|10=118|
FIX.4.4:hudfix2->XBRV
8=FIX.4.4|9=68|35=A|34=674|49=hudfix2|52=20180711-15:08:33.174|56=XBRV|98=0|108=30|10=116|
FIX.4.4:hudfix2->XBRV
8=FIX.4.4|9=68|35=A|34=675|49=hudfix2|52=20180711-15:08:46.174|56=XBRV|98=0|108=30|10=121|
FIX.4.4:hudfix2->XBRV
8=FIX.4.4|9=68|35=A|34=676|49=hudfix2|52=20180711-15:08:56.176|56=XBRV|98=0|108=30|10=125|
FIX.4.4:hudfix2->XBRV
8=FIX.4.4|9=68|35=A|34=677|49=hudfix2|52=20180711-15:09:07.177|56=XBRV|98=0|108=30|10=124|
FIX.4.4:hudfix2->XBRV
8=FIX.4.4|9=68|35=A|34=678|49=hudfix2|52=20180711-15:09:20.181|56=XBRV|98=0|108=30|10=115|
FIX.4.4:hudfix2->XBRV
8=FIX.4.4|9=68|35=A|34=679|49=hudfix2|52=20180711-15:09:32.182|56=XBRV|98=0|108=30|10=120|
FIX.4.4:hudfix2->XBRV
8=FIX.4.4|9=68|35=A|34=680|49=hudfix2|52=20180711-15:09:42.183|56=XBRV|98=0|108=30|10=114|
FIX.4.4:hudfix2->XBRV
8=FIX.4.4|9=68|35=A|34=681|49=hudfix2|52=20180711-15:09:54.184|56=XBRV|98=0|108=30|10=119|
FIX.4.4:hudfix2->XBRV
8=FIX.4.4|9=68|35=A|34=682|49=hudfix2|52=20180711-15:10:05.189|56=XBRV|98=0|108=30|10=113|
FIX.4.4:hudfix2->XBRV
8=FIX.4.4|9=68|35=A|34=683|49=hudfix2|52=20180711-15:10:18.186|56=XBRV|98=0|108=30|10=115|
FIX.4.4:hudfix2->XBRV
8=FIX.4.4|9=68|35=A|34=684|49=hudfix2|52=20180711-15:10:29.192|56=XBRV|98=0|108=30|10=115|
FIX.4.4:hudfix2->XBRV
8=FIX.4.4|9=68|35=A|34=685|49=hudfix2|52=20180711-15:10:43.199|56=XBRV|98=0|108=30|10=119|
FIX.4.4:hudfix2->XBRV
8=FIX.4.4|9=68|35=A|34=686|49=hudfix2|52=20180711-15:10:55.204|56=XBRV|98=0|108=30|10=110|
FIX.4.4:hudfix2->XBRV
8=FIX.4.4|9=68|35=A|34=687|49=hudfix2|52=20180711-15:11:05.207|56=XBRV|98=0|108=30|10=110|
FIX.4.4:hudfix2->XBRV
8=FIX.4.4|9=68|35=A|34=688|49=hudfix2|52=20180711-15:11:17.214|56=XBRV|98=0|108=30|10=112|
FIX.4.4:hudfix2->XBRV
8=FIX.4.4|9=68|35=A|34=689|49=hudfix2|52=20180711-15:11:28.219|56=XBRV|98=0|108=30|10=120|
FIX.4.4:hudfix2->XBRV
8=FIX.4.4|9=68|35=A|34=690|49=hudfix2|52=20180711-15:11:41.217|56=XBRV|98=0|108=30|10=105|
FIX.4.4:hudfix2->XBRV
8=FIX.4.4|9=68|35=A|34=691|49=hudfix2|52=20180711-15:11:54.220|56=XBRV|98=0|108=30|10=104|
FIX.4.4:hudfix2->XBRV
8=FIX.4.4|9=68|35=A|34=692|49=hudfix2|52=20180711-15:12:04.246|56=XBRV|98=0|108=30|10=109|
