8=FIX.4.4|9=66|35=A|34=1|49=hudfix2|52=20180814-15:05:22.277|56=XBRV|98=0|108=30|10=005|8=FIX.4.4|9=66|35=A|34=2|49=hudfix2|52=20180814-15:05:25.996|56=XBRV|98=0|108=30|10=017|8=FIX.4.4|9=66|35=A|34=3|49=hudfix2|52=20180814-15:05:37.244|56=XBRV|98=0|108=30|10=007|8=FIX.4.4|9=66|35=A|34=4|49=hudfix2|52=20180814-15:05:40.996|56=XBRV|98=0|108=30|10=016|8=FIX.4.4|9=66|35=A|34=5|49=hudfix2|52=20180814-15:05:51.996|56=XBRV|98=0|108=30|10=019|8=FIX.4.4|9=66|35=A|34=6|49=hudfix2|52=20180814-15:06:02.997|56=XBRV|98=0|108=30|10=018|8=FIX.4.4|9=66|35=A|34=7|49=hudfix2|52=20180814-15:06:03.996|56=XBRV|98=0|108=30|10=019|8=FIX.4.4|9=66|35=A|34=8|49=hudfix2|52=20180814-15:06:14.996|56=XBRV|98=0|108=30|10=022|8=FIX.4.4|9=66|35=A|34=9|49=hudfix2|52=20180814-15:06:15.998|56=XBRV|98=0|108=30|10=026|8=FIX.4.4|9=67|35=A|34=10|49=hudfix2|52=20180814-15:06:27.996|56=XBRV|98=0|108=30|10=068|8=FIX.4.4|9=67|35=A|34=11|49=hudfix2|52=20180814-15:06:29.996|56=XBRV|98=0|108=30|10=071|8=FIX.4.4|9=67|35=A|34=12|49=hudfix2|52=20180814-15:06:40.996|56=XBRV|98=0|108=30|10=065|8=FIX.4.4|9=67|35=A|34=13|49=hudfix2|52=20180814-15:06:42.996|56=XBRV|98=0|108=30|10=068|8=FIX.4.4|9=67|35=A|34=14|49=hudfix2|52=20180814-15:06:53.996|56=XBRV|98=0|108=30|10=071|8=FIX.4.4|9=67|35=A|34=15|49=hudfix2|52=20180814-15:07:04.996|56=XBRV|98=0|108=30|10=069|8=FIX.4.4|9=67|35=A|34=16|49=hudfix2|52=20180814-15:07:05.996|56=XBRV|98=0|108=30|10=071|8=FIX.4.4|9=67|35=A|34=17|49=hudfix2|52=20180814-15:07:16.996|56=XBRV|98=0|108=30|10=074|8=FIX.4.4|9=67|35=A|34=18|49=hudfix2|52=20180814-15:07:17.997|56=XBRV|98=0|108=30|10=077|8=FIX.4.4|9=67|35=A|34=19|49=hudfix2|52=20180814-15:07:29.996|56=XBRV|98=0|108=30|10=080|8=FIX.4.4|9=67|35=A|34=20|49=hudfix2|52=20180814-15:07:30.997|56=XBRV|98=0|108=30|10=065|8=FIX.4.4|9=67|35=A|34=21|49=hudfix2|52=20180814-15:07:42.996|56=XBRV|98=0|108=30|10=068|8=FIX.4.4|9=64|35=2|34=22|49=hudfix2|52=20180814-15:07:43.883|56=XBRV|7=1|16=0|10=145|8=FIX.4.4|9=85|35=x|34=23|49=hudfix2|52=20180814-15:07:43.986|56=XBRV|320=2018.08.14.15.07.43|559=4|10=254|8=FIX.4.4|9=100|35=j|34=24|49=hudfix2|52=20180814-15:07:44.749|56=XBRV|45=1|58=Unsupported Message Type|372=B|380=3|10=116|8=FIX.4.4|9=100|35=j|34=25|49=hudfix2|52=20180814-15:07:44.752|56=XBRV|45=2|58=Unsupported Message Type|372=B|380=3|10=112|8=FIX.4.4|9=67|35=A|34=26|49=hudfix2|52=20180814-15:07:58.997|56=XBRV|98=0|108=30|10=081|8=FIX.4.4|9=85|35=x|34=27|49=hudfix2|52=20180814-15:07:59.654|56=XBRV|320=2018.08.14.15.07.59|559=4|10=008|8=FIX.4.4|9=67|35=A|34=28|49=hudfix2|52=20180814-15:08:14.996|56=XBRV|98=0|108=30|10=075|8=FIX.4.4|9=65|35=2|34=29|49=hudfix2|52=20180814-15:08:15.817|56=XBRV|7=29|16=0|10=208|8=FIX.4.4|9=85|35=x|34=30|49=hudfix2|52=20180814-15:08:15.821|56=XBRV|320=2018.08.14.15.08.15|559=4|10=240|8=FIX.4.4|9=67|35=A|34=31|49=hudfix2|52=20180814-15:08:30.998|56=XBRV|98=0|108=30|10=069|8=FIX.4.4|9=85|35=x|34=32|49=hudfix2|52=20180814-15:08:31.400|56=XBRV|320=2018.08.14.15.08.31|559=4|10=231|8=FIX.4.4|9=67|35=A|34=33|49=hudfix2|52=20180814-15:08:46.996|56=XBRV|98=0|108=30|10=076|8=FIX.4.4|9=65|35=2|34=34|49=hudfix2|52=20180814-15:08:48.790|56=XBRV|7=38|16=0|10=210|8=FIX.4.4|9=85|35=x|34=35|49=hudfix2|52=20180814-15:08:48.794|56=XBRV|320=2018.08.14.15.08.48|559=4|10=010|8=FIX.4.4|9=67|35=A|34=36|49=hudfix2|52=20180814-15:10:03.365|56=XBRV|98=0|108=30|10=055|8=FIX.4.4|9=85|35=x|34=37|49=hudfix2|52=20180814-15:10:05.434|56=XBRV|320=2018.08.14.15.10.05|559=4|10=231|8=FIX.4.4|9=55|35=0|34=38|49=hudfix2|52=20180814-15:10:37.345|56=XBRV|10=017|8=FIX.4.4|9=64|35=1|34=39|49=hudfix2|52=20180814-15:10:52.342|56=XBRV|112=TEST|10=031|8=FIX.4.4|9=67|35=A|34=40|49=hudfix2|52=20180814-15:11:20.343|56=XBRV|98=0|108=30|10=046|8=FIX.4.4|9=67|35=A|34=41|49=hudfix2|52=20180814-15:11:32.344|56=XBRV|98=0|108=30|10=051|8=FIX.4.4|9=67|35=A|34=42|49=hudfix2|52=20180814-15:11:44.342|56=XBRV|98=0|108=30|10=053|8=FIX.4.4|9=67|35=A|34=43|49=hudfix2|52=20180814-15:11:45.342|56=XBRV|98=0|108=30|10=055|8=FIX.4.4|9=65|35=2|34=44|49=hudfix2|52=20180814-15:11:47.331|56=XBRV|7=47|16=0|10=195|8=FIX.4.4|9=85|35=x|34=45|49=hudfix2|52=20180814-15:11:47.335|56=XBRV|320=2018.08.14.15.11.47|559=4|10=244|8=FIX.4.4|9=67|35=A|34=46|49=hudfix2|52=20180814-15:12:02.344|56=XBRV|98=0|108=30|10=054|8=FIX.4.4|9=65|35=2|34=47|49=hudfix2|52=20180814-15:12:03.137|56=XBRV|7=48|16=0|10=196|8=FIX.4.4|9=85|35=x|34=48|49=hudfix2|52=20180814-15:12:03.140|56=XBRV|320=2018.08.14.15.12.03|559=4|10=227|8=FIX.4.4|9=67|35=A|34=49|49=hudfix2|52=20180814-15:12:18.343|56=XBRV|98=0|108=30|10=063|8=FIX.4.4|9=65|35=2|34=50|49=hudfix2|52=20180814-15:12:19.024|56=XBRV|7=56|16=0|10=191|8=FIX.4.4|9=85|35=x|34=51|49=hudfix2|52=20180814-15:12:19.028|56=XBRV|320=2018.08.14.15.12.19|559=4|10=240|8=FIX.4.4|9=67|35=A|34=52|49=hudfix2|52=20180814-15:12:34.344|56=XBRV|98=0|108=30|10=056|8=FIX.4.4|9=65|35=2|34=53|49=hudfix2|52=20180814-15:12:35.090|56=XBRV|7=61|16=0|10=191|8=FIX.4.4|9=85|35=x|34=54|49=hudfix2|52=20180814-15:12:35.094|56=XBRV|320=2018.08.14.15.12.35|559=4|10=242|8=FIX.4.4|9=67|35=A|34=55|49=hudfix2|52=20180814-15:12:50.343|56=XBRV|98=0|108=30|10=056|8=FIX.4.4|9=65|35=2|34=56|49=hudfix2|52=20180814-15:12:50.967|56=XBRV|7=65|16=0|10=208|8=FIX.4.4|9=85|35=x|34=57|49=hudfix2|52=20180814-15:12:50.970|56=XBRV|320=2018.08.14.15.12.50|559=4|10=242|8=FIX.4.4|9=67|35=A|34=58|49=hudfix2|52=20180814-15:13:06.342|56=XBRV|98=0|108=30|10=060|8=FIX.4.4|9=65|35=2|34=59|49=hudfix2|52=20180814-15:13:07.117|56=XBRV|7=70|16=0|10=197|8=FIX.4.4|9=85|35=x|34=60|49=hudfix2|52=20180814-15:13:07.120|56=XBRV|320=2018.08.14.15.13.07|559=4|10=229|8=FIX.4.4|9=67|35=A|34=61|49=hudfix2|52=20180814-15:13:22.344|56=XBRV|98=0|108=30|10=054|8=FIX.4.4|9=65|35=2|34=62|49=hudfix2|52=20180814-15:13:23.057|56=XBRV|7=76|16=0|10=198|8=FIX.4.4|9=85|35=x|34=63|49=hudfix2|52=20180814-15:13:23.061|56=XBRV|320=2018.08.14.15.13.23|559=4|10=232|8=FIX.4.4|9=67|35=A|34=64|49=hudfix2|52=20180814-15:13:38.342|56=XBRV|98=0|108=30|10=062|8=FIX.4.4|9=65|35=2|34=65|49=hudfix2|52=20180814-15:13:38.975|56=XBRV|7=80|16=0|10=211|8=FIX.4.4|9=85|35=x|34=66|49=hudfix2|52=20180814-15:13:38.978|56=XBRV|320=2018.08.14.15.13.38|559=4|10=008|8=FIX.4.4|9=67|35=A|34=67|49=hudfix2|52=20180814-15:13:54.343|56=XBRV|98=0|108=30|10=064|8=FIX.4.4|9=65|35=2|34=68|49=hudfix2|52=20180814-15:13:54.736|56=XBRV|7=87|16=0|10=214|8=FIX.4.4|9=85|35=x|34=69|49=hudfix2|52=20180814-15:13:54.740|56=XBRV|320=2018.08.14.15.13.54|559=4|10=250|8=FIX.4.4|9=67|35=A|34=70|49=hudfix2|52=20180814-15:14:10.342|56=XBRV|98=0|108=30|10=050|8=FIX.4.4|9=65|35=2|34=71|49=hudfix2|52=20180814-15:14:11.021|56=XBRV|7=90|16=0|10=183|8=FIX.4.4|9=85|35=x|34=72|49=hudfix2|52=20180814-15:14:11.025|56=XBRV|320=2018.08.14.15.14.11|559=4|10=228|8=FIX.4.4|9=67|35=A|34=73|49=hudfix2|52=20180814-15:14:26.343|56=XBRV|98=0|108=30|10=061|8=FIX.4.4|9=65|35=2|34=74|49=hudfix2|52=20180814-15:14:27.072|56=XBRV|7=97|16=0|10=206|8=FIX.4.4|9=85|35=x|34=75|49=hudfix2|52=20180814-15:14:27.076|56=XBRV|320=2018.08.14.15.14.27|559=4|10=251|8=FIX.4.4|9=67|35=A|34=76|49=hudfix2|52=20180814-15:14:42.342|56=XBRV|98=0|108=30|10=061|8=FIX.4.4|9=85|35=x|34=77|49=hudfix2|52=20180814-15:14:42.992|56=XBRV|320=2018.08.14.15.14.42|559=4|10=254|8=FIX.4.4|9=67|35=A|34=78|49=hudfix2|52=20180814-15:14:58.343|56=XBRV|98=0|108=30|10=071|8=FIX.4.4|9=85|35=x|34=79|49=hudfix2|52=20180814-15:14:59.150|56=XBRV|320=2018.08.14.15.14.59|559=4|10=002|8=FIX.4.4|9=67|35=A|34=80|49=hudfix2|52=20180814-15:15:14.342|56=XBRV|98=0|108=30|10=056|8=FIX.4.4|9=85|35=x|34=81|49=hudfix2|52=20180814-15:15:15.130|56=XBRV|320=2018.08.14.15.15.15|559=4|10=235|8=FIX.4.4|9=67|35=A|34=82|49=hudfix2|52=20180814-15:15:30.343|56=XBRV|98=0|108=30|10=057|8=FIX.4.4|9=85|35=x|34=83|49=hudfix2|52=20180814-15:15:31.087|56=XBRV|320=2018.08.14.15.15.31|559=4|10=244|8=FIX.4.4|9=67|35=A|34=84|49=hudfix2|52=20180814-15:15:46.342|56=XBRV|98=0|108=30|10=065|8=FIX.4.4|9=85|35=x|34=85|49=hudfix2|52=20180814-15:15:47.408|56=XBRV|320=2018.08.14.15.15.47|559=4|10=001|8=FIX.4.4|9=67|35=A|34=86|49=hudfix2|52=20180814-15:17:16.728|56=XBRV|98=0|108=30|10=074|8=FIX.4.4|9=85|35=x|34=87|49=hudfix2|52=20180814-15:17:19.064|56=XBRV|320=2018.08.14.15.17.19|559=4|10=003|8=FIX.4.4|9=55|35=0|34=88|49=hudfix2|52=20180814-15:17:50.344|56=XBRV|10=023|8=FIX.4.4|9=64|35=1|34=89|49=hudfix2|52=20180814-15:18:06.342|56=XBRV|112=TEST|10=043|8=FIX.4.4|9=67|35=A|34=90|49=hudfix2|52=20180814-15:18:36.871|56=XBRV|98=0|108=30|10=071|8=FIX.4.4|9=67|35=A|34=91|49=hudfix2|52=20180814-15:18:48.343|56=XBRV|98=0|108=30|10=069|8=FIX.4.4|9=67|35=A|34=92|49=hudfix2|52=20180814-15:18:59.343|56=XBRV|98=0|108=30|10=072|8=FIX.4.4|9=67|35=A|34=93|49=hudfix2|52=20180814-15:19:11.370|56=XBRV|98=0|108=30|10=062|8=FIX.4.4|9=67|35=A|34=94|49=hudfix2|52=20180814-15:19:24.489|56=XBRV|98=0|108=30|10=078|8=FIX.4.4|9=67|35=A|34=95|49=hudfix2|52=20180814-15:19:36.356|56=XBRV|98=0|108=30|10=075|8=FIX.4.4|9=67|35=A|34=96|49=hudfix2|52=20180814-15:19:48.342|56=XBRV|98=0|108=30|10=074|8=FIX.4.4|9=67|35=A|34=97|49=hudfix2|52=20180814-15:19:59.488|56=XBRV|98=0|108=30|10=088|8=FIX.4.4|9=67|35=A|34=98|49=hudfix2|52=20180814-15:20:11.343|56=XBRV|98=0|108=30|10=059|8=FIX.4.4|9=67|35=A|34=99|49=hudfix2|52=20180814-15:20:23.344|56=XBRV|98=0|108=30|10=064|8=FIX.4.4|9=68|35=A|34=100|49=hudfix2|52=20180814-15:20:35.343|56=XBRV|98=0|108=30|10=098|8=FIX.4.4|9=68|35=A|34=101|49=hudfix2|52=20180814-15:20:46.348|56=XBRV|98=0|108=30|10=106|8=FIX.4.4|9=68|35=A|34=102|49=hudfix2|52=20180814-15:20:58.342|56=XBRV|98=0|108=30|10=104|8=FIX.4.4|9=68|35=A|34=103|49=hudfix2|52=20180814-15:21:09.343|56=XBRV|98=0|108=30|10=103|8=FIX.4.4|9=68|35=A|34=104|49=hudfix2|52=20180814-15:21:20.346|56=XBRV|98=0|108=30|10=100|8=FIX.4.4|9=68|35=A|34=105|49=hudfix2|52=20180814-15:21:31.594|56=XBRV|98=0|108=30|10=108|8=FIX.4.4|9=68|35=A|34=106|49=hudfix2|52=20180814-15:21:42.387|56=XBRV|98=0|108=30|10=111|8=FIX.4.4|9=68|35=A|34=107|49=hudfix2|52=20180814-15:21:54.343|56=XBRV|98=0|108=30|10=107|8=FIX.4.4|9=68|35=A|34=108|49=hudfix2|52=20180814-15:22:05.342|56=XBRV|98=0|108=30|10=104|8=FIX.4.4|9=68|35=A|34=109|49=hudfix2|52=20180814-15:22:16.689|56=XBRV|98=0|108=30|10=121|8=FIX.4.4|9=68|35=A|34=110|49=hudfix2|52=20180814-15:22:28.342|56=XBRV|98=0|108=30|10=102|8=FIX.4.4|9=68|35=A|34=111|49=hudfix2|52=20180814-15:22:39.343|56=XBRV|98=0|108=30|10=106|8=FIX.4.4|9=68|35=A|34=112|49=hudfix2|52=20180814-15:22:50.350|56=XBRV|98=0|108=30|10=098|8=FIX.4.4|9=68|35=A|34=113|49=hudfix2|52=20180814-15:23:02.968|56=XBRV|98=0|108=30|10=112|8=FIX.4.4|9=68|35=A|34=114|49=hudfix2|52=20180814-15:23:14.343|56=XBRV|98=0|108=30|10=103|8=FIX.4.4|9=68|35=A|34=115|49=hudfix2|52=20180814-15:23:25.343|56=XBRV|98=0|108=30|10=106|8=FIX.4.4|9=68|35=A|34=116|49=hudfix2|52=20180814-15:23:37.343|56=XBRV|98=0|108=30|10=110|8=FIX.4.4|9=68|35=A|34=117|49=hudfix2|52=20180814-15:23:48.343|56=XBRV|98=0|108=30|10=113|8=FIX.4.4|9=68|35=A|34=118|49=hudfix2|52=20180814-15:23:59.343|56=XBRV|98=0|108=30|10=116|8=FIX.4.4|9=68|35=A|34=119|49=hudfix2|52=20180814-15:24:10.343|56=XBRV|98=0|108=30|10=105|8=FIX.4.4|9=68|35=A|34=120|49=hudfix2|52=20180814-15:24:22.384|56=XBRV|98=0|108=30|10=105|8=FIX.4.4|9=68|35=A|34=121|49=hudfix2|52=20180814-15:24:34.344|56=XBRV|98=0|108=30|10=105|8=FIX.4.4|9=68|35=A|34=122|49=hudfix2|52=20180814-15:24:45.351|56=XBRV|98=0|108=30|10=106|8=FIX.4.4|9=68|35=A|34=123|49=hudfix2|52=20180814-15:24:57.343|56=XBRV|98=0|108=30|10=111|8=FIX.4.4|9=68|35=A|34=124|49=hudfix2|52=20180814-15:25:08.344|56=XBRV|98=0|108=30|10=110|8=FIX.4.4|9=68|35=A|34=125|49=hudfix2|52=20180814-15:25:19.343|56=XBRV|98=0|108=30|10=112|8=FIX.4.4|9=68|35=A|34=126|49=hudfix2|52=20180814-15:25:31.354|56=XBRV|98=0|108=30|10=109|8=FIX.4.4|9=68|35=A|34=127|49=hudfix2|52=20180814-15:25:43.459|56=XBRV|98=0|108=30|10=119|8=FIX.4.4|9=68|35=A|34=128|49=hudfix2|52=20180814-15:25:54.344|56=XBRV|98=0|108=30|10=115|8=FIX.4.4|9=68|35=A|34=129|49=hudfix2|52=20180814-15:26:05.344|56=XBRV|98=0|108=30|10=113|8=FIX.4.4|9=68|35=A|34=130|49=hudfix2|52=20180814-15:26:17.344|56=XBRV|98=0|108=30|10=108|8=FIX.4.4|9=68|35=A|34=131|49=hudfix2|52=20180814-15:26:29.344|56=XBRV|98=0|108=30|10=112|8=FIX.4.4|9=68|35=A|34=132|49=hudfix2|52=20180814-15:26:41.342|56=XBRV|98=0|108=30|10=105|8=FIX.4.4|9=68|35=A|34=133|49=hudfix2|52=20180814-15:26:54.620|56=XBRV|98=0|108=30|10=109|8=FIX.4.4|9=68|35=A|34=134|49=hudfix2|52=20180814-15:27:05.342|56=XBRV|98=0|108=30|10=108|8=FIX.4.4|9=68|35=A|34=135|49=hudfix2|52=20180814-15:27:16.496|56=XBRV|98=0|108=30|10=121|8=FIX.4.4|9=68|35=A|34=136|49=hudfix2|52=20180814-15:27:28.343|56=XBRV|98=0|108=30|10=116|8=FIX.4.4|9=68|35=A|34=137|49=hudfix2|52=20180814-15:27:39.353|56=XBRV|98=0|108=30|10=120|8=FIX.4.4|9=68|35=A|34=138|49=hudfix2|52=20180814-15:27:51.344|56=XBRV|98=0|108=30|10=115|8=FIX.4.4|9=68|35=A|34=139|49=hudfix2|52=20180814-15:28:02.805|56=XBRV|98=0|108=30|10=115|8=FIX.4.4|9=68|35=A|34=140|49=hudfix2|52=20180814-15:28:14.344|56=XBRV|98=0|108=30|10=108|8=FIX.4.4|9=68|35=A|34=141|49=hudfix2|52=20180814-15:28:26.343|56=XBRV|98=0|108=30|10=111|8=FIX.4.4|9=68|35=A|34=142|49=hudfix2|52=20180814-15:28:37.347|56=XBRV|98=0|108=30|10=118|8=FIX.4.4|9=68|35=A|34=143|49=hudfix2|52=20180814-15:28:49.343|56=XBRV|98=0|108=30|10=118|8=FIX.4.4|9=68|35=A|34=144|49=hudfix2|52=20180814-15:29:01.344|56=XBRV|98=0|108=30|10=109|8=FIX.4.4|9=68|35=A|34=145|49=hudfix2|52=20180814-15:29:13.342|56=XBRV|98=0|108=30|10=111|8=FIX.4.4|9=68|35=A|34=146|49=hudfix2|52=20180814-15:29:24.342|56=XBRV|98=0|108=30|10=114|8=FIX.4.4|9=68|35=A|34=147|49=hudfix2|52=20180814-15:29:35.343|56=XBRV|98=0|108=30|10=118|8=FIX.4.4|9=68|35=A|34=148|49=hudfix2|52=20180814-15:29:46.356|56=XBRV|98=0|108=30|10=125|8=FIX.4.4|9=68|35=A|34=149|49=hudfix2|52=20180814-15:29:58.347|56=XBRV|98=0|108=30|10=129|8=FIX.4.4|9=68|35=A|34=150|49=hudfix2|52=20180814-15:30:10.344|56=XBRV|98=0|108=30|10=098|8=FIX.4.4|9=68|35=A|34=151|49=hudfix2|52=20180814-15:30:27.701|56=XBRV|98=0|108=30|10=104|8=FIX.4.4|9=68|35=A|34=152|49=hudfix2|52=20180814-15:30:39.343|56=XBRV|98=0|108=30|10=110|8=FIX.4.4|9=68|35=A|34=153|49=hudfix2|52=20180814-15:30:50.343|56=XBRV|98=0|108=30|10=104|8=FIX.4.4|9=68|35=A|34=154|49=hudfix2|52=20180814-15:31:01.344|56=XBRV|98=0|108=30|10=103|8=FIX.4.4|9=68|35=A|34=155|49=hudfix2|52=20180814-15:31:13.342|56=XBRV|98=0|108=30|10=105|8=FIX.4.4|9=68|35=A|34=156|49=hudfix2|52=20180814-15:31:24.343|56=XBRV|98=0|108=30|10=109|8=FIX.4.4|9=68|35=A|34=157|49=hudfix2|52=20180814-15:31:35.343|56=XBRV|98=0|108=30|10=112|8=FIX.4.4|9=68|35=A|34=158|49=hudfix2|52=20180814-15:31:46.343|56=XBRV|98=0|108=30|10=115|8=FIX.4.4|9=68|35=A|34=159|49=hudfix2|52=20180814-15:31:57.342|56=XBRV|98=0|108=30|10=117|8=FIX.4.4|9=68|35=A|34=160|49=hudfix2|52=20180814-15:32:08.365|56=XBRV|98=0|108=30|10=111|8=FIX.4.4|9=68|35=A|34=161|49=hudfix2|52=20180814-15:32:21.834|56=XBRV|98=0|108=30|10=108|8=FIX.4.4|9=68|35=A|34=162|49=hudfix2|52=20180814-15:32:33.527|56=XBRV|98=0|108=30|10=111|8=FIX.4.4|9=68|35=A|34=163|49=hudfix2|52=20180814-15:32:44.344|56=XBRV|98=0|108=30|10=111|8=FIX.4.4|9=68|35=A|34=164|49=hudfix2|52=20180814-15:32:56.342|56=XBRV|98=0|108=30|10=113|8=FIX.4.4|9=68|35=A|34=165|49=hudfix2|52=20180814-15:33:07.343|56=XBRV|98=0|108=30|10=112|8=FIX.4.4|9=68|35=A|34=166|49=hudfix2|52=20180814-15:33:18.343|56=XBRV|98=0|108=30|10=115|8=FIX.4.4|9=68|35=A|34=167|49=hudfix2|52=20180814-15:33:30.343|56=XBRV|98=0|108=30|10=110|8=FIX.4.4|9=68|35=A|34=168|49=hudfix2|52=20180814-15:33:41.342|56=XBRV|98=0|108=30|10=112|8=FIX.4.4|9=68|35=A|34=169|49=hudfix2|52=20180814-15:33:52.342|56=XBRV|98=0|108=30|10=115|8=FIX.4.4|9=68|35=A|34=170|49=hudfix2|52=20180814-15:34:03.343|56=XBRV|98=0|108=30|10=105|8=FIX.4.4|9=68|35=A|34=171|49=hudfix2|52=20180814-15:34:14.344|56=XBRV|98=0|108=30|10=109|8=FIX.4.4|9=68|35=A|34=172|49=hudfix2|52=20180814-15:34:26.493|56=XBRV|98=0|108=30|10=118|8=FIX.4.4|9=68|35=A|34=173|49=hudfix2|52=20180814-15:34:38.370|56=XBRV|98=0|108=30|10=116|8=FIX.4.4|9=68|35=A|34=174|49=hudfix2|52=20180814-15:34:50.365|56=XBRV|98=0|108=30|10=115|8=FIX.4.4|9=68|35=A|34=175|49=hudfix2|52=20180814-15:35:01.371|56=XBRV|98=0|108=30|10=110|8=FIX.4.4|9=68|35=A|34=176|49=hudfix2|52=20180814-15:35:13.351|56=XBRV|98=0|108=30|10=112|8=FIX.4.4|9=68|35=A|34=177|49=hudfix2|52=20180814-15:35:24.350|56=XBRV|98=0|108=30|10=114|8=FIX.4.4|9=68|35=A|34=178|49=hudfix2|52=20180814-15:35:34.721|56=XBRV|98=0|108=30|10=118|8=FIX.4.4|9=68|35=A|34=179|49=hudfix2|52=20180814-15:35:47.068|56=XBRV|98=0|108=30|10=127|8=FIX.4.4|9=68|35=A|34=180|49=hudfix2|52=20180814-15:35:58.345|56=XBRV|98=0|108=30|10=119|8=FIX.4.4|9=68|35=A|34=181|49=hudfix2|52=20180814-15:36:10.342|56=XBRV|98=0|108=30|10=106|8=FIX.4.4|9=68|35=A|34=182|49=hudfix2|52=20180814-15:36:21.362|56=XBRV|98=0|108=30|10=111|8=FIX.4.4|9=68|35=A|34=183|49=hudfix2|52=20180814-15:36:32.351|56=XBRV|98=0|108=30|10=112|8=FIX.4.4|9=68|35=A|34=184|49=hudfix2|52=20180814-15:36:43.361|56=XBRV|98=0|108=30|10=116|8=FIX.4.4|9=68|35=A|34=100|49=hudfix2|52=20180814-16:47:00.098|56=XBRV|98=0|108=30|10=107|8=FIX.4.4|9=86|35=x|34=101|49=hudfix2|52=20180814-16:47:05.516|56=XBRV|320=2018.08.14.16.47.05|559=4|10=039|8=FIX.4.4|9=56|35=0|34=102|49=hudfix2|52=20180814-16:47:38.056|56=XBRV|10=069|