8=FIX.4.4|9=67|35=A|34=36|49=hudfix2|52=20180814-15:10:03.365|56=XBRV|98=0|108=30|10=055|
8=FIX.4.4|9=67|35=A|49=XBRV|56=hudfix2|34=44|52=20180814-15:08:55.501|98=0|108=30|10=060|
8=FIX.4.4|9=85|35=x|34=37|49=hudfix2|52=20180814-15:10:05.434|56=XBRV|320=2018.08.14.15.10.05|559=4|10=231|
8=FIX.4.4|9=65|35=2|49=XBRV|56=hudfix2|34=45|52=20180814-15:08:55.501|7=31|16=0|10=193|
8=FIX.4.4|9=98|35=4|34=31|43=Y|49=hudfix2|52=20180814-15:10:06.232|56=XBRV|122=20180814-15:10:06.232|36=32|123=Y|10=065|
8=FIX.4.4|9=116|35=x|34=32|43=Y|49=hudfix2|52=20180814-15:10:06.229|56=XBRV|122=20180814-15:08:31.400|320=2018.08.14.15.08.31|559=4|10=020|
8=FIX.4.4|9=98|35=4|34=33|43=Y|49=hudfix2|52=20180814-15:10:06.239|56=XBRV|122=20180814-15:10:06.239|36=35|123=Y|10=084|
8=FIX.4.4|9=116|35=x|34=35|43=Y|49=hudfix2|52=20180814-15:10:06.238|56=XBRV|122=20180814-15:08:48.794|320=2018.08.14.15.08.48|559=4|10=055|
8=FIX.4.4|9=98|35=4|34=36|43=Y|49=hudfix2|52=20180814-15:10:06.246|56=XBRV|122=20180814-15:10:06.245|36=37|123=Y|10=084|
8=FIX.4.4|9=116|35=x|34=37|43=Y|49=hudfix2|52=20180814-15:10:06.244|56=XBRV|122=20180814-15:10:05.434|320=2018.08.14.15.10.05|559=4|10=017|
8=FIX.4.4|9=65|35=2|49=XBRV|56=hudfix2|34=46|52=20180814-15:08:56.234|7=31|16=0|10=198|
8=FIX.4.4|9=98|35=4|34=31|43=Y|49=hudfix2|52=20180814-15:10:07.026|56=XBRV|122=20180814-15:10:07.026|36=32|123=Y|10=069|
8=FIX.4.4|9=116|35=x|34=32|43=Y|49=hudfix2|52=20180814-15:10:07.024|56=XBRV|122=20180814-15:08:31.400|320=2018.08.14.15.08.31|559=4|10=014|
8=FIX.4.4|9=98|35=4|34=33|43=Y|49=hudfix2|52=20180814-15:10:07.032|56=XBRV|122=20180814-15:10:07.032|36=35|123=Y|10=068|
8=FIX.4.4|9=116|35=x|34=35|43=Y|49=hudfix2|52=20180814-15:10:07.030|56=XBRV|122=20180814-15:08:48.794|320=2018.08.14.15.08.48|559=4|10=046|
8=FIX.4.4|9=98|35=4|34=36|43=Y|49=hudfix2|52=20180814-15:10:07.041|56=XBRV|122=20180814-15:10:07.041|36=37|123=Y|10=073|
8=FIX.4.4|9=116|35=x|34=37|43=Y|49=hudfix2|52=20180814-15:10:07.039|56=XBRV|122=20180814-15:10:05.434|320=2018.08.14.15.10.05|559=4|10=020|
8=FIX.4.4|9=55|35=0|34=38|49=hudfix2|52=20180814-15:10:37.345|56=XBRV|10=017|
8=FIX.4.4|9=64|35=1|34=39|49=hudfix2|52=20180814-15:10:52.342|56=XBRV|112=TEST|10=031|
8=FIX.4.4|9=67|35=A|34=40|49=hudfix2|52=20180814-15:11:20.343|56=XBRV|98=0|108=30|10=046|
8=FIX.4.4|9=67|35=A|34=41|49=hudfix2|52=20180814-15:11:32.344|56=XBRV|98=0|108=30|10=051|
8=FIX.4.4|9=67|35=A|34=42|49=hudfix2|52=20180814-15:11:44.342|56=XBRV|98=0|108=30|10=053|
8=FIX.4.4|9=67|35=A|34=43|49=hudfix2|52=20180814-15:11:45.342|56=XBRV|98=0|108=30|10=055|
8=FIX.4.4|9=67|35=A|49=XBRV|56=hudfix2|34=48|52=20180814-15:10:37.385|98=0|108=30|10=067|
8=FIX.4.4|9=65|35=2|34=44|49=hudfix2|52=20180814-15:11:47.331|56=XBRV|7=47|16=0|10=195|
8=FIX.4.4|9=85|35=x|34=45|49=hudfix2|52=20180814-15:11:47.335|56=XBRV|320=2018.08.14.15.11.47|559=4|10=244|
8=FIX.4.4|9=65|35=2|49=XBRV|56=hudfix2|34=49|52=20180814-15:10:37.385|7=33|16=0|10=202|
8=FIX.4.4|9=98|35=4|34=33|43=Y|49=hudfix2|52=20180814-15:11:48.061|56=XBRV|122=20180814-15:11:48.061|36=35|123=Y|10=084|
8=FIX.4.4|9=116|35=x|34=35|43=Y|49=hudfix2|52=20180814-15:11:48.059|56=XBRV|122=20180814-15:08:48.794|320=2018.08.14.15.08.48|559=4|10=063|
8=FIX.4.4|9=98|35=4|34=36|43=Y|49=hudfix2|52=20180814-15:11:48.065|56=XBRV|122=20180814-15:11:48.065|36=37|123=Y|10=097|
8=FIX.4.4|9=116|35=x|34=37|43=Y|49=hudfix2|52=20180814-15:11:48.064|56=XBRV|122=20180814-15:10:05.434|320=2018.08.14.15.10.05|559=4|10=024|
8=FIX.4.4|9=98|35=4|34=38|43=Y|49=hudfix2|52=20180814-15:11:48.070|56=XBRV|122=20180814-15:11:48.070|36=45|123=Y|10=090|
8=FIX.4.4|9=116|35=x|34=45|43=Y|49=hudfix2|52=20180814-15:11:48.069|56=XBRV|122=20180814-15:11:47.335|320=2018.08.14.15.11.47|559=4|10=042|
8=FIX.4.4|9=168|35=3|49=XBRV|56=hudfix2|34=47|43=Y|52=20180814-15:10:38.134|122=20180814-15:08:57.046|45=32|372=x|373=10|58=Sending time is inaccurate (difference: -00:01:09.1828680).|10=215|
8=FIX.4.4|9=67|35=A|34=46|49=hudfix2|52=20180814-15:12:02.344|56=XBRV|98=0|108=30|10=054|
8=FIX.4.4|9=67|35=A|49=XBRV|56=hudfix2|34=53|52=20180814-15:10:53.515|98=0|108=30|10=056|
8=FIX.4.4|9=65|35=2|34=47|49=hudfix2|52=20180814-15:12:03.137|56=XBRV|7=48|16=0|10=196|
8=FIX.4.4|9=85|35=x|34=48|49=hudfix2|52=20180814-15:12:03.140|56=XBRV|320=2018.08.14.15.12.03|559=4|10=227|
8=FIX.4.4|9=65|35=2|49=XBRV|56=hudfix2|34=54|52=20180814-15:10:53.515|7=36|16=0|10=194|
8=FIX.4.4|9=98|35=4|34=36|43=Y|49=hudfix2|52=20180814-15:12:03.631|56=XBRV|122=20180814-15:12:03.631|36=37|123=Y|10=079|
8=FIX.4.4|9=116|35=x|34=37|43=Y|49=hudfix2|52=20180814-15:12:03.629|56=XBRV|122=20180814-15:10:05.434|320=2018.08.14.15.10.05|559=4|10=023|
8=FIX.4.4|9=98|35=4|34=38|43=Y|49=hudfix2|52=20180814-15:12:03.634|56=XBRV|122=20180814-15:12:03.634|36=45|123=Y|10=086|
8=FIX.4.4|9=116|35=x|34=45|43=Y|49=hudfix2|52=20180814-15:12:03.633|56=XBRV|122=20180814-15:11:47.335|320=2018.08.14.15.11.47|559=4|10=031|
8=FIX.4.4|9=98|35=4|34=46|43=Y|49=hudfix2|52=20180814-15:12:03.638|56=XBRV|122=20180814-15:12:03.638|36=48|123=Y|10=096|
8=FIX.4.4|9=116|35=x|34=48|43=Y|49=hudfix2|52=20180814-15:12:03.637|56=XBRV|122=20180814-15:12:03.140|320=2018.08.14.15.12.03|559=4|10=018|
8=FIX.4.4|9=72|35=4|49=XBRV|56=hudfix2|34=48|43=Y|52=20180814-15:10:53.952|123=Y|36=52|10=080|
8=FIX.4.4|9=168|35=3|49=XBRV|56=hudfix2|34=52|43=Y|52=20180814-15:10:53.952|122=20180814-15:10:38.883|45=35|372=x|373=10|58=Sending time is inaccurate (difference: -00:01:09.1758891).|10=226|
8=FIX.4.4|9=72|35=4|49=XBRV|56=hudfix2|34=53|43=Y|52=20180814-15:10:53.952|123=Y|36=55|10=079|
8=FIX.4.4|9=65|35=2|49=XBRV|56=hudfix2|34=55|52=20180814-15:10:53.952|7=36|16=0|10=200|
8=FIX.4.4|9=65|35=2|49=XBRV|56=hudfix2|34=56|52=20180814-15:10:53.952|7=36|16=0|10=201|
8=FIX.4.4|9=137|35=3|49=XBRV|56=hudfix2|34=57|52=20180814-15:10:54.451|45=37|372=x|373=10|58=Sending time is inaccurate (difference: -00:01:09.1770617).|10=201|
8=FIX.4.4|9=98|35=4|34=36|43=Y|49=hudfix2|52=20180814-15:12:04.336|56=XBRV|122=20180814-15:12:04.336|36=37|123=Y|10=085|
8=FIX.4.4|9=116|35=x|34=37|43=Y|49=hudfix2|52=20180814-15:12:04.335|56=XBRV|122=20180814-15:10:05.434|320=2018.08.14.15.10.05|559=4|10=018|
8=FIX.4.4|9=98|35=4|34=38|43=Y|49=hudfix2|52=20180814-15:12:04.340|56=XBRV|122=20180814-15:12:04.340|36=45|123=Y|10=076|
8=FIX.4.4|9=116|35=x|34=45|43=Y|49=hudfix2|52=20180814-15:12:04.339|56=XBRV|122=20180814-15:11:47.335|320=2018.08.14.15.11.47|559=4|10=035|
8=FIX.4.4|9=98|35=4|34=46|43=Y|49=hudfix2|52=20180814-15:12:04.345|56=XBRV|122=20180814-15:12:04.344|36=48|123=Y|10=087|
8=FIX.4.4|9=116|35=x|34=48|43=Y|49=hudfix2|52=20180814-15:12:04.343|56=XBRV|122=20180814-15:12:03.140|320=2018.08.14.15.12.03|559=4|10=013|
8=FIX.4.4|9=67|35=A|34=49|49=hudfix2|52=20180814-15:12:18.343|56=XBRV|98=0|108=30|10=063|
8=FIX.4.4|9=67|35=A|49=XBRV|56=hudfix2|34=58|52=20180814-15:11:09.193|98=0|108=30|10=065|
8=FIX.4.4|9=65|35=2|34=50|49=hudfix2|52=20180814-15:12:19.024|56=XBRV|7=56|16=0|10=191|
8=FIX.4.4|9=85|35=x|34=51|49=hudfix2|52=20180814-15:12:19.028|56=XBRV|320=2018.08.14.15.12.19|559=4|10=240|
8=FIX.4.4|9=65|35=2|49=XBRV|56=hudfix2|34=59|52=20180814-15:11:09.193|7=38|16=0|10=205|
8=FIX.4.4|9=98|35=4|34=38|43=Y|49=hudfix2|52=20180814-15:12:19.685|56=XBRV|122=20180814-15:12:19.685|36=45|123=Y|10=112|
8=FIX.4.4|9=116|35=x|34=45|43=Y|49=hudfix2|52=20180814-15:12:19.684|56=XBRV|122=20180814-15:11:47.335|320=2018.08.14.15.11.47|559=4|10=044|
8=FIX.4.4|9=98|35=4|34=46|43=Y|49=hudfix2|52=20180814-15:12:19.689|56=XBRV|122=20180814-15:12:19.689|36=48|123=Y|10=122|
8=FIX.4.4|9=116|35=x|34=48|43=Y|49=hudfix2|52=20180814-15:12:19.687|56=XBRV|122=20180814-15:12:03.140|320=2018.08.14.15.12.03|559=4|10=030|
8=FIX.4.4|9=98|35=4|34=49|43=Y|49=hudfix2|52=20180814-15:12:19.692|56=XBRV|122=20180814-15:12:19.692|36=51|123=Y|10=107|
8=FIX.4.4|9=116|35=x|34=51|43=Y|49=hudfix2|52=20180814-15:12:19.691|56=XBRV|122=20180814-15:12:19.028|320=2018.08.14.15.12.19|559=4|10=038|
8=FIX.4.4|9=72|35=4|49=XBRV|56=hudfix2|34=56|43=Y|52=20180814-15:11:09.833|123=Y|36=57|10=084|
8=FIX.4.4|9=168|35=3|49=XBRV|56=hudfix2|34=57|43=Y|52=20180814-15:11:09.833|122=20180814-15:10:54.451|45=37|372=x|373=10|58=Sending time is inaccurate (difference: -00:01:09.1770617).|10=212|
8=FIX.4.4|9=72|35=4|49=XBRV|56=hudfix2|34=58|43=Y|52=20180814-15:11:09.833|123=Y|36=60|10=080|
8=FIX.4.4|9=65|35=2|49=XBRV|56=hudfix2|34=60|52=20180814-15:11:09.833|7=38|16=0|10=198|
8=FIX.4.4|9=65|35=2|49=XBRV|56=hudfix2|34=61|52=20180814-15:11:09.833|7=38|16=0|10=199|
8=FIX.4.4|9=98|35=4|34=38|43=Y|49=hudfix2|52=20180814-15:12:20.391|56=XBRV|122=20180814-15:12:20.391|36=45|123=Y|10=084|
8=FIX.4.4|9=116|35=x|34=45|43=Y|49=hudfix2|52=20180814-15:12:20.390|56=XBRV|122=20180814-15:11:47.335|320=2018.08.14.15.11.47|559=4|10=030|
8=FIX.4.4|9=98|35=4|34=46|43=Y|49=hudfix2|52=20180814-15:12:20.398|56=XBRV|122=20180814-15:12:20.398|36=48|123=Y|10=100|
8=FIX.4.4|9=116|35=x|34=48|43=Y|49=hudfix2|52=20180814-15:12:20.397|56=XBRV|122=20180814-15:12:03.140|320=2018.08.14.15.12.03|559=4|10=020|
8=FIX.4.4|9=98|35=4|34=49|43=Y|49=hudfix2|52=20180814-15:12:20.400|56=XBRV|122=20180814-15:12:20.400|36=51|123=Y|10=065|
8=FIX.4.4|9=116|35=x|34=51|43=Y|49=hudfix2|52=20180814-15:12:20.399|56=XBRV|122=20180814-15:12:19.028|320=2018.08.14.15.12.19|559=4|10=035|
8=FIX.4.4|9=67|35=A|34=52|49=hudfix2|52=20180814-15:12:34.344|56=XBRV|98=0|108=30|10=056|
8=FIX.4.4|9=67|35=A|49=XBRV|56=hudfix2|34=63|52=20180814-15:11:25.183|98=0|108=30|10=058|
8=FIX.4.4|9=65|35=2|34=53|49=hudfix2|52=20180814-15:12:35.090|56=XBRV|7=61|16=0|10=191|
8=FIX.4.4|9=85|35=x|34=54|49=hudfix2|52=20180814-15:12:35.094|56=XBRV|320=2018.08.14.15.12.35|559=4|10=242|
8=FIX.4.4|9=65|35=2|49=XBRV|56=hudfix2|34=64|52=20180814-15:11:25.183|7=46|16=0|10=197|
8=FIX.4.4|9=98|35=4|34=46|43=Y|49=hudfix2|52=20180814-15:12:35.650|56=XBRV|122=20180814-15:12:35.650|36=48|123=Y|10=094|
8=FIX.4.4|9=116|35=x|34=48|43=Y|49=hudfix2|52=20180814-15:12:35.648|56=XBRV|122=20180814-15:12:03.140|320=2018.08.14.15.12.03|559=4|10=025|
8=FIX.4.4|9=98|35=4|34=49|43=Y|49=hudfix2|52=20180814-15:12:35.655|56=XBRV|122=20180814-15:12:35.655|36=51|123=Y|10=101|
8=FIX.4.4|9=116|35=x|34=51|43=Y|49=hudfix2|52=20180814-15:12:35.653|56=XBRV|122=20180814-15:12:19.028|320=2018.08.14.15.12.19|559=4|10=034|
8=FIX.4.4|9=98|35=4|34=52|43=Y|49=hudfix2|52=20180814-15:12:35.660|56=XBRV|122=20180814-15:12:35.660|36=54|123=Y|10=090|
8=FIX.4.4|9=116|35=x|34=54|43=Y|49=hudfix2|52=20180814-15:12:35.658|56=XBRV|122=20180814-15:12:35.094|320=2018.08.14.15.12.35|559=4|10=041|
8=FIX.4.4|9=72|35=4|49=XBRV|56=hudfix2|34=61|43=Y|52=20180814-15:11:25.901|123=Y|36=62|10=070|
8=FIX.4.4|9=168|35=3|49=XBRV|56=hudfix2|34=62|43=Y|52=20180814-15:11:25.901|122=20180814-15:11:10.488|45=45|372=x|373=10|58=Sending time is inaccurate (difference: -00:01:09.1952336).|10=204|
8=FIX.4.4|9=72|35=4|49=XBRV|56=hudfix2|34=63|43=Y|52=20180814-15:11:25.901|123=Y|36=65|10=075|
8=FIX.4.4|9=65|35=2|49=XBRV|56=hudfix2|34=65|52=20180814-15:11:25.901|7=46|16=0|10=196|
8=FIX.4.4|9=65|35=2|49=XBRV|56=hudfix2|34=66|52=20180814-15:11:25.901|7=46|16=0|10=197|
8=FIX.4.4|9=137|35=3|49=XBRV|56=hudfix2|34=67|52=20180814-15:11:26.463|45=48|372=x|373=10|58=Sending time is inaccurate (difference: -00:01:09.1848055).|10=209|
8=FIX.4.4|9=67|35=A|34=55|49=hudfix2|52=20180814-15:12:50.343|56=XBRV|98=0|108=30|10=056|
8=FIX.4.4|9=67|35=A|49=XBRV|56=hudfix2|34=68|52=20180814-15:11:41.189|98=0|108=30|10=067|
8=FIX.4.4|9=65|35=2|34=56|49=hudfix2|52=20180814-15:12:50.967|56=XBRV|7=65|16=0|10=208|
8=FIX.4.4|9=85|35=x|34=57|49=hudfix2|52=20180814-15:12:50.970|56=XBRV|320=2018.08.14.15.12.50|559=4|10=242|
8=FIX.4.4|9=65|35=2|49=XBRV|56=hudfix2|34=69|52=20180814-15:11:41.189|7=49|16=0|10=209|
8=FIX.4.4|9=98|35=4|34=49|43=Y|49=hudfix2|52=20180814-15:12:51.667|56=XBRV|122=20180814-15:12:51.667|36=51|123=Y|10=103|
8=FIX.4.4|9=116|35=x|34=51|43=Y|49=hudfix2|52=20180814-15:12:51.666|56=XBRV|122=20180814-15:12:19.028|320=2018.08.14.15.12.19|559=4|10=036|
8=FIX.4.4|9=98|35=4|34=52|43=Y|49=hudfix2|52=20180814-15:12:51.671|56=XBRV|122=20180814-15:12:51.671|36=54|123=Y|10=090|
8=FIX.4.4|9=116|35=x|34=54|43=Y|49=hudfix2|52=20180814-15:12:51.670|56=XBRV|122=20180814-15:12:35.094|320=2018.08.14.15.12.35|559=4|10=033|
8=FIX.4.4|9=98|35=4|34=55|43=Y|49=hudfix2|52=20180814-15:12:51.674|56=XBRV|122=20180814-15:12:51.674|36=57|123=Y|10=102|
8=FIX.4.4|9=116|35=x|34=57|43=Y|49=hudfix2|52=20180814-15:12:51.673|56=XBRV|122=20180814-15:12:50.970|320=2018.08.14.15.12.50|559=4|10=036|
8=FIX.4.4|9=72|35=4|49=XBRV|56=hudfix2|34=65|43=Y|52=20180814-15:11:41.782|123=Y|36=67|10=084|
8=FIX.4.4|9=168|35=3|49=XBRV|56=hudfix2|34=67|43=Y|52=20180814-15:11:41.782|122=20180814-15:11:26.463|45=48|372=x|373=10|58=Sending time is inaccurate (difference: -00:01:09.1848055).|10=219|
8=FIX.4.4|9=72|35=4|49=XBRV|56=hudfix2|34=68|43=Y|52=20180814-15:11:41.782|123=Y|36=70|10=081|
8=FIX.4.4|9=65|35=2|49=XBRV|56=hudfix2|34=70|52=20180814-15:11:41.782|7=49|16=0|10=200|
8=FIX.4.4|9=65|35=2|49=XBRV|56=hudfix2|34=71|52=20180814-15:11:41.782|7=49|16=0|10=201|
8=FIX.4.4|9=137|35=3|49=XBRV|56=hudfix2|34=72|52=20180814-15:11:42.484|45=51|372=x|373=10|58=Sending time is inaccurate (difference: -00:01:09.1815774).|10=202|
8=FIX.4.4|9=67|35=A|34=58|49=hudfix2|52=20180814-15:13:06.342|56=XBRV|98=0|108=30|10=060|
8=FIX.4.4|9=67|35=A|49=XBRV|56=hudfix2|34=73|52=20180814-15:11:57.179|98=0|108=30|10=069|
8=FIX.4.4|9=65|35=2|34=59|49=hudfix2|52=20180814-15:13:07.117|56=XBRV|7=70|16=0|10=197|
8=FIX.4.4|9=85|35=x|34=60|49=hudfix2|52=20180814-15:13:07.120|56=XBRV|320=2018.08.14.15.13.07|559=4|10=229|
8=FIX.4.4|9=65|35=2|49=XBRV|56=hudfix2|34=74|52=20180814-15:11:57.179|7=52|16=0|10=205|
8=FIX.4.4|9=98|35=4|34=52|43=Y|49=hudfix2|52=20180814-15:13:07.781|56=XBRV|122=20180814-15:13:07.781|36=54|123=Y|10=098|
8=FIX.4.4|9=116|35=x|34=54|43=Y|49=hudfix2|52=20180814-15:13:07.780|56=XBRV|122=20180814-15:12:35.094|320=2018.08.14.15.12.35|559=4|10=037|
8=FIX.4.4|9=98|35=4|34=55|43=Y|49=hudfix2|52=20180814-15:13:07.786|56=XBRV|122=20180814-15:13:07.786|36=57|123=Y|10=114|
8=FIX.4.4|9=116|35=x|34=57|43=Y|49=hudfix2|52=20180814-15:13:07.784|56=XBRV|122=20180814-15:12:50.970|320=2018.08.14.15.12.50|559=4|10=041|
8=FIX.4.4|9=98|35=4|34=58|43=Y|49=hudfix2|52=20180814-15:13:07.791|56=XBRV|122=20180814-15:13:07.791|36=60|123=Y|10=103|
8=FIX.4.4|9=116|35=x|34=60|43=Y|49=hudfix2|52=20180814-15:13:07.789|56=XBRV|122=20180814-15:13:07.120|320=2018.08.14.15.13.07|559=4|10=033|
8=FIX.4.4|9=72|35=4|49=XBRV|56=hudfix2|34=70|43=Y|52=20180814-15:11:57.928|123=Y|36=72|10=085|
8=FIX.4.4|9=168|35=3|49=XBRV|56=hudfix2|34=72|43=Y|52=20180814-15:11:57.928|122=20180814-15:11:42.484|45=51|372=x|373=10|58=Sending time is inaccurate (difference: -00:01:09.1815774).|10=221|
8=FIX.4.4|9=72|35=4|49=XBRV|56=hudfix2|34=73|43=Y|52=20180814-15:11:57.928|123=Y|36=75|10=091|
8=FIX.4.4|9=65|35=2|49=XBRV|56=hudfix2|34=75|52=20180814-15:11:57.928|7=52|16=0|10=208|
8=FIX.4.4|9=65|35=2|49=XBRV|56=hudfix2|34=76|52=20180814-15:11:57.928|7=52|16=0|10=209|
8=FIX.4.4|9=137|35=3|49=XBRV|56=hudfix2|34=77|52=20180814-15:11:58.599|45=54|372=x|373=10|58=Sending time is inaccurate (difference: -00:01:09.1807491).|10=221|
8=FIX.4.4|9=98|35=4|34=52|43=Y|49=hudfix2|52=20180814-15:13:08.509|56=XBRV|122=20180814-15:13:08.509|36=54|123=Y|10=096|
8=FIX.4.4|9=116|35=x|34=54|43=Y|49=hudfix2|52=20180814-15:13:08.508|56=XBRV|122=20180814-15:12:35.094|320=2018.08.14.15.12.35|559=4|10=036|
8=FIX.4.4|9=98|35=4|34=55|43=Y|49=hudfix2|52=20180814-15:13:08.513|56=XBRV|122=20180814-15:13:08.513|36=57|123=Y|10=092|
8=FIX.4.4|9=116|35=x|34=57|43=Y|49=hudfix2|52=20180814-15:13:08.512|56=XBRV|122=20180814-15:12:50.970|320=2018.08.14.15.12.50|559=4|10=031|
8=FIX.4.4|9=98|35=4|34=58|43=Y|49=hudfix2|52=20180814-15:13:08.517|56=XBRV|122=20180814-15:13:08.517|36=60|123=Y|10=097|
8=FIX.4.4|9=116|35=x|34=60|43=Y|49=hudfix2|52=20180814-15:13:08.515|56=XBRV|122=20180814-15:13:07.120|320=2018.08.14.15.13.07|559=4|10=021|
8=FIX.4.4|9=67|35=A|34=61|49=hudfix2|52=20180814-15:13:22.344|56=XBRV|98=0|108=30|10=054|
8=FIX.4.4|9=67|35=A|49=XBRV|56=hudfix2|34=78|52=20180814-15:12:13.185|98=0|108=30|10=064|
8=FIX.4.4|9=65|35=2|34=62|49=hudfix2|52=20180814-15:13:23.057|56=XBRV|7=76|16=0|10=198|
8=FIX.4.4|9=85|35=x|34=63|49=hudfix2|52=20180814-15:13:23.061|56=XBRV|320=2018.08.14.15.13.23|559=4|10=232|
8=FIX.4.4|9=65|35=2|49=XBRV|56=hudfix2|34=79|52=20180814-15:12:13.185|7=55|16=0|10=203|
8=FIX.4.4|9=98|35=4|34=55|43=Y|49=hudfix2|52=20180814-15:13:23.730|56=XBRV|122=20180814-15:13:23.730|36=57|123=Y|10=088|
8=FIX.4.4|9=116|35=x|34=57|43=Y|49=hudfix2|52=20180814-15:13:23.729|56=XBRV|122=20180814-15:12:50.970|320=2018.08.14.15.12.50|559=4|10=038|
8=FIX.4.4|9=98|35=4|34=58|43=Y|49=hudfix2|52=20180814-15:13:23.734|56=XBRV|122=20180814-15:13:23.734|36=60|123=Y|10=093|
8=FIX.4.4|9=116|35=x|34=60|43=Y|49=hudfix2|52=20180814-15:13:23.732|56=XBRV|122=20180814-15:13:07.120|320=2018.08.14.15.13.07|559=4|10=019|
8=FIX.4.4|9=98|35=4|34=61|43=Y|49=hudfix2|52=20180814-15:13:23.737|56=XBRV|122=20180814-15:13:23.737|36=63|123=Y|10=096|
8=FIX.4.4|9=116|35=x|34=63|43=Y|49=hudfix2|52=20180814-15:13:23.736|56=XBRV|122=20180814-15:13:23.061|320=2018.08.14.15.13.23|559=4|10=026|
8=FIX.4.4|9=72|35=4|49=XBRV|56=hudfix2|34=76|43=Y|52=20180814-15:12:13.871|123=Y|36=77|10=086|
8=FIX.4.4|9=168|35=3|49=XBRV|56=hudfix2|34=77|43=Y|52=20180814-15:12:13.871|122=20180814-15:11:58.599|45=54|372=x|373=10|58=Sending time is inaccurate (difference: -00:01:09.1807491).|10=230|
8=FIX.4.4|9=72|35=4|49=XBRV|56=hudfix2|34=78|43=Y|52=20180814-15:12:13.871|123=Y|36=80|10=082|
8=FIX.4.4|9=65|35=2|49=XBRV|56=hudfix2|34=80|52=20180814-15:12:13.871|7=55|16=0|10=197|
8=FIX.4.4|9=65|35=2|49=XBRV|56=hudfix2|34=81|52=20180814-15:12:13.871|7=55|16=0|10=198|
8=FIX.4.4|9=67|35=A|34=64|49=hudfix2|52=20180814-15:13:38.342|56=XBRV|98=0|108=30|10=062|
8=FIX.4.4|9=67|35=A|49=XBRV|56=hudfix2|34=83|52=20180814-15:12:29.175|98=0|108=30|10=066|
8=FIX.4.4|9=65|35=2|34=65|49=hudfix2|52=20180814-15:13:38.975|56=XBRV|7=80|16=0|10=211|
8=FIX.4.4|9=85|35=x|34=66|49=hudfix2|52=20180814-15:13:38.978|56=XBRV|320=2018.08.14.15.13.38|559=4|10=008|
8=FIX.4.4|9=65|35=2|49=XBRV|56=hudfix2|34=84|52=20180814-15:12:29.175|7=58|16=0|10=208|
8=FIX.4.4|9=98|35=4|34=58|43=Y|49=hudfix2|52=20180814-15:13:39.654|56=XBRV|122=20180814-15:13:39.654|36=60|123=Y|10=109|
8=FIX.4.4|9=116|35=x|34=60|43=Y|49=hudfix2|52=20180814-15:13:39.653|56=XBRV|122=20180814-15:13:07.120|320=2018.08.14.15.13.07|559=4|10=028|
8=FIX.4.4|9=98|35=4|34=61|43=Y|49=hudfix2|52=20180814-15:13:39.658|56=XBRV|122=20180814-15:13:39.658|36=63|123=Y|10=114|
8=FIX.4.4|9=116|35=x|34=63|43=Y|49=hudfix2|52=20180814-15:13:39.657|56=XBRV|122=20180814-15:13:23.061|320=2018.08.14.15.13.23|559=4|10=035|
8=FIX.4.4|9=98|35=4|34=64|43=Y|49=hudfix2|52=20180814-15:13:39.662|56=XBRV|122=20180814-15:13:39.662|36=66|123=Y|10=110|
8=FIX.4.4|9=116|35=x|34=66|43=Y|49=hudfix2|52=20180814-15:13:39.660|56=XBRV|122=20180814-15:13:38.978|320=2018.08.14.15.13.38|559=4|10=061|
8=FIX.4.4|9=72|35=4|49=XBRV|56=hudfix2|34=80|43=Y|52=20180814-15:12:29.768|123=Y|36=82|10=089|
8=FIX.4.4|9=168|35=3|49=XBRV|56=hudfix2|34=82|43=Y|52=20180814-15:12:29.768|122=20180814-15:12:14.604|45=57|372=x|373=10|58=Sending time is inaccurate (difference: -00:01:09.1241210).|10=202|
8=FIX.4.4|9=72|35=4|49=XBRV|56=hudfix2|34=83|43=Y|52=20180814-15:12:29.783|123=Y|36=85|10=092|
8=FIX.4.4|9=65|35=2|49=XBRV|56=hudfix2|34=85|52=20180814-15:12:29.783|7=58|16=0|10=214|
8=FIX.4.4|9=98|35=4|34=58|43=Y|49=hudfix2|52=20180814-15:13:39.683|56=XBRV|122=20180814-15:13:39.683|36=60|123=Y|10=113|
8=FIX.4.4|9=116|35=x|34=60|43=Y|49=hudfix2|52=20180814-15:13:39.681|56=XBRV|122=20180814-15:13:07.120|320=2018.08.14.15.13.07|559=4|10=029|
8=FIX.4.4|9=98|35=4|34=61|43=Y|49=hudfix2|52=20180814-15:13:39.686|56=XBRV|122=20180814-15:13:39.686|36=63|123=Y|10=116|
8=FIX.4.4|9=116|35=x|34=63|43=Y|49=hudfix2|52=20180814-15:13:39.685|56=XBRV|122=20180814-15:13:23.061|320=2018.08.14.15.13.23|559=4|10=036|
8=FIX.4.4|9=98|35=4|34=64|43=Y|49=hudfix2|52=20180814-15:13:39.690|56=XBRV|122=20180814-15:13:39.690|36=66|123=Y|10=112|
8=FIX.4.4|9=116|35=x|34=66|43=Y|49=hudfix2|52=20180814-15:13:39.689|56=XBRV|122=20180814-15:13:38.978|320=2018.08.14.15.13.38|559=4|10=072|
8=FIX.4.4|9=65|35=2|49=XBRV|56=hudfix2|34=86|52=20180814-15:12:29.814|7=58|16=0|10=210|
8=FIX.4.4|9=98|35=4|34=58|43=Y|49=hudfix2|52=20180814-15:13:40.401|56=XBRV|122=20180814-15:13:40.401|36=60|123=Y|10=073|
8=FIX.4.4|9=116|35=x|34=60|43=Y|49=hudfix2|52=20180814-15:13:40.399|56=XBRV|122=20180814-15:13:07.120|320=2018.08.14.15.13.07|559=4|10=027|
8=FIX.4.4|9=98|35=4|34=61|43=Y|49=hudfix2|52=20180814-15:13:40.405|56=XBRV|122=20180814-15:13:40.405|36=63|123=Y|10=078|
8=FIX.4.4|9=116|35=x|34=63|43=Y|49=hudfix2|52=20180814-15:13:40.403|56=XBRV|122=20180814-15:13:23.061|320=2018.08.14.15.13.23|559=4|10=016|
8=FIX.4.4|9=98|35=4|34=64|43=Y|49=hudfix2|52=20180814-15:13:40.408|56=XBRV|122=20180814-15:13:40.408|36=66|123=Y|10=090|
8=FIX.4.4|9=116|35=x|34=66|43=Y|49=hudfix2|52=20180814-15:13:40.407|56=XBRV|122=20180814-15:13:38.978|320=2018.08.14.15.13.38|559=4|10=052|
8=FIX.4.4|9=67|35=A|34=67|49=hudfix2|52=20180814-15:13:54.343|56=XBRV|98=0|108=30|10=064|
8=FIX.4.4|9=67|35=A|49=XBRV|56=hudfix2|34=88|52=20180814-15:12:45.180|98=0|108=30|10=065|
8=FIX.4.4|9=65|35=2|34=68|49=hudfix2|52=20180814-15:13:54.736|56=XBRV|7=87|16=0|10=214|
8=FIX.4.4|9=85|35=x|34=69|49=hudfix2|52=20180814-15:13:54.740|56=XBRV|320=2018.08.14.15.13.54|559=4|10=250|
8=FIX.4.4|9=65|35=2|49=XBRV|56=hudfix2|34=89|52=20180814-15:12:45.180|7=61|16=0|10=201|
8=FIX.4.4|9=98|35=4|34=61|43=Y|49=hudfix2|52=20180814-15:13:55.220|56=XBRV|122=20180814-15:13:55.220|36=63|123=Y|10=080|
8=FIX.4.4|9=116|35=x|34=63|43=Y|49=hudfix2|52=20180814-15:13:55.219|56=XBRV|122=20180814-15:13:23.061|320=2018.08.14.15.13.23|559=4|10=027|
8=FIX.4.4|9=98|35=4|34=64|43=Y|49=hudfix2|52=20180814-15:13:55.224|56=XBRV|122=20180814-15:13:55.224|36=66|123=Y|10=094|
8=FIX.4.4|9=116|35=x|34=66|43=Y|49=hudfix2|52=20180814-15:13:55.223|56=XBRV|122=20180814-15:13:38.978|320=2018.08.14.15.13.38|559=4|10=054|
8=FIX.4.4|9=98|35=4|34=67|43=Y|49=hudfix2|52=20180814-15:13:55.228|56=XBRV|122=20180814-15:13:55.228|36=69|123=Y|10=108|
8=FIX.4.4|9=116|35=x|34=69|43=Y|49=hudfix2|52=20180814-15:13:55.226|56=XBRV|122=20180814-15:13:54.740|320=2018.08.14.15.13.54|559=4|10=043|
8=FIX.4.4|9=168|35=3|49=XBRV|56=hudfix2|34=87|43=Y|52=20180814-15:12:45.539|122=20180814-15:12:30.454|45=60|372=x|373=10|58=Sending time is inaccurate (difference: -00:01:09.1984931).|10=220|
8=FIX.4.4|9=72|35=4|49=XBRV|56=hudfix2|34=88|43=Y|52=20180814-15:12:45.539|123=Y|36=90|10=090|
8=FIX.4.4|9=65|35=2|49=XBRV|56=hudfix2|34=90|52=20180814-15:12:45.539|7=61|16=0|10=201|
8=FIX.4.4|9=65|35=2|49=XBRV|56=hudfix2|34=91|52=20180814-15:12:45.539|7=61|16=0|10=202|
8=FIX.4.4|9=67|35=A|34=70|49=hudfix2|52=20180814-15:14:10.342|56=XBRV|98=0|108=30|10=050|
8=FIX.4.4|9=67|35=A|49=XBRV|56=hudfix2|34=93|52=20180814-15:13:01.202|98=0|108=30|10=049|
8=FIX.4.4|9=65|35=2|34=71|49=hudfix2|52=20180814-15:14:11.021|56=XBRV|7=90|16=0|10=183|
8=FIX.4.4|9=85|35=x|34=72|49=hudfix2|52=20180814-15:14:11.025|56=XBRV|320=2018.08.14.15.14.11|559=4|10=228|
8=FIX.4.4|9=65|35=2|49=XBRV|56=hudfix2|34=94|52=20180814-15:13:01.202|7=64|16=0|10=188|
8=FIX.4.4|9=98|35=4|34=64|43=Y|49=hudfix2|52=20180814-15:14:11.433|56=XBRV|122=20180814-15:14:11.433|36=66|123=Y|10=084|
8=FIX.4.4|9=116|35=x|34=66|43=Y|49=hudfix2|52=20180814-15:14:11.432|56=XBRV|122=20180814-15:13:38.978|320=2018.08.14.15.13.38|559=4|10=049|
8=FIX.4.4|9=98|35=4|34=67|43=Y|49=hudfix2|52=20180814-15:14:11.436|56=XBRV|122=20180814-15:14:11.436|36=69|123=Y|10=096|
8=FIX.4.4|9=116|35=x|34=69|43=Y|49=hudfix2|52=20180814-15:14:11.435|56=XBRV|122=20180814-15:13:54.740|320=2018.08.14.15.13.54|559=4|10=038|
8=FIX.4.4|9=98|35=4|34=70|43=Y|49=hudfix2|52=20180814-15:14:11.440|56=XBRV|122=20180814-15:14:11.440|36=72|123=Y|10=074|
8=FIX.4.4|9=116|35=x|34=72|43=Y|49=hudfix2|52=20180814-15:14:11.438|56=XBRV|122=20180814-15:14:11.025|320=2018.08.14.15.14.11|559=4|10=019|
8=FIX.4.4|9=72|35=4|49=XBRV|56=hudfix2|34=90|43=Y|52=20180814-15:13:01.841|123=Y|36=92|10=074|
8=FIX.4.4|9=168|35=3|49=XBRV|56=hudfix2|34=92|43=Y|52=20180814-15:13:01.841|122=20180814-15:12:46.038|45=63|372=x|373=10|58=Sending time is inaccurate (difference: -00:01:09.1800658).|10=206|
8=FIX.4.4|9=72|35=4|49=XBRV|56=hudfix2|34=93|43=Y|52=20180814-15:13:01.841|123=Y|36=95|10=080|
8=FIX.4.4|9=65|35=2|49=XBRV|56=hudfix2|34=95|52=20180814-15:13:01.841|7=64|16=0|10=198|
8=FIX.4.4|9=98|35=4|34=64|43=Y|49=hudfix2|52=20180814-15:14:11.560|56=XBRV|122=20180814-15:14:11.560|36=66|123=Y|10=086|
8=FIX.4.4|9=116|35=x|34=66|43=Y|49=hudfix2|52=20180814-15:14:11.559|56=XBRV|122=20180814-15:13:38.978|320=2018.08.14.15.13.38|559=4|10=059|
8=FIX.4.4|9=98|35=4|34=67|43=Y|49=hudfix2|52=20180814-15:14:11.564|56=XBRV|122=20180814-15:14:11.564|36=69|123=Y|10=100|
8=FIX.4.4|9=116|35=x|34=69|43=Y|49=hudfix2|52=20180814-15:14:11.563|56=XBRV|122=20180814-15:13:54.740|320=2018.08.14.15.13.54|559=4|10=040|
8=FIX.4.4|9=98|35=4|34=70|43=Y|49=hudfix2|52=20180814-15:14:11.567|56=XBRV|122=20180814-15:14:11.567|36=72|123=Y|10=094|
8=FIX.4.4|9=116|35=x|34=72|43=Y|49=hudfix2|52=20180814-15:14:11.566|56=XBRV|122=20180814-15:14:11.025|320=2018.08.14.15.14.11|559=4|10=021|
8=FIX.4.4|9=65|35=2|49=XBRV|56=hudfix2|34=96|52=20180814-15:13:01.919|7=64|16=0|10=205|
8=FIX.4.4|9=98|35=4|34=64|43=Y|49=hudfix2|52=20180814-15:14:11.916|56=XBRV|122=20180814-15:14:11.916|36=66|123=Y|10=096|
8=FIX.4.4|9=116|35=x|34=66|43=Y|49=hudfix2|52=20180814-15:14:11.915|56=XBRV|122=20180814-15:13:38.978|320=2018.08.14.15.13.38|559=4|10=055|
8=FIX.4.4|9=98|35=4|34=67|43=Y|49=hudfix2|52=20180814-15:14:11.919|56=XBRV|122=20180814-15:14:11.919|36=69|123=Y|10=108|
8=FIX.4.4|9=116|35=x|34=69|43=Y|49=hudfix2|52=20180814-15:14:11.918|56=XBRV|122=20180814-15:13:54.740|320=2018.08.14.15.13.54|559=4|10=044|
8=FIX.4.4|9=98|35=4|34=70|43=Y|49=hudfix2|52=20180814-15:14:11.922|56=XBRV|122=20180814-15:14:11.922|36=72|123=Y|10=084|
8=FIX.4.4|9=116|35=x|34=72|43=Y|49=hudfix2|52=20180814-15:14:11.921|56=XBRV|122=20180814-15:14:11.025|320=2018.08.14.15.14.11|559=4|10=016|
8=FIX.4.4|9=67|35=A|34=73|49=hudfix2|52=20180814-15:14:26.343|56=XBRV|98=0|108=30|10=061|
8=FIX.4.4|9=67|35=A|49=XBRV|56=hudfix2|34=98|52=20180814-15:13:17.192|98=0|108=30|10=069|
8=FIX.4.4|9=65|35=2|34=74|49=hudfix2|52=20180814-15:14:27.072|56=XBRV|7=97|16=0|10=206|
8=FIX.4.4|9=85|35=x|34=75|49=hudfix2|52=20180814-15:14:27.076|56=XBRV|320=2018.08.14.15.14.27|559=4|10=251|
8=FIX.4.4|9=65|35=2|49=XBRV|56=hudfix2|34=99|52=20180814-15:13:17.192|7=67|16=0|10=211|
8=FIX.4.4|9=98|35=4|34=67|43=Y|49=hudfix2|52=20180814-15:14:27.713|56=XBRV|122=20180814-15:14:27.713|36=69|123=Y|10=106|
8=FIX.4.4|9=116|35=x|34=69|43=Y|49=hudfix2|52=20180814-15:14:27.712|56=XBRV|122=20180814-15:13:54.740|320=2018.08.14.15.13.54|559=4|10=043|
8=FIX.4.4|9=98|35=4|34=70|43=Y|49=hudfix2|52=20180814-15:14:27.717|56=XBRV|122=20180814-15:14:27.717|36=72|123=Y|10=102|
8=FIX.4.4|9=116|35=x|34=72|43=Y|49=hudfix2|52=20180814-15:14:27.716|56=XBRV|122=20180814-15:14:11.025|320=2018.08.14.15.14.11|559=4|10=025|
8=FIX.4.4|9=98|35=4|34=73|43=Y|49=hudfix2|52=20180814-15:14:27.721|56=XBRV|122=20180814-15:14:27.721|36=75|123=Y|10=098|
8=FIX.4.4|9=116|35=x|34=75|43=Y|49=hudfix2|52=20180814-15:14:27.719|56=XBRV|122=20180814-15:14:27.076|320=2018.08.14.15.14.27|559=4|10=051|
8=FIX.4.4|9=168|35=3|49=XBRV|56=hudfix2|34=97|43=Y|52=20180814-15:13:17.878|122=20180814-15:13:02.231|45=66|372=x|373=10|58=Sending time is inaccurate (difference: -00:01:09.2002373).|10=208|
8=FIX.4.4|9=73|35=4|49=XBRV|56=hudfix2|34=98|43=Y|52=20180814-15:13:17.878|123=Y|36=100|10=138|
8=FIX.4.4|9=66|35=2|49=XBRV|56=hudfix2|34=100|52=20180814-15:13:17.878|7=67|16=0|10=254|
8=FIX.4.4|9=66|35=2|49=XBRV|56=hudfix2|34=101|52=20180814-15:13:17.878|7=67|16=0|10=255|
8=FIX.4.4|9=98|35=4|34=67|43=Y|49=hudfix2|52=20180814-15:14:28.321|56=XBRV|122=20180814-15:14:28.321|36=69|123=Y|10=098|
8=FIX.4.4|9=116|35=x|34=69|43=Y|49=hudfix2|52=20180814-15:14:28.320|56=XBRV|122=20180814-15:13:54.740|320=2018.08.14.15.13.54|559=4|10=039|
8=FIX.4.4|9=98|35=4|34=70|43=Y|49=hudfix2|52=20180814-15:14:28.326|56=XBRV|122=20180814-15:14:28.326|36=72|123=Y|10=096|
8=FIX.4.4|9=116|35=x|34=72|43=Y|49=hudfix2|52=20180814-15:14:28.324|56=XBRV|122=20180814-15:14:11.025|320=2018.08.14.15.14.11|559=4|10=021|
8=FIX.4.4|9=98|35=4|34=73|43=Y|49=hudfix2|52=20180814-15:14:28.329|56=XBRV|122=20180814-15:14:28.329|36=75|123=Y|10=108|
8=FIX.4.4|9=116|35=x|34=75|43=Y|49=hudfix2|52=20180814-15:14:28.328|56=XBRV|122=20180814-15:14:27.076|320=2018.08.14.15.14.27|559=4|10=048|
8=FIX.4.4|9=98|35=4|34=67|43=Y|49=hudfix2|52=20180814-15:14:28.335|56=XBRV|122=20180814-15:14:28.335|36=69|123=Y|10=108|
8=FIX.4.4|9=138|35=3|49=XBRV|56=hudfix2|34=102|52=20180814-15:13:18.518|45=69|372=x|373=10|58=Sending time is inaccurate (difference: -00:01:09.1938087).|10=004|
8=FIX.4.4|9=116|35=x|34=69|43=Y|49=hudfix2|52=20180814-15:14:28.334|56=XBRV|122=20180814-15:13:54.740|320=2018.08.14.15.13.54|559=4|10=044|
8=FIX.4.4|9=98|35=4|34=70|43=Y|49=hudfix2|52=20180814-15:14:28.340|56=XBRV|122=20180814-15:14:28.340|36=72|123=Y|10=088|
8=FIX.4.4|9=116|35=x|34=72|43=Y|49=hudfix2|52=20180814-15:14:28.337|56=XBRV|122=20180814-15:14:11.025|320=2018.08.14.15.14.11|559=4|10=025|
8=FIX.4.4|9=98|35=4|34=73|43=Y|49=hudfix2|52=20180814-15:14:28.342|56=XBRV|122=20180814-15:14:28.342|36=75|123=Y|10=098|
8=FIX.4.4|9=116|35=x|34=75|43=Y|49=hudfix2|52=20180814-15:14:28.341|56=XBRV|122=20180814-15:14:27.076|320=2018.08.14.15.14.27|559=4|10=043|
8=FIX.4.4|9=67|35=A|34=76|49=hudfix2|52=20180814-15:14:42.342|56=XBRV|98=0|108=30|10=061|
8=FIX.4.4|9=68|35=A|49=XBRV|56=hudfix2|34=103|52=20180814-15:13:33.182|98=0|108=30|10=102|
8=FIX.4.4|9=85|35=x|34=77|49=hudfix2|52=20180814-15:14:42.992|56=XBRV|320=2018.08.14.15.14.42|559=4|10=254|
8=FIX.4.4|9=66|35=2|49=XBRV|56=hudfix2|34=104|52=20180814-15:13:33.182|7=70|16=0|10=238|
8=FIX.4.4|9=66|35=2|49=XBRV|56=hudfix2|34=105|52=20180814-15:13:33.790|7=70|16=0|10=244|
8=FIX.4.4|9=98|35=4|34=70|43=Y|49=hudfix2|52=20180814-15:14:44.987|56=XBRV|122=20180814-15:14:44.987|36=72|123=Y|10=118|
8=FIX.4.4|9=116|35=x|34=72|43=Y|49=hudfix2|52=20180814-15:14:44.986|56=XBRV|122=20180814-15:14:11.025|320=2018.08.14.15.14.11|559=4|10=033|
8=FIX.4.4|9=98|35=4|34=73|43=Y|49=hudfix2|52=20180814-15:14:44.992|56=XBRV|122=20180814-15:14:44.991|36=75|123=Y|10=115|
8=FIX.4.4|9=116|35=x|34=75|43=Y|49=hudfix2|52=20180814-15:14:44.990|56=XBRV|122=20180814-15:14:27.076|320=2018.08.14.15.14.27|559=4|10=051|
8=FIX.4.4|9=98|35=4|34=76|43=Y|49=hudfix2|52=20180814-15:14:44.997|56=XBRV|122=20180814-15:14:44.997|36=77|123=Y|10=131|
8=FIX.4.4|9=116|35=x|34=77|43=Y|49=hudfix2|52=20180814-15:14:44.995|56=XBRV|122=20180814-15:14:42.992|320=2018.08.14.15.14.42|559=4|10=059|
8=FIX.4.4|9=98|35=4|34=70|43=Y|49=hudfix2|52=20180814-15:14:45.003|56=XBRV|122=20180814-15:14:45.003|36=72|123=Y|10=078|
8=FIX.4.4|9=116|35=x|34=72|43=Y|49=hudfix2|52=20180814-15:14:45.002|56=XBRV|122=20180814-15:14:11.025|320=2018.08.14.15.14.11|559=4|10=013|
8=FIX.4.4|9=98|35=4|34=73|43=Y|49=hudfix2|52=20180814-15:14:45.006|56=XBRV|122=20180814-15:14:45.006|36=75|123=Y|10=090|
8=FIX.4.4|9=116|35=x|34=75|43=Y|49=hudfix2|52=20180814-15:14:45.005|56=XBRV|122=20180814-15:14:27.076|320=2018.08.14.15.14.27|559=4|10=039|
8=FIX.4.4|9=98|35=4|34=76|43=Y|49=hudfix2|52=20180814-15:14:45.011|56=XBRV|122=20180814-15:14:45.011|36=77|123=Y|10=087|
8=FIX.4.4|9=116|35=x|34=77|43=Y|49=hudfix2|52=20180814-15:14:45.009|56=XBRV|122=20180814-15:14:42.992|320=2018.08.14.15.14.42|559=4|10=046|
8=FIX.4.4|9=138|35=3|49=XBRV|56=hudfix2|34=106|52=20180814-15:13:35.803|45=72|372=x|373=10|58=Sending time is inaccurate (difference: -00:01:09.1829783).|10=000|
8=FIX.4.4|9=67|35=A|34=78|49=hudfix2|52=20180814-15:14:58.343|56=XBRV|98=0|108=30|10=071|
8=FIX.4.4|9=68|35=A|49=XBRV|56=hudfix2|34=107|52=20180814-15:13:49.187|98=0|108=30|10=118|
8=FIX.4.4|9=85|35=x|34=79|49=hudfix2|52=20180814-15:14:59.150|56=XBRV|320=2018.08.14.15.14.59|559=4|10=002|
8=FIX.4.4|9=66|35=2|49=XBRV|56=hudfix2|34=108|52=20180814-15:13:49.187|7=73|16=0|10=001|
8=FIX.4.4|9=98|35=4|34=73|43=Y|49=hudfix2|52=20180814-15:14:59.860|56=XBRV|122=20180814-15:14:59.859|36=75|123=Y|10=124|
8=FIX.4.4|9=116|35=x|34=75|43=Y|49=hudfix2|52=20180814-15:14:59.858|56=XBRV|122=20180814-15:14:27.076|320=2018.08.14.15.14.27|559=4|10=060|
8=FIX.4.4|9=98|35=4|34=76|43=Y|49=hudfix2|52=20180814-15:14:59.864|56=XBRV|122=20180814-15:14:59.864|36=77|123=Y|10=129|
8=FIX.4.4|9=116|35=x|34=77|43=Y|49=hudfix2|52=20180814-15:14:59.862|56=XBRV|122=20180814-15:14:42.992|320=2018.08.14.15.14.42|559=4|10=058|
8=FIX.4.4|9=98|35=4|34=78|43=Y|49=hudfix2|52=20180814-15:14:59.867|56=XBRV|122=20180814-15:14:59.867|36=79|123=Y|10=139|
8=FIX.4.4|9=116|35=x|34=79|43=Y|49=hudfix2|52=20180814-15:14:59.866|56=XBRV|122=20180814-15:14:59.150|320=2018.08.14.15.14.59|559=4|10=066|
8=FIX.4.4|9=66|35=2|49=XBRV|56=hudfix2|34=109|52=20180814-15:13:49.952|7=73|16=0|10=002|
8=FIX.4.4|9=98|35=4|34=73|43=Y|49=hudfix2|52=20180814-15:15:00.597|56=XBRV|122=20180814-15:15:00.597|36=75|123=Y|10=104|
8=FIX.4.4|9=116|35=x|34=75|43=Y|49=hudfix2|52=20180814-15:15:00.596|56=XBRV|122=20180814-15:14:27.076|320=2018.08.14.15.14.27|559=4|10=046|
8=FIX.4.4|9=98|35=4|34=76|43=Y|49=hudfix2|52=20180814-15:15:00.601|56=XBRV|122=20180814-15:15:00.601|36=77|123=Y|10=081|
8=FIX.4.4|9=116|35=x|34=77|43=Y|49=hudfix2|52=20180814-15:15:00.600|56=XBRV|122=20180814-15:14:42.992|320=2018.08.14.15.14.42|559=4|10=035|
8=FIX.4.4|9=98|35=4|34=78|43=Y|49=hudfix2|52=20180814-15:15:00.605|56=XBRV|122=20180814-15:15:00.605|36=79|123=Y|10=093|
8=FIX.4.4|9=116|35=x|34=79|43=Y|49=hudfix2|52=20180814-15:15:00.604|56=XBRV|122=20180814-15:14:59.150|320=2018.08.14.15.14.59|559=4|10=043|
8=FIX.4.4|9=138|35=3|49=XBRV|56=hudfix2|34=110|52=20180814-15:13:50.669|45=75|372=x|373=10|58=Sending time is inaccurate (difference: -00:01:09.1881522).|10=250|
8=FIX.4.4|9=67|35=A|34=80|49=hudfix2|52=20180814-15:15:14.342|56=XBRV|98=0|108=30|10=056|
8=FIX.4.4|9=68|35=A|49=XBRV|56=hudfix2|34=111|52=20180814-15:14:05.193|98=0|108=30|10=103|
8=FIX.4.4|9=85|35=x|34=81|49=hudfix2|52=20180814-15:15:15.130|56=XBRV|320=2018.08.14.15.15.15|559=4|10=235|
8=FIX.4.4|9=66|35=2|49=XBRV|56=hudfix2|34=112|52=20180814-15:14:05.193|7=76|16=0|10=245|
8=FIX.4.4|9=98|35=4|34=76|43=Y|49=hudfix2|52=20180814-15:15:15.844|56=XBRV|122=20180814-15:15:15.844|36=77|123=Y|10=111|
8=FIX.4.4|9=116|35=x|34=77|43=Y|49=hudfix2|52=20180814-15:15:15.842|56=XBRV|122=20180814-15:14:42.992|320=2018.08.14.15.14.42|559=4|10=049|
8=FIX.4.4|9=98|35=4|34=78|43=Y|49=hudfix2|52=20180814-15:15:15.849|56=XBRV|122=20180814-15:15:15.849|36=79|123=Y|10=125|
8=FIX.4.4|9=116|35=x|34=79|43=Y|49=hudfix2|52=20180814-15:15:15.847|56=XBRV|122=20180814-15:14:59.150|320=2018.08.14.15.14.59|559=4|10=058|
8=FIX.4.4|9=98|35=4|34=80|43=Y|49=hudfix2|52=20180814-15:15:15.852|56=XBRV|122=20180814-15:15:15.852|36=81|123=Y|10=099|
8=FIX.4.4|9=116|35=x|34=81|43=Y|49=hudfix2|52=20180814-15:15:15.851|56=XBRV|122=20180814-15:15:15.130|320=2018.08.14.15.15.15|559=4|10=030|
8=FIX.4.4|9=66|35=2|49=XBRV|56=hudfix2|34=113|52=20180814-15:14:05.942|7=76|16=0|10=248|
8=FIX.4.4|9=98|35=4|34=76|43=Y|49=hudfix2|52=20180814-15:15:16.499|56=XBRV|122=20180814-15:15:16.499|36=77|123=Y|10=125|
8=FIX.4.4|9=116|35=x|34=77|43=Y|49=hudfix2|52=20180814-15:15:16.498|56=XBRV|122=20180814-15:14:42.992|320=2018.08.14.15.14.42|559=4|10=057|
8=FIX.4.4|9=98|35=4|34=78|43=Y|49=hudfix2|52=20180814-15:15:16.503|56=XBRV|122=20180814-15:15:16.503|36=79|123=Y|10=101|
8=FIX.4.4|9=116|35=x|34=79|43=Y|49=hudfix2|52=20180814-15:15:16.501|56=XBRV|122=20180814-15:14:59.150|320=2018.08.14.15.14.59|559=4|10=046|
8=FIX.4.4|9=98|35=4|34=80|43=Y|49=hudfix2|52=20180814-15:15:16.506|56=XBRV|122=20180814-15:15:16.506|36=81|123=Y|10=093|
8=FIX.4.4|9=116|35=x|34=81|43=Y|49=hudfix2|52=20180814-15:15:16.505|56=XBRV|122=20180814-15:15:15.130|320=2018.08.14.15.15.15|559=4|10=027|
8=FIX.4.4|9=138|35=3|49=XBRV|56=hudfix2|34=114|52=20180814-15:14:06.659|45=77|372=x|373=10|58=Sending time is inaccurate (difference: -00:01:09.1821242).|10=250|
8=FIX.4.4|9=67|35=A|34=82|49=hudfix2|52=20180814-15:15:30.343|56=XBRV|98=0|108=30|10=057|
8=FIX.4.4|9=68|35=A|49=XBRV|56=hudfix2|34=115|52=20180814-15:14:21.183|98=0|108=30|10=104|
8=FIX.4.4|9=85|35=x|34=83|49=hudfix2|52=20180814-15:15:31.087|56=XBRV|320=2018.08.14.15.15.31|559=4|10=244|
8=FIX.4.4|9=66|35=2|49=XBRV|56=hudfix2|34=116|52=20180814-15:14:21.183|7=78|16=0|10=248|
8=FIX.4.4|9=98|35=4|34=78|43=Y|49=hudfix2|52=20180814-15:15:31.645|56=XBRV|122=20180814-15:15:31.644|36=79|123=Y|10=108|
8=FIX.4.4|9=116|35=x|34=79|43=Y|49=hudfix2|52=20180814-15:15:31.643|56=XBRV|122=20180814-15:14:59.150|320=2018.08.14.15.14.59|559=4|10=050|
8=FIX.4.4|9=98|35=4|34=80|43=Y|49=hudfix2|52=20180814-15:15:31.648|56=XBRV|122=20180814-15:15:31.648|36=81|123=Y|10=101|
8=FIX.4.4|9=116|35=x|34=81|43=Y|49=hudfix2|52=20180814-15:15:31.647|56=XBRV|122=20180814-15:15:15.130|320=2018.08.14.15.15.15|559=4|10=031|
8=FIX.4.4|9=98|35=4|34=82|43=Y|49=hudfix2|52=20180814-15:15:31.652|56=XBRV|122=20180814-15:15:31.652|36=83|123=Y|10=095|
8=FIX.4.4|9=116|35=x|34=83|43=Y|49=hudfix2|52=20180814-15:15:31.650|56=XBRV|122=20180814-15:15:31.087|320=2018.08.14.15.15.31|559=4|10=034|
8=FIX.4.4|9=66|35=2|49=XBRV|56=hudfix2|34=117|52=20180814-15:14:21.901|7=78|16=0|10=247|
8=FIX.4.4|9=138|35=3|49=XBRV|56=hudfix2|34=118|52=20180814-15:14:22.743|45=79|372=x|373=10|58=Sending time is inaccurate (difference: -00:01:08.8994959).|10=024|
8=FIX.4.4|9=98|35=4|34=78|43=Y|49=hudfix2|52=20180814-15:15:32.554|56=XBRV|122=20180814-15:15:32.554|36=79|123=Y|10=109|
8=FIX.4.4|9=116|35=x|34=79|43=Y|49=hudfix2|52=20180814-15:15:32.553|56=XBRV|122=20180814-15:14:59.150|320=2018.08.14.15.14.59|559=4|10=051|
8=FIX.4.4|9=98|35=4|34=80|43=Y|49=hudfix2|52=20180814-15:15:32.596|56=XBRV|122=20180814-15:15:32.596|36=81|123=Y|10=107|
8=FIX.4.4|9=116|35=x|34=81|43=Y|49=hudfix2|52=20180814-15:15:32.595|56=XBRV|122=20180814-15:15:15.130|320=2018.08.14.15.15.15|559=4|10=034|
8=FIX.4.4|9=98|35=4|34=82|43=Y|49=hudfix2|52=20180814-15:15:32.599|56=XBRV|122=20180814-15:15:32.599|36=83|123=Y|10=117|
8=FIX.4.4|9=116|35=x|34=83|43=Y|49=hudfix2|52=20180814-15:15:32.598|56=XBRV|122=20180814-15:15:31.087|320=2018.08.14.15.15.31|559=4|10=046|
8=FIX.4.4|9=67|35=A|34=84|49=hudfix2|52=20180814-15:15:46.342|56=XBRV|98=0|108=30|10=065|
8=FIX.4.4|9=68|35=A|49=XBRV|56=hudfix2|34=119|52=20180814-15:14:37.625|98=0|108=30|10=116|
8=FIX.4.4|9=85|35=x|34=85|49=hudfix2|52=20180814-15:15:47.408|56=XBRV|320=2018.08.14.15.15.47|559=4|10=001|
8=FIX.4.4|9=66|35=2|49=XBRV|56=hudfix2|34=120|52=20180814-15:14:37.625|7=80|16=0|10=244|
8=FIX.4.4|9=98|35=4|34=80|43=Y|49=hudfix2|52=20180814-15:15:48.063|56=XBRV|122=20180814-15:15:48.063|36=81|123=Y|10=099|
8=FIX.4.4|9=116|35=x|34=81|43=Y|49=hudfix2|52=20180814-15:15:48.062|56=XBRV|122=20180814-15:15:15.130|320=2018.08.14.15.15.15|559=4|10=030|
8=FIX.4.4|9=98|35=4|34=82|43=Y|49=hudfix2|52=20180814-15:15:48.067|56=XBRV|122=20180814-15:15:48.067|36=83|123=Y|10=111|
8=FIX.4.4|9=116|35=x|34=83|43=Y|49=hudfix2|52=20180814-15:15:48.065|56=XBRV|122=20180814-15:15:31.087|320=2018.08.14.15.15.31|559=4|10=042|
8=FIX.4.4|9=98|35=4|34=84|43=Y|49=hudfix2|52=20180814-15:15:48.070|56=XBRV|122=20180814-15:15:48.070|36=85|123=Y|10=103|
8=FIX.4.4|9=116|35=x|34=85|43=Y|49=hudfix2|52=20180814-15:15:48.069|56=XBRV|122=20180814-15:15:47.408|320=2018.08.14.15.15.47|559=4|10=059|
8=FIX.4.4|9=66|35=2|49=XBRV|56=hudfix2|34=121|52=20180814-15:14:38.858|7=80|16=0|10=254|
8=FIX.4.4|9=98|35=4|34=80|43=Y|49=hudfix2|52=20180814-15:15:48.737|56=XBRV|122=20180814-15:15:48.737|36=81|123=Y|10=115|
8=FIX.4.4|9=116|35=x|34=81|43=Y|49=hudfix2|52=20180814-15:15:48.735|56=XBRV|122=20180814-15:15:15.130|320=2018.08.14.15.15.15|559=4|10=037|
8=FIX.4.4|9=98|35=4|34=82|43=Y|49=hudfix2|52=20180814-15:15:48.741|56=XBRV|122=20180814-15:15:48.740|36=83|123=Y|10=108|
8=FIX.4.4|9=116|35=x|34=83|43=Y|49=hudfix2|52=20180814-15:15:48.739|56=XBRV|122=20180814-15:15:31.087|320=2018.08.14.15.15.31|559=4|10=050|
8=FIX.4.4|9=98|35=4|34=84|43=Y|49=hudfix2|52=20180814-15:15:48.744|56=XBRV|122=20180814-15:15:48.744|36=85|123=Y|10=119|
8=FIX.4.4|9=116|35=x|34=85|43=Y|49=hudfix2|52=20180814-15:15:48.743|56=XBRV|122=20180814-15:15:47.408|320=2018.08.14.15.15.47|559=4|10=058|
8=FIX.4.4|9=138|35=3|49=XBRV|56=hudfix2|34=122|52=20180814-15:14:39.076|45=81|372=x|373=10|58=Sending time is inaccurate (difference: -00:01:08.9852672).|10=005|
8=FIX.4.4|9=67|35=A|34=86|49=hudfix2|52=20180814-15:17:16.728|56=XBRV|98=0|108=30|10=074|
8=FIX.4.4|9=68|35=A|49=XBRV|56=hudfix2|34=123|52=20180814-15:16:09.260|98=0|108=30|10=107|
8=FIX.4.4|9=85|35=x|34=87|49=hudfix2|52=20180814-15:17:19.064|56=XBRV|320=2018.08.14.15.17.19|559=4|10=003|
8=FIX.4.4|9=66|35=2|49=XBRV|56=hudfix2|34=124|52=20180814-15:16:09.260|7=82|16=0|10=246|
8=FIX.4.4|9=98|35=4|34=82|43=Y|49=hudfix2|52=20180814-15:17:19.709|56=XBRV|122=20180814-15:17:19.709|36=83|123=Y|10=117|
8=FIX.4.4|9=116|35=x|34=83|43=Y|49=hudfix2|52=20180814-15:17:19.707|56=XBRV|122=20180814-15:15:31.087|320=2018.08.14.15.15.31|559=4|10=045|
8=FIX.4.4|9=98|35=4|34=84|43=Y|49=hudfix2|52=20180814-15:17:19.712|56=XBRV|122=20180814-15:17:19.712|36=85|123=Y|10=109|
8=FIX.4.4|9=116|35=x|34=85|43=Y|49=hudfix2|52=20180814-15:17:19.711|56=XBRV|122=20180814-15:15:47.408|320=2018.08.14.15.15.47|559=4|10=053|
8=FIX.4.4|9=98|35=4|34=86|43=Y|49=hudfix2|52=20180814-15:17:19.912|56=XBRV|122=20180814-15:17:19.912|36=87|123=Y|10=117|
8=FIX.4.4|9=116|35=x|34=87|43=Y|49=hudfix2|52=20180814-15:17:19.715|56=XBRV|122=20180814-15:17:19.064|320=2018.08.14.15.17.19|559=4|10=059|
8=FIX.4.4|9=66|35=2|49=XBRV|56=hudfix2|34=125|52=20180814-15:16:10.492|7=82|16=0|10=246|
8=FIX.4.4|9=98|35=4|34=82|43=Y|49=hudfix2|52=20180814-15:17:20.331|56=XBRV|122=20180814-15:17:20.331|36=83|123=Y|10=083|
8=FIX.4.4|9=116|35=x|34=83|43=Y|49=hudfix2|52=20180814-15:17:20.329|56=XBRV|122=20180814-15:15:31.087|320=2018.08.14.15.15.31|559=4|10=037|
8=FIX.4.4|9=98|35=4|34=84|43=Y|49=hudfix2|52=20180814-15:17:20.334|56=XBRV|122=20180814-15:17:20.334|36=85|123=Y|10=093|
8=FIX.4.4|9=116|35=x|34=85|43=Y|49=hudfix2|52=20180814-15:17:20.333|56=XBRV|122=20180814-15:15:47.408|320=2018.08.14.15.15.47|559=4|10=045|
8=FIX.4.4|9=98|35=4|34=86|43=Y|49=hudfix2|52=20180814-15:17:20.338|56=XBRV|122=20180814-15:17:20.338|36=87|123=Y|10=105|
8=FIX.4.4|9=116|35=x|34=87|43=Y|49=hudfix2|52=20180814-15:17:20.336|56=XBRV|122=20180814-15:17:19.064|320=2018.08.14.15.17.19|559=4|10=050|
8=FIX.4.4|9=138|35=3|49=XBRV|56=hudfix2|34=126|52=20180814-15:16:11.132|45=83|372=x|373=10|58=Sending time is inaccurate (difference: -00:01:08.5745055).|10=244|
8=FIX.4.4|9=55|35=0|34=88|49=hudfix2|52=20180814-15:17:50.344|56=XBRV|10=023|
8=FIX.4.4|9=64|35=1|34=89|49=hudfix2|52=20180814-15:18:06.342|56=XBRV|112=TEST|10=043|
8=FIX.4.4|9=67|35=A|34=90|49=hudfix2|52=20180814-15:18:36.871|56=XBRV|98=0|108=30|10=071|
8=FIX.4.4|9=67|35=A|34=91|49=hudfix2|52=20180814-15:18:48.343|56=XBRV|98=0|108=30|10=069|
8=FIX.4.4|9=67|35=A|34=92|49=hudfix2|52=20180814-15:18:59.343|56=XBRV|98=0|108=30|10=072|
8=FIX.4.4|9=67|35=A|34=93|49=hudfix2|52=20180814-15:19:11.370|56=XBRV|98=0|108=30|10=062|
8=FIX.4.4|9=67|35=A|34=94|49=hudfix2|52=20180814-15:19:24.489|56=XBRV|98=0|108=30|10=078|
8=FIX.4.4|9=67|35=A|34=95|49=hudfix2|52=20180814-15:19:36.356|56=XBRV|98=0|108=30|10=075|
8=FIX.4.4|9=67|35=A|34=96|49=hudfix2|52=20180814-15:19:48.342|56=XBRV|98=0|108=30|10=074|
8=FIX.4.4|9=67|35=A|34=97|49=hudfix2|52=20180814-15:19:59.488|56=XBRV|98=0|108=30|10=088|
8=FIX.4.4|9=67|35=A|34=98|49=hudfix2|52=20180814-15:20:11.343|56=XBRV|98=0|108=30|10=059|
8=FIX.4.4|9=67|35=A|34=99|49=hudfix2|52=20180814-15:20:23.344|56=XBRV|98=0|108=30|10=064|
8=FIX.4.4|9=68|35=A|34=100|49=hudfix2|52=20180814-15:20:35.343|56=XBRV|98=0|108=30|10=098|
8=FIX.4.4|9=68|35=A|34=101|49=hudfix2|52=20180814-15:20:46.348|56=XBRV|98=0|108=30|10=106|
8=FIX.4.4|9=68|35=A|34=102|49=hudfix2|52=20180814-15:20:58.342|56=XBRV|98=0|108=30|10=104|
8=FIX.4.4|9=68|35=A|34=103|49=hudfix2|52=20180814-15:21:09.343|56=XBRV|98=0|108=30|10=103|
8=FIX.4.4|9=68|35=A|34=104|49=hudfix2|52=20180814-15:21:20.346|56=XBRV|98=0|108=30|10=100|
8=FIX.4.4|9=68|35=A|34=105|49=hudfix2|52=20180814-15:21:31.594|56=XBRV|98=0|108=30|10=108|
8=FIX.4.4|9=68|35=A|34=106|49=hudfix2|52=20180814-15:21:42.387|56=XBRV|98=0|108=30|10=111|
8=FIX.4.4|9=68|35=A|34=107|49=hudfix2|52=20180814-15:21:54.343|56=XBRV|98=0|108=30|10=107|
8=FIX.4.4|9=68|35=A|34=108|49=hudfix2|52=20180814-15:22:05.342|56=XBRV|98=0|108=30|10=104|
8=FIX.4.4|9=68|35=A|34=109|49=hudfix2|52=20180814-15:22:16.689|56=XBRV|98=0|108=30|10=121|
8=FIX.4.4|9=68|35=A|34=110|49=hudfix2|52=20180814-15:22:28.342|56=XBRV|98=0|108=30|10=102|
8=FIX.4.4|9=68|35=A|34=111|49=hudfix2|52=20180814-15:22:39.343|56=XBRV|98=0|108=30|10=106|
8=FIX.4.4|9=68|35=A|34=112|49=hudfix2|52=20180814-15:22:50.350|56=XBRV|98=0|108=30|10=098|
8=FIX.4.4|9=68|35=A|34=113|49=hudfix2|52=20180814-15:23:02.968|56=XBRV|98=0|108=30|10=112|
8=FIX.4.4|9=68|35=A|34=114|49=hudfix2|52=20180814-15:23:14.343|56=XBRV|98=0|108=30|10=103|
8=FIX.4.4|9=68|35=A|34=115|49=hudfix2|52=20180814-15:23:25.343|56=XBRV|98=0|108=30|10=106|
8=FIX.4.4|9=68|35=A|34=116|49=hudfix2|52=20180814-15:23:37.343|56=XBRV|98=0|108=30|10=110|
8=FIX.4.4|9=68|35=A|34=117|49=hudfix2|52=20180814-15:23:48.343|56=XBRV|98=0|108=30|10=113|
8=FIX.4.4|9=68|35=A|34=118|49=hudfix2|52=20180814-15:23:59.343|56=XBRV|98=0|108=30|10=116|
8=FIX.4.4|9=68|35=A|34=119|49=hudfix2|52=20180814-15:24:10.343|56=XBRV|98=0|108=30|10=105|
8=FIX.4.4|9=68|35=A|34=120|49=hudfix2|52=20180814-15:24:22.384|56=XBRV|98=0|108=30|10=105|
8=FIX.4.4|9=68|35=A|34=121|49=hudfix2|52=20180814-15:24:34.344|56=XBRV|98=0|108=30|10=105|
8=FIX.4.4|9=68|35=A|34=122|49=hudfix2|52=20180814-15:24:45.351|56=XBRV|98=0|108=30|10=106|
8=FIX.4.4|9=68|35=A|34=123|49=hudfix2|52=20180814-15:24:57.343|56=XBRV|98=0|108=30|10=111|
8=FIX.4.4|9=68|35=A|34=124|49=hudfix2|52=20180814-15:25:08.344|56=XBRV|98=0|108=30|10=110|
8=FIX.4.4|9=68|35=A|34=125|49=hudfix2|52=20180814-15:25:19.343|56=XBRV|98=0|108=30|10=112|
8=FIX.4.4|9=68|35=A|34=126|49=hudfix2|52=20180814-15:25:31.354|56=XBRV|98=0|108=30|10=109|
8=FIX.4.4|9=68|35=A|34=127|49=hudfix2|52=20180814-15:25:43.459|56=XBRV|98=0|108=30|10=119|
8=FIX.4.4|9=68|35=A|34=128|49=hudfix2|52=20180814-15:25:54.344|56=XBRV|98=0|108=30|10=115|
8=FIX.4.4|9=68|35=A|34=129|49=hudfix2|52=20180814-15:26:05.344|56=XBRV|98=0|108=30|10=113|
8=FIX.4.4|9=68|35=A|34=130|49=hudfix2|52=20180814-15:26:17.344|56=XBRV|98=0|108=30|10=108|
8=FIX.4.4|9=68|35=A|34=131|49=hudfix2|52=20180814-15:26:29.344|56=XBRV|98=0|108=30|10=112|
8=FIX.4.4|9=68|35=A|34=132|49=hudfix2|52=20180814-15:26:41.342|56=XBRV|98=0|108=30|10=105|
8=FIX.4.4|9=68|35=A|34=133|49=hudfix2|52=20180814-15:26:54.620|56=XBRV|98=0|108=30|10=109|
8=FIX.4.4|9=68|35=A|34=134|49=hudfix2|52=20180814-15:27:05.342|56=XBRV|98=0|108=30|10=108|
8=FIX.4.4|9=68|35=A|34=135|49=hudfix2|52=20180814-15:27:16.496|56=XBRV|98=0|108=30|10=121|
8=FIX.4.4|9=68|35=A|34=136|49=hudfix2|52=20180814-15:27:28.343|56=XBRV|98=0|108=30|10=116|
8=FIX.4.4|9=68|35=A|34=137|49=hudfix2|52=20180814-15:27:39.353|56=XBRV|98=0|108=30|10=120|
8=FIX.4.4|9=68|35=A|34=138|49=hudfix2|52=20180814-15:27:51.344|56=XBRV|98=0|108=30|10=115|
8=FIX.4.4|9=68|35=A|34=139|49=hudfix2|52=20180814-15:28:02.805|56=XBRV|98=0|108=30|10=115|
8=FIX.4.4|9=68|35=A|34=140|49=hudfix2|52=20180814-15:28:14.344|56=XBRV|98=0|108=30|10=108|
8=FIX.4.4|9=68|35=A|34=141|49=hudfix2|52=20180814-15:28:26.343|56=XBRV|98=0|108=30|10=111|
8=FIX.4.4|9=68|35=A|34=142|49=hudfix2|52=20180814-15:28:37.347|56=XBRV|98=0|108=30|10=118|
8=FIX.4.4|9=68|35=A|34=143|49=hudfix2|52=20180814-15:28:49.343|56=XBRV|98=0|108=30|10=118|
8=FIX.4.4|9=68|35=A|34=144|49=hudfix2|52=20180814-15:29:01.344|56=XBRV|98=0|108=30|10=109|
8=FIX.4.4|9=68|35=A|34=145|49=hudfix2|52=20180814-15:29:13.342|56=XBRV|98=0|108=30|10=111|
8=FIX.4.4|9=68|35=A|34=146|49=hudfix2|52=20180814-15:29:24.342|56=XBRV|98=0|108=30|10=114|
8=FIX.4.4|9=68|35=A|34=147|49=hudfix2|52=20180814-15:29:35.343|56=XBRV|98=0|108=30|10=118|
8=FIX.4.4|9=68|35=A|34=148|49=hudfix2|52=20180814-15:29:46.356|56=XBRV|98=0|108=30|10=125|
8=FIX.4.4|9=68|35=A|34=149|49=hudfix2|52=20180814-15:29:58.347|56=XBRV|98=0|108=30|10=129|
8=FIX.4.4|9=68|35=A|34=150|49=hudfix2|52=20180814-15:30:10.344|56=XBRV|98=0|108=30|10=098|
8=FIX.4.4|9=68|35=A|34=151|49=hudfix2|52=20180814-15:30:27.701|56=XBRV|98=0|108=30|10=104|
8=FIX.4.4|9=68|35=A|34=152|49=hudfix2|52=20180814-15:30:39.343|56=XBRV|98=0|108=30|10=110|
8=FIX.4.4|9=68|35=A|34=153|49=hudfix2|52=20180814-15:30:50.343|56=XBRV|98=0|108=30|10=104|
8=FIX.4.4|9=68|35=A|34=154|49=hudfix2|52=20180814-15:31:01.344|56=XBRV|98=0|108=30|10=103|
8=FIX.4.4|9=68|35=A|34=155|49=hudfix2|52=20180814-15:31:13.342|56=XBRV|98=0|108=30|10=105|
8=FIX.4.4|9=68|35=A|34=156|49=hudfix2|52=20180814-15:31:24.343|56=XBRV|98=0|108=30|10=109|
8=FIX.4.4|9=68|35=A|34=157|49=hudfix2|52=20180814-15:31:35.343|56=XBRV|98=0|108=30|10=112|
8=FIX.4.4|9=68|35=A|34=158|49=hudfix2|52=20180814-15:31:46.343|56=XBRV|98=0|108=30|10=115|
8=FIX.4.4|9=68|35=A|34=159|49=hudfix2|52=20180814-15:31:57.342|56=XBRV|98=0|108=30|10=117|
8=FIX.4.4|9=68|35=A|34=160|49=hudfix2|52=20180814-15:32:08.365|56=XBRV|98=0|108=30|10=111|
8=FIX.4.4|9=68|35=A|34=161|49=hudfix2|52=20180814-15:32:21.834|56=XBRV|98=0|108=30|10=108|
8=FIX.4.4|9=68|35=A|34=162|49=hudfix2|52=20180814-15:32:33.527|56=XBRV|98=0|108=30|10=111|
8=FIX.4.4|9=68|35=A|34=163|49=hudfix2|52=20180814-15:32:44.344|56=XBRV|98=0|108=30|10=111|
8=FIX.4.4|9=68|35=A|34=164|49=hudfix2|52=20180814-15:32:56.342|56=XBRV|98=0|108=30|10=113|
8=FIX.4.4|9=68|35=A|34=165|49=hudfix2|52=20180814-15:33:07.343|56=XBRV|98=0|108=30|10=112|
8=FIX.4.4|9=68|35=A|34=166|49=hudfix2|52=20180814-15:33:18.343|56=XBRV|98=0|108=30|10=115|
8=FIX.4.4|9=68|35=A|34=167|49=hudfix2|52=20180814-15:33:30.343|56=XBRV|98=0|108=30|10=110|
8=FIX.4.4|9=68|35=A|34=168|49=hudfix2|52=20180814-15:33:41.342|56=XBRV|98=0|108=30|10=112|
8=FIX.4.4|9=68|35=A|34=169|49=hudfix2|52=20180814-15:33:52.342|56=XBRV|98=0|108=30|10=115|
8=FIX.4.4|9=68|35=A|34=170|49=hudfix2|52=20180814-15:34:03.343|56=XBRV|98=0|108=30|10=105|
8=FIX.4.4|9=68|35=A|34=171|49=hudfix2|52=20180814-15:34:14.344|56=XBRV|98=0|108=30|10=109|
8=FIX.4.4|9=68|35=A|34=172|49=hudfix2|52=20180814-15:34:26.493|56=XBRV|98=0|108=30|10=118|
8=FIX.4.4|9=68|35=A|34=173|49=hudfix2|52=20180814-15:34:38.370|56=XBRV|98=0|108=30|10=116|
8=FIX.4.4|9=68|35=A|34=174|49=hudfix2|52=20180814-15:34:50.365|56=XBRV|98=0|108=30|10=115|
8=FIX.4.4|9=68|35=A|34=175|49=hudfix2|52=20180814-15:35:01.371|56=XBRV|98=0|108=30|10=110|
8=FIX.4.4|9=68|35=A|34=176|49=hudfix2|52=20180814-15:35:13.351|56=XBRV|98=0|108=30|10=112|
8=FIX.4.4|9=68|35=A|34=177|49=hudfix2|52=20180814-15:35:24.350|56=XBRV|98=0|108=30|10=114|
8=FIX.4.4|9=68|35=A|34=178|49=hudfix2|52=20180814-15:35:34.721|56=XBRV|98=0|108=30|10=118|
8=FIX.4.4|9=68|35=A|34=179|49=hudfix2|52=20180814-15:35:47.068|56=XBRV|98=0|108=30|10=127|
8=FIX.4.4|9=68|35=A|34=180|49=hudfix2|52=20180814-15:35:58.345|56=XBRV|98=0|108=30|10=119|
8=FIX.4.4|9=68|35=A|34=181|49=hudfix2|52=20180814-15:36:10.342|56=XBRV|98=0|108=30|10=106|
8=FIX.4.4|9=68|35=A|34=182|49=hudfix2|52=20180814-15:36:21.362|56=XBRV|98=0|108=30|10=111|
8=FIX.4.4|9=68|35=A|34=183|49=hudfix2|52=20180814-15:36:32.351|56=XBRV|98=0|108=30|10=112|
8=FIX.4.4|9=68|35=A|34=184|49=hudfix2|52=20180814-15:36:43.361|56=XBRV|98=0|108=30|10=116|
8=FIX.4.4|9=68|35=A|34=100|49=hudfix2|52=20180814-16:47:00.098|56=XBRV|98=0|108=30|10=107|
8=FIX.4.4|9=68|35=A|49=XBRV|56=hudfix2|34=127|52=20180814-16:45:54.748|98=0|108=30|10=125|
8=FIX.4.4|9=86|35=x|34=101|49=hudfix2|52=20180814-16:47:05.516|56=XBRV|320=2018.08.14.16.47.05|559=4|10=039|
8=FIX.4.4|9=66|35=2|49=XBRV|56=hudfix2|34=128|52=20180814-16:45:54.748|7=84|16=0|10=010|
8=FIX.4.4|9=98|35=4|34=84|43=Y|49=hudfix2|52=20180814-16:47:06.287|56=XBRV|122=20180814-16:47:06.287|36=85|123=Y|10=123|
8=FIX.4.4|9=116|35=x|34=85|43=Y|49=hudfix2|52=20180814-16:47:06.269|56=XBRV|122=20180814-15:15:47.408|320=2018.08.14.15.15.47|559=4|10=061|
8=FIX.4.4|9=98|35=4|34=86|43=Y|49=hudfix2|52=20180814-16:47:06.293|56=XBRV|122=20180814-16:47:06.293|36=87|123=Y|10=121|
8=FIX.4.4|9=116|35=x|34=87|43=Y|49=hudfix2|52=20180814-16:47:06.291|56=XBRV|122=20180814-15:17:19.064|320=2018.08.14.15.17.19|559=4|10=058|
8=FIX.4.4|9=99|35=4|34=88|43=Y|49=hudfix2|52=20180814-16:47:06.299|56=XBRV|122=20180814-16:47:06.299|36=101|123=Y|10=171|
8=FIX.4.4|9=117|35=x|34=101|43=Y|49=hudfix2|52=20180814-16:47:06.297|56=XBRV|122=20180814-16:47:05.516|320=2018.08.14.16.47.05|559=4|10=100|
8=FIX.4.4|9=66|35=2|49=XBRV|56=hudfix2|34=129|52=20180814-16:45:55.528|7=84|16=0|10=008|
8=FIX.4.4|9=138|35=3|49=XBRV|56=hudfix2|34=130|52=20180814-16:45:56.324|45=85|372=x|373=10|58=Sending time is inaccurate (difference: -00:01:09.9446469).|10=012|
8=FIX.4.4|9=98|35=4|34=84|43=Y|49=hudfix2|52=20180814-16:47:07.094|56=XBRV|122=20180814-16:47:07.094|36=85|123=Y|10=117|
8=FIX.4.4|9=116|35=x|34=85|43=Y|49=hudfix2|52=20180814-16:47:07.092|56=XBRV|122=20180814-15:15:47.408|320=2018.08.14.15.15.47|559=4|10=056|
8=FIX.4.4|9=98|35=4|34=86|43=Y|49=hudfix2|52=20180814-16:47:07.140|56=XBRV|122=20180814-16:47:07.140|36=87|123=Y|10=105|
8=FIX.4.4|9=116|35=x|34=87|43=Y|49=hudfix2|52=20180814-16:47:07.137|56=XBRV|122=20180814-15:17:19.064|320=2018.08.14.15.17.19|559=4|10=058|
8=FIX.4.4|9=99|35=4|34=88|43=Y|49=hudfix2|52=20180814-16:47:07.145|56=XBRV|122=20180814-16:47:07.145|36=101|123=Y|10=153|
8=FIX.4.4|9=117|35=x|34=101|43=Y|49=hudfix2|52=20180814-16:47:07.143|56=XBRV|122=20180814-16:47:05.516|320=2018.08.14.16.47.05|559=4|10=091|
8=FIX.4.4|9=56|35=0|34=102|49=hudfix2|52=20180814-16:47:38.056|56=XBRV|10=069|
